{
  "_format": "hh-sol-artifact-1",
  "contractName": "LightNFT",
  "sourceName": "contracts/LightNFT.sol",
  "abi": [
    {
      "inputs": [
        {
          "internalType": "address",
          "name": "_authorizedMinter",
          "type": "address"
        }
      ],
      "stateMutability": "nonpayable",
      "type": "constructor"
    },
    {
      "inputs": [
        {
          "internalType": "address",
          "name": "sender",
          "type": "address"
        },
        {
          "internalType": "uint256",
          "name": "tokenId",
          "type": "uint256"
        },
        {
          "internalType": "address",
          "name": "owner",
          "type": "address"
        }
      ],
      "name": "ERC721IncorrectOwner",
      "type": "error"
    },
    {
      "inputs": [
        {
          "internalType": "address",
          "name": "operator",
          "type": "address"
        },
        {
          "internalType": "uint256",
          "name": "tokenId",
          "type": "uint256"
        }
      ],
      "name": "ERC721InsufficientApproval",
      "type": "error"
    },
    {
      "inputs": [
        {
          "internalType": "address",
          "name": "approver",
          "type": "address"
        }
      ],
      "name": "ERC721InvalidApprover",
      "type": "error"
    },
    {
      "inputs": [
        {
          "internalType": "address",
          "name": "operator",
          "type": "address"
        }
      ],
      "name": "ERC721InvalidOperator",
      "type": "error"
    },
    {
      "inputs": [
        {
          "internalType": "address",
          "name": "owner",
          "type": "address"
        }
      ],
      "name": "ERC721InvalidOwner",
      "type": "error"
    },
    {
      "inputs": [
        {
          "internalType": "address",
          "name": "receiver",
          "type": "address"
        }
      ],
      "name": "ERC721InvalidReceiver",
      "type": "error"
    },
    {
      "inputs": [
        {
          "internalType": "address",
          "name": "sender",
          "type": "address"
        }
      ],
      "name": "ERC721InvalidSender",
      "type": "error"
    },
    {
      "inputs": [
        {
          "internalType": "uint256",
          "name": "tokenId",
          "type": "uint256"
        }
      ],
      "name": "ERC721NonexistentToken",
      "type": "error"
    },
    {
      "anonymous": false,
      "inputs": [
        {
          "indexed": true,
          "internalType": "address",
          "name": "owner",
          "type": "address"
        },
        {
          "indexed": true,
          "internalType": "address",
          "name": "approved",
          "type": "address"
        },
        {
          "indexed": true,
          "internalType": "uint256",
          "name": "tokenId",
          "type": "uint256"
        }
      ],
      "name": "Approval",
      "type": "event"
    },
    {
      "anonymous": false,
      "inputs": [
        {
          "indexed": true,
          "internalType": "address",
          "name": "owner",
          "type": "address"
        },
        {
          "indexed": true,
          "internalType": "address",
          "name": "operator",
          "type": "address"
        },
        {
          "indexed": false,
          "internalType": "bool",
          "name": "approved",
          "type": "bool"
        }
      ],
      "name": "ApprovalForAll",
      "type": "event"
    },
    {
      "anonymous": false,
      "inputs": [
        {
          "indexed": true,
          "internalType": "address",
          "name": "from",
          "type": "address"
        },
        {
          "indexed": true,
          "internalType": "address",
          "name": "to",
          "type": "address"
        },
        {
          "indexed": true,
          "internalType": "uint256",
          "name": "tokenId",
          "type": "uint256"
        }
      ],
      "name": "Transfer",
      "type": "event"
    },
    {
      "inputs": [
        {
          "internalType": "address",
          "name": "to",
          "type": "address"
        },
        {
          "internalType": "uint256",
          "name": "tokenId",
          "type": "uint256"
        }
      ],
      "name": "approve",
      "outputs": [],
      "stateMutability": "nonpayable",
      "type": "function"
    },
    {
      "inputs": [],
      "name": "authorizedMinter",
      "outputs": [
        {
          "internalType": "address",
          "name": "",
          "type": "address"
        }
      ],
      "stateMutability": "view",
      "type": "function"
    },
    {
      "inputs": [
        {
          "internalType": "address",
          "name": "owner",
          "type": "address"
        }
      ],
      "name": "balanceOf",
      "outputs": [
        {
          "internalType": "uint256",
          "name": "",
          "type": "uint256"
        }
      ],
      "stateMutability": "view",
      "type": "function"
    },
    {
      "inputs": [
        {
          "internalType": "uint256",
          "name": "tokenId",
          "type": "uint256"
        }
      ],
      "name": "getApproved",
      "outputs": [
        {
          "internalType": "address",
          "name": "",
          "type": "address"
        }
      ],
      "stateMutability": "view",
      "type": "function"
    },
    {
      "inputs": [
        {
          "internalType": "address",
          "name": "owner",
          "type": "address"
        },
        {
          "internalType": "address",
          "name": "operator",
          "type": "address"
        }
      ],
      "name": "isApprovedForAll",
      "outputs": [
        {
          "internalType": "bool",
          "name": "",
          "type": "bool"
        }
      ],
      "stateMutability": "view",
      "type": "function"
    },
    {
      "inputs": [
        {
          "internalType": "address",
          "name": "recipient",
          "type": "address"
        },
        {
          "internalType": "string",
          "name": "_uri",
          "type": "string"
        }
      ],
      "name": "mint",
      "outputs": [],
      "stateMutability": "nonpayable",
      "type": "function"
    },
    {
      "inputs": [],
      "name": "mintPrice",
      "outputs": [
        {
          "internalType": "uint256",
          "name": "",
          "type": "uint256"
        }
      ],
      "stateMutability": "view",
      "type": "function"
    },
    {
      "inputs": [],
      "name": "name",
      "outputs": [
        {
          "internalType": "string",
          "name": "",
          "type": "string"
        }
      ],
      "stateMutability": "view",
      "type": "function"
    },
    {
      "inputs": [],
      "name": "nextTokenId",
      "outputs": [
        {
          "internalType": "uint256",
          "name": "",
          "type": "uint256"
        }
      ],
      "stateMutability": "view",
      "type": "function"
    },
    {
      "inputs": [
        {
          "internalType": "uint256",
          "name": "tokenId",
          "type": "uint256"
        }
      ],
      "name": "ownerOf",
      "outputs": [
        {
          "internalType": "address",
          "name": "",
          "type": "address"
        }
      ],
      "stateMutability": "view",
      "type": "function"
    },
    {
      "inputs": [
        {
          "internalType": "address",
          "name": "from",
          "type": "address"
        },
        {
          "internalType": "address",
          "name": "to",
          "type": "address"
        },
        {
          "internalType": "uint256",
          "name": "tokenId",
          "type": "uint256"
        }
      ],
      "name": "safeTransferFrom",
      "outputs": [],
      "stateMutability": "nonpayable",
      "type": "function"
    },
    {
      "inputs": [
        {
          "internalType": "address",
          "name": "from",
          "type": "address"
        },
        {
          "internalType": "address",
          "name": "to",
          "type": "address"
        },
        {
          "internalType": "uint256",
          "name": "tokenId",
          "type": "uint256"
        },
        {
          "internalType": "bytes",
          "name": "data",
          "type": "bytes"
        }
      ],
      "name": "safeTransferFrom",
      "outputs": [],
      "stateMutability": "nonpayable",
      "type": "function"
    },
    {
      "inputs": [
        {
          "internalType": "address",
          "name": "operator",
          "type": "address"
        },
        {
          "internalType": "bool",
          "name": "approved",
          "type": "bool"
        }
      ],
      "name": "setApprovalForAll",
      "outputs": [],
      "stateMutability": "nonpayable",
      "type": "function"
    },
    {
      "inputs": [
        {
          "internalType": "bytes4",
          "name": "interfaceId",
          "type": "bytes4"
        }
      ],
      "name": "supportsInterface",
      "outputs": [
        {
          "internalType": "bool",
          "name": "",
          "type": "bool"
        }
      ],
      "stateMutability": "view",
      "type": "function"
    },
    {
      "inputs": [],
      "name": "symbol",
      "outputs": [
        {
          "internalType": "string",
          "name": "",
          "type": "string"
        }
      ],
      "stateMutability": "view",
      "type": "function"
    },
    {
      "inputs": [
        {
          "internalType": "uint256",
          "name": "tokenId",
          "type": "uint256"
        }
      ],
      "name": "tokenURI",
      "outputs": [
        {
          "internalType": "string",
          "name": "",
          "type": "string"
        }
      ],
      "stateMutability": "view",
      "type": "function"
    },
    {
      "inputs": [
        {
          "internalType": "address",
          "name": "from",
          "type": "address"
        },
        {
          "internalType": "address",
          "name": "to",
          "type": "address"
        },
        {
          "internalType": "uint256",
          "name": "tokenId",
          "type": "uint256"
        }
      ],
      "name": "transferFrom",
      "outputs": [],
      "stateMutability": "nonpayable",
      "type": "function"
    }
  ],
  "bytecode": "0x60806040526611c37937e0800060075534801561001b57600080fd5b50604051612630380380612630833981810160405281019061003d9190610175565b6040518060400160405280600881526020017f4c696768744e46540000000000000000000000000000000000000000000000008152506040518060400160405280600481526020017f4c4e46540000000000000000000000000000000000000000000000000000000081525081600090816100b891906103f2565b5080600190816100c891906103f2565b50505080600860006101000a81548173ffffffffffffffffffffffffffffffffffffffff021916908373ffffffffffffffffffffffffffffffffffffffff160217905550506104c4565b600080fd5b600073ffffffffffffffffffffffffffffffffffffffff82169050919050565b600061014282610117565b9050919050565b61015281610137565b811461015d57600080fd5b50565b60008151905061016f81610149565b92915050565b60006020828403121561018b5761018a610112565b5b600061019984828501610160565b91505092915050565b600081519050919050565b7f4e487b7100000000000000000000000000000000000000000000000000000000600052604160045260246000fd5b7f4e487b7100000000000000000000000000000000000000000000000000000000600052602260045260246000fd5b6000600282049050600182168061022357607f821691505b602082108103610236576102356101dc565b5b50919050565b60008190508160005260206000209050919050565b60006020601f8301049050919050565b600082821b905092915050565b60006008830261029e7fffffffffffffffffffffffffffffffffffffffffffffffffffffffffffffffff82610261565b6102a88683610261565b95508019841693508086168417925050509392505050565b6000819050919050565b6000819050919050565b60006102ef6102ea6102e5846102c0565b6102ca565b6102c0565b9050919050565b6000819050919050565b610309836102d4565b61031d610315826102f6565b84845461026e565b825550505050565b600090565b610332610325565b61033d818484610300565b505050565b5b818110156103615761035660008261032a565b600181019050610343565b5050565b601f8211156103a6576103778161023c565b61038084610251565b8101602085101561038f578190505b6103a361039b85610251565b830182610342565b50505b505050565b600082821c905092915050565b60006103c9600019846008026103ab565b1980831691505092915050565b60006103e283836103b8565b9150826002028217905092915050565b6103fb826101a2565b67ffffffffffffffff811115610414576104136101ad565b5b61041e825461020b565b610429828285610365565b600060209050601f83116001811461045c576000841561044a578287015190505b61045485826103d6565b8655506104bc565b601f19841661046a8661023c565b60005b828110156104925784890151825560018201915060208501945060208101905061046d565b868310156104af57848901516104ab601f8916826103b8565b8355505b6001600288020188555050505b505050505050565b61215d806104d36000396000f3fe608060405234801561001057600080fd5b506004361061010b5760003560e01c80636817c76c116100a2578063a22cb46511610071578063a22cb465146102ba578063b88d4fde146102d6578063c87b56dd146102f2578063d0def52114610322578063e985e9c51461033e5761010b565b80636817c76c1461023057806370a082311461024e57806375794a3c1461027e57806395d89b411461029c5761010b565b80631ba538cd116100de5780631ba538cd146101aa57806323b872dd146101c857806342842e0e146101e45780636352211e146102005761010b565b806301ffc9a71461011057806306fdde0314610140578063081812fc1461015e578063095ea7b31461018e575b600080fd5b61012a600480360381019061012591906115d8565b61036e565b6040516101379190611620565b60405180910390f35b610148610450565b60405161015591906116cb565b60405180910390f35b61017860048036038101906101739190611723565b6104e2565b6040516101859190611791565b60405180910390f35b6101a860048036038101906101a391906117d8565b6104fe565b005b6101b2610514565b6040516101bf9190611791565b60405180910390f35b6101e260048036038101906101dd9190611818565b61053a565b005b6101fe60048036038101906101f99190611818565b61063c565b005b61021a60048036038101906102159190611723565b61065c565b6040516102279190611791565b60405180910390f35b61023861066e565b604051610245919061187a565b60405180910390f35b61026860048036038101906102639190611895565b610674565b604051610275919061187a565b60405180910390f35b61028661072e565b604051610293919061187a565b60405180910390f35b6102a4610734565b6040516102b191906116cb565b60405180910390f35b6102d460048036038101906102cf91906118ee565b6107c6565b005b6102f060048036038101906102eb9190611a63565b6107dc565b005b61030c60048036038101906103079190611723565b610801565b60405161031991906116cb565b60405180910390f35b61033c60048036038101906103379190611b87565b6108a6565b005b61035860048036038101906103539190611be3565b61096e565b6040516103659190611620565b60405180910390f35b60007f80ac58cd000000000000000000000000000000000000000000000000000000007bffffffffffffffffffffffffffffffffffffffffffffffffffffffff1916827bffffffffffffffffffffffffffffffffffffffffffffffffffffffff1916148061043957507f5b5e139f000000000000000000000000000000000000000000000000000000007bffffffffffffffffffffffffffffffffffffffffffffffffffffffff1916827bffffffffffffffffffffffffffffffffffffffffffffffffffffffff1916145b80610449575061044882610a02565b5b9050919050565b60606000805461045f90611c52565b80601f016020809104026020016040519081016040528092919081815260200182805461048b90611c52565b80156104d85780601f106104ad576101008083540402835291602001916104d8565b820191906000526020600020905b8154815290600101906020018083116104bb57829003601f168201915b5050505050905090565b60006104ed82610a6c565b506104f782610af4565b9050919050565b610510828261050b610b31565b610b39565b5050565b600860009054906101000a900473ffffffffffffffffffffffffffffffffffffffff1681565b600073ffffffffffffffffffffffffffffffffffffffff168273ffffffffffffffffffffffffffffffffffffffff16036105ac5760006040517f64a0ae920000000000000000000000000000000000000000000000000000000081526004016105a39190611791565b60405180910390fd5b60006105c083836105bb610b31565b610b4b565b90508373ffffffffffffffffffffffffffffffffffffffff168173ffffffffffffffffffffffffffffffffffffffff1614610636578382826040517f64283d7b00000000000000000000000000000000000000000000000000000000815260040161062d93929190611c83565b60405180910390fd5b50505050565b610657838383604051806020016040528060008152506107dc565b505050565b600061066782610a6c565b9050919050565b60075481565b60008073ffffffffffffffffffffffffffffffffffffffff168273ffffffffffffffffffffffffffffffffffffffff16036106e75760006040517f89c62b640000000000000000000000000000000000000000000000000000000081526004016106de9190611791565b60405180910390fd5b600360008373ffffffffffffffffffffffffffffffffffffffff1673ffffffffffffffffffffffffffffffffffffffff168152602001908152602001600020549050919050565b60065481565b60606001805461074390611c52565b80601f016020809104026020016040519081016040528092919081815260200182805461076f90611c52565b80156107bc5780601f10610791576101008083540402835291602001916107bc565b820191906000526020600020905b81548152906001019060200180831161079f57829003601f168201915b5050505050905090565b6107d86107d1610b31565b8383610d65565b5050565b6107e784848461053a565b6107fb6107f2610b31565b85858585610ed4565b50505050565b606060096000838152602001908152602001600020805461082190611c52565b80601f016020809104026020016040519081016040528092919081815260200182805461084d90611c52565b801561089a5780601f1061086f5761010080835404028352916020019161089a565b820191906000526020600020905b81548152906001019060200180831161087d57829003601f168201915b50505050509050919050565b600860009054906101000a900473ffffffffffffffffffffffffffffffffffffffff1673ffffffffffffffffffffffffffffffffffffffff163373ffffffffffffffffffffffffffffffffffffffff1614610936576040517f08c379a000000000000000000000000000000000000000000000000000000000815260040161092d90611d06565b60405180910390fd5b600060065490506109478382611085565b61095181836110a3565b6006600081548092919061096490611d55565b9190505550505050565b6000600560008473ffffffffffffffffffffffffffffffffffffffff1673ffffffffffffffffffffffffffffffffffffffff16815260200190815260200160002060008373ffffffffffffffffffffffffffffffffffffffff1673ffffffffffffffffffffffffffffffffffffffff16815260200190815260200160002060009054906101000a900460ff16905092915050565b60007f01ffc9a7000000000000000000000000000000000000000000000000000000007bffffffffffffffffffffffffffffffffffffffffffffffffffffffff1916827bffffffffffffffffffffffffffffffffffffffffffffffffffffffff1916149050919050565b600080610a78836110c8565b9050600073ffffffffffffffffffffffffffffffffffffffff168173ffffffffffffffffffffffffffffffffffffffff1603610aeb57826040517f7e273289000000000000000000000000000000000000000000000000000000008152600401610ae2919061187a565b60405180910390fd5b80915050919050565b60006004600083815260200190815260200160002060009054906101000a900473ffffffffffffffffffffffffffffffffffffffff169050919050565b600033905090565b610b468383836001611105565b505050565b600080610b57846110c8565b9050600073ffffffffffffffffffffffffffffffffffffffff168373ffffffffffffffffffffffffffffffffffffffff1614610b9957610b988184866112ca565b5b600073ffffffffffffffffffffffffffffffffffffffff168173ffffffffffffffffffffffffffffffffffffffff1614610c2a57610bdb600085600080611105565b6001600360008373ffffffffffffffffffffffffffffffffffffffff1673ffffffffffffffffffffffffffffffffffffffff168152602001908152602001600020600082825403925050819055505b600073ffffffffffffffffffffffffffffffffffffffff168573ffffffffffffffffffffffffffffffffffffffff1614610cad576001600360008773ffffffffffffffffffffffffffffffffffffffff1673ffffffffffffffffffffffffffffffffffffffff168152602001908152602001600020600082825401925050819055505b846002600086815260200190815260200160002060006101000a81548173ffffffffffffffffffffffffffffffffffffffff021916908373ffffffffffffffffffffffffffffffffffffffff160217905550838573ffffffffffffffffffffffffffffffffffffffff168273ffffffffffffffffffffffffffffffffffffffff167fddf252ad1be2c89b69c2b068fc378daa952ba7f163c4a11628f55a4df523b3ef60405160405180910390a4809150509392505050565b600073ffffffffffffffffffffffffffffffffffffffff168273ffffffffffffffffffffffffffffffffffffffff1603610dd657816040517f5b08ba18000000000000000000000000000000000000000000000000000000008152600401610dcd9190611791565b60405180910390fd5b80600560008573ffffffffffffffffffffffffffffffffffffffff1673ffffffffffffffffffffffffffffffffffffffff16815260200190815260200160002060008473ffffffffffffffffffffffffffffffffffffffff1673ffffffffffffffffffffffffffffffffffffffff16815260200190815260200160002060006101000a81548160ff0219169083151502179055508173ffffffffffffffffffffffffffffffffffffffff168373ffffffffffffffffffffffffffffffffffffffff167f17307eab39ab6107e8899845ad3d59bd9653f200f220920489ca2b5937696c3183604051610ec79190611620565b60405180910390a3505050565b60008373ffffffffffffffffffffffffffffffffffffffff163b111561107e578273ffffffffffffffffffffffffffffffffffffffff1663150b7a02868685856040518563ffffffff1660e01b8152600401610f339493929190611df2565b6020604051808303816000875af1925050508015610f6f57506040513d601f19601f82011682018060405250810190610f6c9190611e53565b60015b610ff3573d8060008114610f9f576040519150601f19603f3d011682016040523d82523d6000602084013e610fa4565b606091505b506000815103610feb57836040517f64a0ae92000000000000000000000000000000000000000000000000000000008152600401610fe29190611791565b60405180910390fd5b805160208201fd5b63150b7a0260e01b7bffffffffffffffffffffffffffffffffffffffffffffffffffffffff1916817bffffffffffffffffffffffffffffffffffffffffffffffffffffffff19161461107c57836040517f64a0ae920000000000000000000000000000000000000000000000000000000081526004016110739190611791565b60405180910390fd5b505b5050505050565b61109f82826040518060200160405280600081525061138e565b5050565b806009600084815260200190815260200160002090816110c3919061202c565b505050565b60006002600083815260200190815260200160002060009054906101000a900473ffffffffffffffffffffffffffffffffffffffff169050919050565b808061113e5750600073ffffffffffffffffffffffffffffffffffffffff168273ffffffffffffffffffffffffffffffffffffffff1614155b1561127257600061114e84610a6c565b9050600073ffffffffffffffffffffffffffffffffffffffff168373ffffffffffffffffffffffffffffffffffffffff16141580156111b957508273ffffffffffffffffffffffffffffffffffffffff168173ffffffffffffffffffffffffffffffffffffffff1614155b80156111cc57506111ca818461096e565b155b1561120e57826040517fa9fbf51f0000000000000000000000000000000000000000000000000000000081526004016112059190611791565b60405180910390fd5b811561127057838573ffffffffffffffffffffffffffffffffffffffff168273ffffffffffffffffffffffffffffffffffffffff167f8c5be1e5ebec7d5bd14f71427d1e84f3dd0314c0f7b2291e5b200ac8c7c3b92560405160405180910390a45b505b836004600085815260200190815260200160002060006101000a81548173ffffffffffffffffffffffffffffffffffffffff021916908373ffffffffffffffffffffffffffffffffffffffff16021790555050505050565b6112d58383836113b2565b61138957600073ffffffffffffffffffffffffffffffffffffffff168373ffffffffffffffffffffffffffffffffffffffff160361134a57806040517f7e273289000000000000000000000000000000000000000000000000000000008152600401611341919061187a565b60405180910390fd5b81816040517f177e802f0000000000000000000000000000000000000000000000000000000081526004016113809291906120fe565b60405180910390fd5b505050565b6113988383611473565b6113ad6113a3610b31565b6000858585610ed4565b505050565b60008073ffffffffffffffffffffffffffffffffffffffff168373ffffffffffffffffffffffffffffffffffffffff161415801561146a57508273ffffffffffffffffffffffffffffffffffffffff168473ffffffffffffffffffffffffffffffffffffffff16148061142b575061142a848461096e565b5b8061146957508273ffffffffffffffffffffffffffffffffffffffff1661145183610af4565b73ffffffffffffffffffffffffffffffffffffffff16145b5b90509392505050565b600073ffffffffffffffffffffffffffffffffffffffff168273ffffffffffffffffffffffffffffffffffffffff16036114e55760006040517f64a0ae920000000000000000000000000000000000000000000000000000000081526004016114dc9190611791565b60405180910390fd5b60006114f383836000610b4b565b9050600073ffffffffffffffffffffffffffffffffffffffff168173ffffffffffffffffffffffffffffffffffffffff16146115675760006040517f73c6ac6e00000000000000000000000000000000000000000000000000000000815260040161155e9190611791565b60405180910390fd5b505050565b6000604051905090565b600080fd5b600080fd5b60007fffffffff0000000000000000000000000000000000000000000000000000000082169050919050565b6115b581611580565b81146115c057600080fd5b50565b6000813590506115d2816115ac565b92915050565b6000602082840312156115ee576115ed611576565b5b60006115fc848285016115c3565b91505092915050565b60008115159050919050565b61161a81611605565b82525050565b60006020820190506116356000830184611611565b92915050565b600081519050919050565b600082825260208201905092915050565b60005b8381101561167557808201518184015260208101905061165a565b60008484015250505050565b6000601f19601f8301169050919050565b600061169d8261163b565b6116a78185611646565b93506116b7818560208601611657565b6116c081611681565b840191505092915050565b600060208201905081810360008301526116e58184611692565b905092915050565b6000819050919050565b611700816116ed565b811461170b57600080fd5b50565b60008135905061171d816116f7565b92915050565b60006020828403121561173957611738611576565b5b60006117478482850161170e565b91505092915050565b600073ffffffffffffffffffffffffffffffffffffffff82169050919050565b600061177b82611750565b9050919050565b61178b81611770565b82525050565b60006020820190506117a66000830184611782565b92915050565b6117b581611770565b81146117c057600080fd5b50565b6000813590506117d2816117ac565b92915050565b600080604083850312156117ef576117ee611576565b5b60006117fd858286016117c3565b925050602061180e8582860161170e565b9150509250929050565b60008060006060848603121561183157611830611576565b5b600061183f868287016117c3565b9350506020611850868287016117c3565b92505060406118618682870161170e565b9150509250925092565b611874816116ed565b82525050565b600060208201905061188f600083018461186b565b92915050565b6000602082840312156118ab576118aa611576565b5b60006118b9848285016117c3565b91505092915050565b6118cb81611605565b81146118d657600080fd5b50565b6000813590506118e8816118c2565b92915050565b6000806040838503121561190557611904611576565b5b6000611913858286016117c3565b9250506020611924858286016118d9565b9150509250929050565b600080fd5b600080fd5b7f4e487b7100000000000000000000000000000000000000000000000000000000600052604160045260246000fd5b61197082611681565b810181811067ffffffffffffffff8211171561198f5761198e611938565b5b80604052505050565b60006119a261156c565b90506119ae8282611967565b919050565b600067ffffffffffffffff8211156119ce576119cd611938565b5b6119d782611681565b9050602081019050919050565b82818337600083830152505050565b6000611a06611a01846119b3565b611998565b905082815260208101848484011115611a2257611a21611933565b5b611a2d8482856119e4565b509392505050565b600082601f830112611a4a57611a4961192e565b5b8135611a5a8482602086016119f3565b91505092915050565b60008060008060808587031215611a7d57611a7c611576565b5b6000611a8b878288016117c3565b9450506020611a9c878288016117c3565b9350506040611aad8782880161170e565b925050606085013567ffffffffffffffff811115611ace57611acd61157b565b5b611ada87828801611a35565b91505092959194509250565b600067ffffffffffffffff821115611b0157611b00611938565b5b611b0a82611681565b9050602081019050919050565b6000611b2a611b2584611ae6565b611998565b905082815260208101848484011115611b4657611b45611933565b5b611b518482856119e4565b509392505050565b600082601f830112611b6e57611b6d61192e565b5b8135611b7e848260208601611b17565b91505092915050565b60008060408385031215611b9e57611b9d611576565b5b6000611bac858286016117c3565b925050602083013567ffffffffffffffff811115611bcd57611bcc61157b565b5b611bd985828601611b59565b9150509250929050565b60008060408385031215611bfa57611bf9611576565b5b6000611c08858286016117c3565b9250506020611c19858286016117c3565b9150509250929050565b7f4e487b7100000000000000000000000000000000000000000000000000000000600052602260045260246000fd5b60006002820490506001821680611c6a57607f821691505b602082108103611c7d57611c7c611c23565b5b50919050565b6000606082019050611c986000830186611782565b611ca5602083018561186b565b611cb26040830184611782565b949350505050565b7f4e6f7420617574686f72697a6564000000000000000000000000000000000000600082015250565b6000611cf0600e83611646565b9150611cfb82611cba565b602082019050919050565b60006020820190508181036000830152611d1f81611ce3565b9050919050565b7f4e487b7100000000000000000000000000000000000000000000000000000000600052601160045260246000fd5b6000611d60826116ed565b91507fffffffffffffffffffffffffffffffffffffffffffffffffffffffffffffffff8203611d9257611d91611d26565b5b600182019050919050565b600081519050919050565b600082825260208201905092915050565b6000611dc482611d9d565b611dce8185611da8565b9350611dde818560208601611657565b611de781611681565b840191505092915050565b6000608082019050611e076000830187611782565b611e146020830186611782565b611e21604083018561186b565b8181036060830152611e338184611db9565b905095945050505050565b600081519050611e4d816115ac565b92915050565b600060208284031215611e6957611e68611576565b5b6000611e7784828501611e3e565b91505092915050565b60008190508160005260206000209050919050565b60006020601f8301049050919050565b600082821b905092915050565b600060088302611ee27fffffffffffffffffffffffffffffffffffffffffffffffffffffffffffffffff82611ea5565b611eec8683611ea5565b95508019841693508086168417925050509392505050565b6000819050919050565b6000611f29611f24611f1f846116ed565b611f04565b6116ed565b9050919050565b6000819050919050565b611f4383611f0e565b611f57611f4f82611f30565b848454611eb2565b825550505050565b600090565b611f6c611f5f565b611f77818484611f3a565b505050565b5b81811015611f9b57611f90600082611f64565b600181019050611f7d565b5050565b601f821115611fe057611fb181611e80565b611fba84611e95565b81016020851015611fc9578190505b611fdd611fd585611e95565b830182611f7c565b50505b505050565b600082821c905092915050565b600061200360001984600802611fe5565b1980831691505092915050565b600061201c8383611ff2565b9150826002028217905092915050565b6120358261163b565b67ffffffffffffffff81111561204e5761204d611938565b5b6120588254611c52565b612063828285611f9f565b600060209050601f8311600181146120965760008415612084578287015190505b61208e8582612010565b8655506120f6565b601f1984166120a486611e80565b60005b828110156120cc578489015182556001820191506020850194506020810190506120a7565b868310156120e957848901516120e5601f891682611ff2565b8355505b6001600288020188555050505b505050505050565b60006040820190506121136000830185611782565b612120602083018461186b565b939250505056fea26469706673582212205ff37923cbee993633195fe7d96536efac3c8808e3aad8111859e46a99cf7e6f64736f6c634300081c0033",
  "linkReferences": {},
  "deployedLinkReferences": {}
}