{
  "_format": "hh-sol-artifact-1",
  "contractName": "CrownNFTSimple",
  "sourceName": "contracts/CrownNFTSimple.sol",
  "abi": [
    {
      "inputs": [],
      "stateMutability": "nonpayable",
      "type": "constructor"
    },
    {
      "inputs": [],
      "name": "ECDSAInvalidSignature",
      "type": "error"
    },
    {
      "inputs": [
        {
          "internalType": "uint256",
          "name": "length",
          "type": "uint256"
        }
      ],
      "name": "ECDSAInvalidSignatureLength",
      "type": "error"
    },
    {
      "inputs": [
        {
          "internalType": "bytes32",
          "name": "s",
          "type": "bytes32"
        }
      ],
      "name": "ECDSAInvalidSignatureS",
      "type": "error"
    },
    {
      "inputs": [
        {
          "internalType": "address",
          "name": "sender",
          "type": "address"
        },
        {
          "internalType": "uint256",
          "name": "tokenId",
          "type": "uint256"
        },
        {
          "internalType": "address",
          "name": "owner",
          "type": "address"
        }
      ],
      "name": "ERC721IncorrectOwner",
      "type": "error"
    },
    {
      "inputs": [
        {
          "internalType": "address",
          "name": "operator",
          "type": "address"
        },
        {
          "internalType": "uint256",
          "name": "tokenId",
          "type": "uint256"
        }
      ],
      "name": "ERC721InsufficientApproval",
      "type": "error"
    },
    {
      "inputs": [
        {
          "internalType": "address",
          "name": "approver",
          "type": "address"
        }
      ],
      "name": "ERC721InvalidApprover",
      "type": "error"
    },
    {
      "inputs": [
        {
          "internalType": "address",
          "name": "operator",
          "type": "address"
        }
      ],
      "name": "ERC721InvalidOperator",
      "type": "error"
    },
    {
      "inputs": [
        {
          "internalType": "address",
          "name": "owner",
          "type": "address"
        }
      ],
      "name": "ERC721InvalidOwner",
      "type": "error"
    },
    {
      "inputs": [
        {
          "internalType": "address",
          "name": "receiver",
          "type": "address"
        }
      ],
      "name": "ERC721InvalidReceiver",
      "type": "error"
    },
    {
      "inputs": [
        {
          "internalType": "address",
          "name": "sender",
          "type": "address"
        }
      ],
      "name": "ERC721InvalidSender",
      "type": "error"
    },
    {
      "inputs": [
        {
          "internalType": "uint256",
          "name": "tokenId",
          "type": "uint256"
        }
      ],
      "name": "ERC721NonexistentToken",
      "type": "error"
    },
    {
      "inputs": [],
      "name": "InvalidShortString",
      "type": "error"
    },
    {
      "inputs": [
        {
          "internalType": "address",
          "name": "owner",
          "type": "address"
        }
      ],
      "name": "OwnableInvalidOwner",
      "type": "error"
    },
    {
      "inputs": [
        {
          "internalType": "address",
          "name": "account",
          "type": "address"
        }
      ],
      "name": "OwnableUnauthorizedAccount",
      "type": "error"
    },
    {
      "inputs": [
        {
          "internalType": "string",
          "name": "str",
          "type": "string"
        }
      ],
      "name": "StringTooLong",
      "type": "error"
    },
    {
      "anonymous": false,
      "inputs": [
        {
          "indexed": true,
          "internalType": "address",
          "name": "owner",
          "type": "address"
        },
        {
          "indexed": true,
          "internalType": "address",
          "name": "approved",
          "type": "address"
        },
        {
          "indexed": true,
          "internalType": "uint256",
          "name": "tokenId",
          "type": "uint256"
        }
      ],
      "name": "Approval",
      "type": "event"
    },
    {
      "anonymous": false,
      "inputs": [
        {
          "indexed": true,
          "internalType": "address",
          "name": "owner",
          "type": "address"
        },
        {
          "indexed": true,
          "internalType": "address",
          "name": "operator",
          "type": "address"
        },
        {
          "indexed": false,
          "internalType": "bool",
          "name": "approved",
          "type": "bool"
        }
      ],
      "name": "ApprovalForAll",
      "type": "event"
    },
    {
      "anonymous": false,
      "inputs": [
        {
          "indexed": false,
          "internalType": "uint256",
          "name": "_fromTokenId",
          "type": "uint256"
        },
        {
          "indexed": false,
          "internalType": "uint256",
          "name": "_toTokenId",
          "type": "uint256"
        }
      ],
      "name": "BatchMetadataUpdate",
      "type": "event"
    },
    {
      "anonymous": false,
      "inputs": [],
      "name": "EIP712DomainChanged",
      "type": "event"
    },
    {
      "anonymous": false,
      "inputs": [
        {
          "indexed": false,
          "internalType": "uint256",
          "name": "_tokenId",
          "type": "uint256"
        }
      ],
      "name": "MetadataUpdate",
      "type": "event"
    },
    {
      "anonymous": false,
      "inputs": [
        {
          "indexed": true,
          "internalType": "address",
          "name": "from",
          "type": "address"
        },
        {
          "indexed": true,
          "internalType": "address",
          "name": "to",
          "type": "address"
        },
        {
          "indexed": true,
          "internalType": "uint256",
          "name": "tokenId",
          "type": "uint256"
        },
        {
          "indexed": false,
          "internalType": "uint256",
          "name": "price",
          "type": "uint256"
        }
      ],
      "name": "OffChainTransfer",
      "type": "event"
    },
    {
      "anonymous": false,
      "inputs": [
        {
          "indexed": true,
          "internalType": "address",
          "name": "previousOwner",
          "type": "address"
        },
        {
          "indexed": true,
          "internalType": "address",
          "name": "newOwner",
          "type": "address"
        }
      ],
      "name": "OwnershipTransferred",
      "type": "event"
    },
    {
      "anonymous": false,
      "inputs": [
        {
          "indexed": true,
          "internalType": "address",
          "name": "from",
          "type": "address"
        },
        {
          "indexed": true,
          "internalType": "address",
          "name": "to",
          "type": "address"
        },
        {
          "indexed": true,
          "internalType": "uint256",
          "name": "tokenId",
          "type": "uint256"
        }
      ],
      "name": "Transfer",
      "type": "event"
    },
    {
      "inputs": [
        {
          "internalType": "address",
          "name": "to",
          "type": "address"
        },
        {
          "internalType": "uint256",
          "name": "tokenId",
          "type": "uint256"
        }
      ],
      "name": "approve",
      "outputs": [],
      "stateMutability": "nonpayable",
      "type": "function"
    },
    {
      "inputs": [],
      "name": "authorizedSigner",
      "outputs": [
        {
          "internalType": "address",
          "name": "",
          "type": "address"
        }
      ],
      "stateMutability": "view",
      "type": "function"
    },
    {
      "inputs": [
        {
          "internalType": "address",
          "name": "owner",
          "type": "address"
        }
      ],
      "name": "balanceOf",
      "outputs": [
        {
          "internalType": "uint256",
          "name": "",
          "type": "uint256"
        }
      ],
      "stateMutability": "view",
      "type": "function"
    },
    {
      "inputs": [],
      "name": "eip712Domain",
      "outputs": [
        {
          "internalType": "bytes1",
          "name": "fields",
          "type": "bytes1"
        },
        {
          "internalType": "string",
          "name": "name",
          "type": "string"
        },
        {
          "internalType": "string",
          "name": "version",
          "type": "string"
        },
        {
          "internalType": "uint256",
          "name": "chainId",
          "type": "uint256"
        },
        {
          "internalType": "address",
          "name": "verifyingContract",
          "type": "address"
        },
        {
          "internalType": "bytes32",
          "name": "salt",
          "type": "bytes32"
        },
        {
          "internalType": "uint256[]",
          "name": "extensions",
          "type": "uint256[]"
        }
      ],
      "stateMutability": "view",
      "type": "function"
    },
    {
      "inputs": [
        {
          "internalType": "uint256",
          "name": "tokenId",
          "type": "uint256"
        }
      ],
      "name": "getApproved",
      "outputs": [
        {
          "internalType": "address",
          "name": "",
          "type": "address"
        }
      ],
      "stateMutability": "view",
      "type": "function"
    },
    {
      "inputs": [],
      "name": "getDomainSeparator",
      "outputs": [
        {
          "internalType": "bytes32",
          "name": "",
          "type": "bytes32"
        }
      ],
      "stateMutability": "view",
      "type": "function"
    },
    {
      "inputs": [
        {
          "internalType": "address",
          "name": "from",
          "type": "address"
        },
        {
          "internalType": "address",
          "name": "to",
          "type": "address"
        },
        {
          "internalType": "uint256",
          "name": "tokenId",
          "type": "uint256"
        },
        {
          "internalType": "uint256",
          "name": "price",
          "type": "uint256"
        },
        {
          "internalType": "uint256",
          "name": "deadline",
          "type": "uint256"
        },
        {
          "internalType": "uint256",
          "name": "nonce",
          "type": "uint256"
        }
      ],
      "name": "getTransferHash",
      "outputs": [
        {
          "internalType": "bytes32",
          "name": "",
          "type": "bytes32"
        }
      ],
      "stateMutability": "view",
      "type": "function"
    },
    {
      "inputs": [
        {
          "internalType": "address",
          "name": "owner",
          "type": "address"
        },
        {
          "internalType": "address",
          "name": "operator",
          "type": "address"
        }
      ],
      "name": "isApprovedForAll",
      "outputs": [
        {
          "internalType": "bool",
          "name": "",
          "type": "bool"
        }
      ],
      "stateMutability": "view",
      "type": "function"
    },
    {
      "inputs": [
        {
          "internalType": "address",
          "name": "to",
          "type": "address"
        },
        {
          "internalType": "string",
          "name": "uri",
          "type": "string"
        }
      ],
      "name": "mint",
      "outputs": [
        {
          "internalType": "uint256",
          "name": "",
          "type": "uint256"
        }
      ],
      "stateMutability": "nonpayable",
      "type": "function"
    },
    {
      "inputs": [
        {
          "internalType": "address",
          "name": "to",
          "type": "address"
        },
        {
          "internalType": "string[]",
          "name": "uris",
          "type": "string[]"
        }
      ],
      "name": "mintBatch",
      "outputs": [
        {
          "internalType": "uint256[]",
          "name": "",
          "type": "uint256[]"
        }
      ],
      "stateMutability": "nonpayable",
      "type": "function"
    },
    {
      "inputs": [],
      "name": "name",
      "outputs": [
        {
          "internalType": "string",
          "name": "",
          "type": "string"
        }
      ],
      "stateMutability": "view",
      "type": "function"
    },
    {
      "inputs": [],
      "name": "nextTokenId",
      "outputs": [
        {
          "internalType": "uint256",
          "name": "",
          "type": "uint256"
        }
      ],
      "stateMutability": "view",
      "type": "function"
    },
    {
      "inputs": [
        {
          "internalType": "address",
          "name": "",
          "type": "address"
        }
      ],
      "name": "nonces",
      "outputs": [
        {
          "internalType": "uint256",
          "name": "",
          "type": "uint256"
        }
      ],
      "stateMutability": "view",
      "type": "function"
    },
    {
      "inputs": [],
      "name": "owner",
      "outputs": [
        {
          "internalType": "address",
          "name": "",
          "type": "address"
        }
      ],
      "stateMutability": "view",
      "type": "function"
    },
    {
      "inputs": [
        {
          "internalType": "uint256",
          "name": "tokenId",
          "type": "uint256"
        }
      ],
      "name": "ownerOf",
      "outputs": [
        {
          "internalType": "address",
          "name": "",
          "type": "address"
        }
      ],
      "stateMutability": "view",
      "type": "function"
    },
    {
      "inputs": [],
      "name": "renounceOwnership",
      "outputs": [],
      "stateMutability": "nonpayable",
      "type": "function"
    },
    {
      "inputs": [
        {
          "internalType": "address",
          "name": "from",
          "type": "address"
        },
        {
          "internalType": "address",
          "name": "to",
          "type": "address"
        },
        {
          "internalType": "uint256",
          "name": "tokenId",
          "type": "uint256"
        }
      ],
      "name": "safeTransferFrom",
      "outputs": [],
      "stateMutability": "nonpayable",
      "type": "function"
    },
    {
      "inputs": [
        {
          "internalType": "address",
          "name": "from",
          "type": "address"
        },
        {
          "internalType": "address",
          "name": "to",
          "type": "address"
        },
        {
          "internalType": "uint256",
          "name": "tokenId",
          "type": "uint256"
        },
        {
          "internalType": "bytes",
          "name": "data",
          "type": "bytes"
        }
      ],
      "name": "safeTransferFrom",
      "outputs": [],
      "stateMutability": "nonpayable",
      "type": "function"
    },
    {
      "inputs": [
        {
          "internalType": "address",
          "name": "operator",
          "type": "address"
        },
        {
          "internalType": "bool",
          "name": "approved",
          "type": "bool"
        }
      ],
      "name": "setApprovalForAll",
      "outputs": [],
      "stateMutability": "nonpayable",
      "type": "function"
    },
    {
      "inputs": [
        {
          "internalType": "address",
          "name": "_signer",
          "type": "address"
        }
      ],
      "name": "setAuthorizedSigner",
      "outputs": [],
      "stateMutability": "nonpayable",
      "type": "function"
    },
    {
      "inputs": [
        {
          "internalType": "bytes4",
          "name": "interfaceId",
          "type": "bytes4"
        }
      ],
      "name": "supportsInterface",
      "outputs": [
        {
          "internalType": "bool",
          "name": "",
          "type": "bool"
        }
      ],
      "stateMutability": "view",
      "type": "function"
    },
    {
      "inputs": [],
      "name": "symbol",
      "outputs": [
        {
          "internalType": "string",
          "name": "",
          "type": "string"
        }
      ],
      "stateMutability": "view",
      "type": "function"
    },
    {
      "inputs": [
        {
          "internalType": "uint256",
          "name": "tokenId",
          "type": "uint256"
        }
      ],
      "name": "tokenURI",
      "outputs": [
        {
          "internalType": "string",
          "name": "",
          "type": "string"
        }
      ],
      "stateMutability": "view",
      "type": "function"
    },
    {
      "inputs": [],
      "name": "totalSupply",
      "outputs": [
        {
          "internalType": "uint256",
          "name": "",
          "type": "uint256"
        }
      ],
      "stateMutability": "view",
      "type": "function"
    },
    {
      "inputs": [
        {
          "internalType": "address",
          "name": "from",
          "type": "address"
        },
        {
          "internalType": "address",
          "name": "to",
          "type": "address"
        },
        {
          "internalType": "uint256",
          "name": "tokenId",
          "type": "uint256"
        }
      ],
      "name": "transferFrom",
      "outputs": [],
      "stateMutability": "nonpayable",
      "type": "function"
    },
    {
      "inputs": [
        {
          "internalType": "address",
          "name": "newOwner",
          "type": "address"
        }
      ],
      "name": "transferOwnership",
      "outputs": [],
      "stateMutability": "nonpayable",
      "type": "function"
    },
    {
      "inputs": [
        {
          "internalType": "address",
          "name": "from",
          "type": "address"
        },
        {
          "internalType": "address",
          "name": "to",
          "type": "address"
        },
        {
          "internalType": "uint256",
          "name": "tokenId",
          "type": "uint256"
        },
        {
          "internalType": "uint256",
          "name": "price",
          "type": "uint256"
        },
        {
          "internalType": "uint256",
          "name": "deadline",
          "type": "uint256"
        },
        {
          "internalType": "uint256",
          "name": "nonce",
          "type": "uint256"
        },
        {
          "internalType": "bytes",
          "name": "signature",
          "type": "bytes"
        }
      ],
      "name": "transferWithSignature",
      "outputs": [],
      "stateMutability": "payable",
      "type": "function"
    }
  ],
  "bytecode": "0x61016060405234801561001157600080fd5b506040518060400160405280600881526020017f43726f776e4e46540000000000000000000000000000000000000000000000008152506040518060400160405280600181526020017f3100000000000000000000000000000000000000000000000000000000000000815250336040518060400160405280600981526020017f43726f776e204e465400000000000000000000000000000000000000000000008152506040518060400160405280600581526020017f43524f574e00000000000000000000000000000000000000000000000000000081525081600090816100fa91906106ba565b50806001908161010a91906106ba565b505050600073ffffffffffffffffffffffffffffffffffffffff168173ffffffffffffffffffffffffffffffffffffffff160361017f5760006040517f1e4fbdf700000000000000000000000000000000000000000000000000000000815260040161017691906107cd565b60405180910390fd5b61018e8161028760201b60201c565b506101a360088361034d60201b90919060201c565b61012081815250506101bf60098261034d60201b90919060201c565b6101408181525050818051906020012060e08181525050808051906020012061010081815250504660a081815250506101fc61039d60201b60201c565b608081815250503073ffffffffffffffffffffffffffffffffffffffff1660c08173ffffffffffffffffffffffffffffffffffffffff168152505050506001600a8190555033600c60006101000a81548173ffffffffffffffffffffffffffffffffffffffff021916908373ffffffffffffffffffffffffffffffffffffffff1602179055506109a1565b6000600760009054906101000a900473ffffffffffffffffffffffffffffffffffffffff16905081600760006101000a81548173ffffffffffffffffffffffffffffffffffffffff021916908373ffffffffffffffffffffffffffffffffffffffff1602179055508173ffffffffffffffffffffffffffffffffffffffff168173ffffffffffffffffffffffffffffffffffffffff167f8be0079c531659141344cd1fd0a4f28419497f9722a3daafe3b4186f6b6457e060405160405180910390a35050565b600060208351101561036f57610368836103f860201b60201c565b9050610397565b8261037f8361046060201b60201c565b600001908161038e91906106ba565b5060ff60001b90505b92915050565b60007f8b73c3c69bb8fe3d512ecc4cf759cc79239f7b179b0ffacaa9a75d522b39400f60e0516101005146306040516020016103dd959493929190610810565b60405160208183030381529060405280519060200120905090565b600080829050601f8151111561044557826040517f305a27a900000000000000000000000000000000000000000000000000000000815260040161043c91906108e8565b60405180910390fd5b8051816104519061093a565b60001c1760001b915050919050565b6000819050919050565b600081519050919050565b7f4e487b7100000000000000000000000000000000000000000000000000000000600052604160045260246000fd5b7f4e487b7100000000000000000000000000000000000000000000000000000000600052602260045260246000fd5b600060028204905060018216806104eb57607f821691505b6020821081036104fe576104fd6104a4565b5b50919050565b60008190508160005260206000209050919050565b60006020601f8301049050919050565b600082821b905092915050565b6000600883026105667fffffffffffffffffffffffffffffffffffffffffffffffffffffffffffffffff82610529565b6105708683610529565b95508019841693508086168417925050509392505050565b6000819050919050565b6000819050919050565b60006105b76105b26105ad84610588565b610592565b610588565b9050919050565b6000819050919050565b6105d18361059c565b6105e56105dd826105be565b848454610536565b825550505050565b600090565b6105fa6105ed565b6106058184846105c8565b505050565b5b818110156106295761061e6000826105f2565b60018101905061060b565b5050565b601f82111561066e5761063f81610504565b61064884610519565b81016020851015610657578190505b61066b61066385610519565b83018261060a565b50505b505050565b600082821c905092915050565b600061069160001984600802610673565b1980831691505092915050565b60006106aa8383610680565b9150826002028217905092915050565b6106c38261046a565b67ffffffffffffffff8111156106dc576106db610475565b5b6106e682546104d3565b6106f182828561062d565b600060209050601f8311600181146107245760008415610712578287015190505b61071c858261069e565b865550610784565b601f19841661073286610504565b60005b8281101561075a57848901518255600182019150602085019450602081019050610735565b868310156107775784890151610773601f891682610680565b8355505b6001600288020188555050505b505050505050565b600073ffffffffffffffffffffffffffffffffffffffff82169050919050565b60006107b78261078c565b9050919050565b6107c7816107ac565b82525050565b60006020820190506107e260008301846107be565b92915050565b6000819050919050565b6107fb816107e8565b82525050565b61080a81610588565b82525050565b600060a08201905061082560008301886107f2565b61083260208301876107f2565b61083f60408301866107f2565b61084c6060830185610801565b61085960808301846107be565b9695505050505050565b600082825260208201905092915050565b60005b83811015610892578082015181840152602081019050610877565b60008484015250505050565b6000601f19601f8301169050919050565b60006108ba8261046a565b6108c48185610863565b93506108d4818560208601610874565b6108dd8161089e565b840191505092915050565b6000602082019050818103600083015261090281846108af565b905092915050565b600081519050919050565b6000819050602082019050919050565b600061093182516107e8565b80915050919050565b60006109458261090a565b8261094f84610915565b905061095a81610925565b9250602082101561099a576109957fffffffffffffffffffffffffffffffffffffffffffffffffffffffffffffffff83602003600802610529565b831692505b5050919050565b60805160a05160c05160e0516101005161012051610140516140376109fb6000396000611719015260006116de015260006123e5015260006123c401526000611c1601526000611c6c01526000611c9501526140376000f3fe60806040526004361061019c5760003560e01c80638da5cb5b116100ec578063d0def5211161008a578063ed0e31de11610064578063ed0e31de14610606578063ed24911d14610643578063f0bfa4161461066e578063f2fde38b1461068a5761019c565b8063d0def52114610563578063d279b0ca146105a0578063e985e9c5146105c95761019c565b8063b88d4fde116100c6578063b88d4fde14610495578063c771909c146104be578063c87b56dd146104e9578063c89e43e8146105265761019c565b80638da5cb5b1461041657806395d89b4114610441578063a22cb4651461046c5761019c565b806342842e0e11610159578063715018a611610133578063715018a61461036657806375794a3c1461037d5780637ecebe00146103a857806384b0196e146103e55761019c565b806342842e0e146102c35780636352211e146102ec57806370a08231146103295761019c565b806301ffc9a7146101a157806306fdde03146101de578063081812fc14610209578063095ea7b31461024657806318160ddd1461026f57806323b872dd1461029a575b600080fd5b3480156101ad57600080fd5b506101c860048036038101906101c39190612c5e565b6106b3565b6040516101d59190612ca6565b60405180910390f35b3480156101ea57600080fd5b506101f36106c5565b6040516102009190612d51565b60405180910390f35b34801561021557600080fd5b50610230600480360381019061022b9190612da9565b610757565b60405161023d9190612e17565b60405180910390f35b34801561025257600080fd5b5061026d60048036038101906102689190612e5e565b610773565b005b34801561027b57600080fd5b50610284610789565b6040516102919190612ead565b60405180910390f35b3480156102a657600080fd5b506102c160048036038101906102bc9190612ec8565b61079f565b005b3480156102cf57600080fd5b506102ea60048036038101906102e59190612ec8565b6108a1565b005b3480156102f857600080fd5b50610313600480360381019061030e9190612da9565b6108c1565b6040516103209190612e17565b60405180910390f35b34801561033557600080fd5b50610350600480360381019061034b9190612f1b565b6108d3565b60405161035d9190612ead565b60405180910390f35b34801561037257600080fd5b5061037b61098d565b005b34801561038957600080fd5b506103926109a1565b60405161039f9190612ead565b60405180910390f35b3480156103b457600080fd5b506103cf60048036038101906103ca9190612f1b565b6109ab565b6040516103dc9190612ead565b60405180910390f35b3480156103f157600080fd5b506103fa6109c3565b60405161040d979695949392919061305a565b60405180910390f35b34801561042257600080fd5b5061042b610a6d565b6040516104389190612e17565b60405180910390f35b34801561044d57600080fd5b50610456610a97565b6040516104639190612d51565b60405180910390f35b34801561047857600080fd5b50610493600480360381019061048e919061310a565b610b29565b005b3480156104a157600080fd5b506104bc60048036038101906104b7919061327f565b610b3f565b005b3480156104ca57600080fd5b506104d3610b64565b6040516104e09190612e17565b60405180910390f35b3480156104f557600080fd5b50610510600480360381019061050b9190612da9565b610b8a565b60405161051d9190612d51565b60405180910390f35b34801561053257600080fd5b5061054d60048036038101906105489190613302565b610b9c565b60405161055a919061338f565b60405180910390f35b34801561056f57600080fd5b5061058a6004803603810190610585919061344b565b610c0a565b6040516105979190612ead565b60405180910390f35b3480156105ac57600080fd5b506105c760048036038101906105c29190612f1b565b610c4d565b005b3480156105d557600080fd5b506105f060048036038101906105eb91906134a7565b610c99565b6040516105fd9190612ca6565b60405180910390f35b34801561061257600080fd5b5061062d600480360381019061062891906135cd565b610d2d565b60405161063a9190613629565b60405180910390f35b34801561064f57600080fd5b50610658610e13565b604051610665919061338f565b60405180910390f35b6106886004803603810190610683919061364b565b610e22565b005b34801561069657600080fd5b506106b160048036038101906106ac9190612f1b565b6111a8565b005b60006106be8261122e565b9050919050565b6060600080546106d490613738565b80601f016020809104026020016040519081016040528092919081815260200182805461070090613738565b801561074d5780601f106107225761010080835404028352916020019161074d565b820191906000526020600020905b81548152906001019060200180831161073057829003601f168201915b5050505050905090565b60006107628261128f565b5061076c82611317565b9050919050565b6107858282610780611354565b61135c565b5050565b60006001600a5461079a9190613798565b905090565b600073ffffffffffffffffffffffffffffffffffffffff168273ffffffffffffffffffffffffffffffffffffffff16036108115760006040517f64a0ae920000000000000000000000000000000000000000000000000000000081526004016108089190612e17565b60405180910390fd5b60006108258383610820611354565b61136e565b90508373ffffffffffffffffffffffffffffffffffffffff168173ffffffffffffffffffffffffffffffffffffffff161461089b578382826040517f64283d7b000000000000000000000000000000000000000000000000000000008152600401610892939291906137cc565b60405180910390fd5b50505050565b6108bc83838360405180602001604052806000815250610b3f565b505050565b60006108cc8261128f565b9050919050565b60008073ffffffffffffffffffffffffffffffffffffffff168273ffffffffffffffffffffffffffffffffffffffff16036109465760006040517f89c62b6400000000000000000000000000000000000000000000000000000000815260040161093d9190612e17565b60405180910390fd5b600360008373ffffffffffffffffffffffffffffffffffffffff1673ffffffffffffffffffffffffffffffffffffffff168152602001908152602001600020549050919050565b610995611588565b61099f600061160f565b565b6000600a54905090565b600b6020528060005260406000206000915090505481565b6000606080600080600060606109d76116d5565b6109df611710565b46306000801b600067ffffffffffffffff811115610a00576109ff613154565b5b604051908082528060200260200182016040528015610a2e5781602001602082028036833780820191505090505b507f0f00000000000000000000000000000000000000000000000000000000000000959493929190965096509650965096509650965090919293949596565b6000600760009054906101000a900473ffffffffffffffffffffffffffffffffffffffff16905090565b606060018054610aa690613738565b80601f0160208091040260200160405190810160405280929190818152602001828054610ad290613738565b8015610b1f5780601f10610af457610100808354040283529160200191610b1f565b820191906000526020600020905b815481529060010190602001808311610b0257829003601f168201915b5050505050905090565b610b3b610b34611354565b838361174b565b5050565b610b4a84848461079f565b610b5e610b55611354565b858585856118ba565b50505050565b600c60009054906101000a900473ffffffffffffffffffffffffffffffffffffffff1681565b6060610b9582611a6b565b9050919050565b6000807f85307254b14fb6d5805a16dc88aac6883d41e6b0b34900b567a02d0847177b5d888888888888604051602001610bdc9796959493929190613803565b604051602081830303815290604052805190602001209050610bfd81611b7e565b9150509695505050505050565b6000610c14611588565b6000600a6000815480929190610c2990613872565b919050559050610c398482611b98565b610c438184611bb6565b8091505092915050565b610c55611588565b80600c60006101000a81548173ffffffffffffffffffffffffffffffffffffffff021916908373ffffffffffffffffffffffffffffffffffffffff16021790555050565b6000600560008473ffffffffffffffffffffffffffffffffffffffff1673ffffffffffffffffffffffffffffffffffffffff16815260200190815260200160002060008373ffffffffffffffffffffffffffffffffffffffff1673ffffffffffffffffffffffffffffffffffffffff16815260200190815260200160002060009054906101000a900460ff16905092915050565b6060610d37611588565b6000825167ffffffffffffffff811115610d5457610d53613154565b5b604051908082528060200260200182016040528015610d825781602001602082028036833780820191505090505b50905060005b8351811015610e08576000600a6000815480929190610da690613872565b919050559050610db68682611b98565b610dda81868481518110610dcd57610dcc6138ba565b5b6020026020010151611bb6565b80838381518110610dee57610ded6138ba565b5b602002602001018181525050508080600101915050610d88565b508091505092915050565b6000610e1d611c12565b905090565b82421115610e65576040517f08c379a0000000000000000000000000000000000000000000000000000000008152600401610e5c90613935565b60405180910390fd5b600b60008873ffffffffffffffffffffffffffffffffffffffff1673ffffffffffffffffffffffffffffffffffffffff168152602001908152602001600020548214610ee6576040517f08c379a0000000000000000000000000000000000000000000000000000000008152600401610edd906139a1565b60405180910390fd5b8673ffffffffffffffffffffffffffffffffffffffff16610f06866108c1565b73ffffffffffffffffffffffffffffffffffffffff1614610f5c576040517f08c379a0000000000000000000000000000000000000000000000000000000008152600401610f5390613a0d565b60405180910390fd5b600073ffffffffffffffffffffffffffffffffffffffff168673ffffffffffffffffffffffffffffffffffffffff1603610fcb576040517f08c379a0000000000000000000000000000000000000000000000000000000008152600401610fc290613a79565b60405180910390fd5b60007f85307254b14fb6d5805a16dc88aac6883d41e6b0b34900b567a02d0847177b5d88888888888860405160200161100a9796959493929190613803565b604051602081830303815290604052805190602001209050600061102d82611b7e565b905060006110448483611cc990919063ffffffff16565b9050600c60009054906101000a900473ffffffffffffffffffffffffffffffffffffffff1673ffffffffffffffffffffffffffffffffffffffff168173ffffffffffffffffffffffffffffffffffffffff16146110d6576040517f08c379a00000000000000000000000000000000000000000000000000000000081526004016110cd90613ae5565b60405180910390fd5b600b60008b73ffffffffffffffffffffffffffffffffffffffff1673ffffffffffffffffffffffffffffffffffffffff168152602001908152602001600020600081548092919061112690613872565b91905055506111368a8a8a611cf5565b878973ffffffffffffffffffffffffffffffffffffffff168b73ffffffffffffffffffffffffffffffffffffffff167f17fb2a6c3884da9668b4691b762edec5dae2863c529bda8e1ab8fa55167792268a6040516111949190612ead565b60405180910390a450505050505050505050565b6111b0611588565b600073ffffffffffffffffffffffffffffffffffffffff168173ffffffffffffffffffffffffffffffffffffffff16036112225760006040517f1e4fbdf70000000000000000000000000000000000000000000000000000000081526004016112199190612e17565b60405180910390fd5b61122b8161160f565b50565b6000634906490660e01b7bffffffffffffffffffffffffffffffffffffffffffffffffffffffff1916827bffffffffffffffffffffffffffffffffffffffffffffffffffffffff19161480611288575061128782611e62565b5b9050919050565b60008061129b83611f44565b9050600073ffffffffffffffffffffffffffffffffffffffff168173ffffffffffffffffffffffffffffffffffffffff160361130e57826040517f7e2732890000000000000000000000000000000000000000000000000000000081526004016113059190612ead565b60405180910390fd5b80915050919050565b60006004600083815260200190815260200160002060009054906101000a900473ffffffffffffffffffffffffffffffffffffffff169050919050565b600033905090565b6113698383836001611f81565b505050565b60008061137a84611f44565b9050600073ffffffffffffffffffffffffffffffffffffffff168373ffffffffffffffffffffffffffffffffffffffff16146113bc576113bb818486612146565b5b600073ffffffffffffffffffffffffffffffffffffffff168173ffffffffffffffffffffffffffffffffffffffff161461144d576113fe600085600080611f81565b6001600360008373ffffffffffffffffffffffffffffffffffffffff1673ffffffffffffffffffffffffffffffffffffffff168152602001908152602001600020600082825403925050819055505b600073ffffffffffffffffffffffffffffffffffffffff168573ffffffffffffffffffffffffffffffffffffffff16146114d0576001600360008773ffffffffffffffffffffffffffffffffffffffff1673ffffffffffffffffffffffffffffffffffffffff168152602001908152602001600020600082825401925050819055505b846002600086815260200190815260200160002060006101000a81548173ffffffffffffffffffffffffffffffffffffffff021916908373ffffffffffffffffffffffffffffffffffffffff160217905550838573ffffffffffffffffffffffffffffffffffffffff168273ffffffffffffffffffffffffffffffffffffffff167fddf252ad1be2c89b69c2b068fc378daa952ba7f163c4a11628f55a4df523b3ef60405160405180910390a4809150509392505050565b611590611354565b73ffffffffffffffffffffffffffffffffffffffff166115ae610a6d565b73ffffffffffffffffffffffffffffffffffffffff161461160d576115d1611354565b6040517f118cdaa70000000000000000000000000000000000000000000000000000000081526004016116049190612e17565b60405180910390fd5b565b6000600760009054906101000a900473ffffffffffffffffffffffffffffffffffffffff16905081600760006101000a81548173ffffffffffffffffffffffffffffffffffffffff021916908373ffffffffffffffffffffffffffffffffffffffff1602179055508173ffffffffffffffffffffffffffffffffffffffff168173ffffffffffffffffffffffffffffffffffffffff167f8be0079c531659141344cd1fd0a4f28419497f9722a3daafe3b4186f6b6457e060405160405180910390a35050565b606061170b60087f000000000000000000000000000000000000000000000000000000000000000061220a90919063ffffffff16565b905090565b606061174660097f000000000000000000000000000000000000000000000000000000000000000061220a90919063ffffffff16565b905090565b600073ffffffffffffffffffffffffffffffffffffffff168273ffffffffffffffffffffffffffffffffffffffff16036117bc57816040517f5b08ba180000000000000000000000000000000000000000000000000000000081526004016117b39190612e17565b60405180910390fd5b80600560008573ffffffffffffffffffffffffffffffffffffffff1673ffffffffffffffffffffffffffffffffffffffff16815260200190815260200160002060008473ffffffffffffffffffffffffffffffffffffffff1673ffffffffffffffffffffffffffffffffffffffff16815260200190815260200160002060006101000a81548160ff0219169083151502179055508173ffffffffffffffffffffffffffffffffffffffff168373ffffffffffffffffffffffffffffffffffffffff167f17307eab39ab6107e8899845ad3d59bd9653f200f220920489ca2b5937696c31836040516118ad9190612ca6565b60405180910390a3505050565b60008373ffffffffffffffffffffffffffffffffffffffff163b1115611a64578273ffffffffffffffffffffffffffffffffffffffff1663150b7a02868685856040518563ffffffff1660e01b81526004016119199493929190613b5a565b6020604051808303816000875af192505050801561195557506040513d601f19601f820116820180604052508101906119529190613bbb565b60015b6119d9573d8060008114611985576040519150601f19603f3d011682016040523d82523d6000602084013e61198a565b606091505b5060008151036119d157836040517f64a0ae920000000000000000000000000000000000000000000000000000000081526004016119c89190612e17565b60405180910390fd5b805160208201fd5b63150b7a0260e01b7bffffffffffffffffffffffffffffffffffffffffffffffffffffffff1916817bffffffffffffffffffffffffffffffffffffffffffffffffffffffff191614611a6257836040517f64a0ae92000000000000000000000000000000000000000000000000000000008152600401611a599190612e17565b60405180910390fd5b505b5050505050565b6060611a768261128f565b506000600660008481526020019081526020016000208054611a9790613738565b80601f0160208091040260200160405190810160405280929190818152602001828054611ac390613738565b8015611b105780601f10611ae557610100808354040283529160200191611b10565b820191906000526020600020905b815481529060010190602001808311611af357829003601f168201915b505050505090506000611b216122ba565b90506000815103611b36578192505050611b79565b600082511115611b6b578082604051602001611b53929190613c24565b60405160208183030381529060405292505050611b79565b611b74846122d1565b925050505b919050565b6000611b91611b8b611c12565b8361233a565b9050919050565b611bb282826040518060200160405280600081525061237b565b5050565b80600660008481526020019081526020016000209081611bd69190613df4565b507ff8e1a15aba9398e019f0b49df1a4fde98ee17ae345cb5f6b5e2c27f5033e8ce782604051611c069190612ead565b60405180910390a15050565b60007f000000000000000000000000000000000000000000000000000000000000000073ffffffffffffffffffffffffffffffffffffffff163073ffffffffffffffffffffffffffffffffffffffff16148015611c8e57507f000000000000000000000000000000000000000000000000000000000000000046145b15611cbb577f00000000000000000000000000000000000000000000000000000000000000009050611cc6565b611cc361239f565b90505b90565b600080600080611cd98686612435565b925092509250611ce98282612491565b82935050505092915050565b600073ffffffffffffffffffffffffffffffffffffffff168273ffffffffffffffffffffffffffffffffffffffff1603611d675760006040517f64a0ae92000000000000000000000000000000000000000000000000000000008152600401611d5e9190612e17565b60405180910390fd5b6000611d758383600061136e565b9050600073ffffffffffffffffffffffffffffffffffffffff168173ffffffffffffffffffffffffffffffffffffffff1603611de857816040517f7e273289000000000000000000000000000000000000000000000000000000008152600401611ddf9190612ead565b60405180910390fd5b8373ffffffffffffffffffffffffffffffffffffffff168173ffffffffffffffffffffffffffffffffffffffff1614611e5c578382826040517f64283d7b000000000000000000000000000000000000000000000000000000008152600401611e53939291906137cc565b60405180910390fd5b50505050565b60007f80ac58cd000000000000000000000000000000000000000000000000000000007bffffffffffffffffffffffffffffffffffffffffffffffffffffffff1916827bffffffffffffffffffffffffffffffffffffffffffffffffffffffff19161480611f2d57507f5b5e139f000000000000000000000000000000000000000000000000000000007bffffffffffffffffffffffffffffffffffffffffffffffffffffffff1916827bffffffffffffffffffffffffffffffffffffffffffffffffffffffff1916145b80611f3d5750611f3c826125f5565b5b9050919050565b60006002600083815260200190815260200160002060009054906101000a900473ffffffffffffffffffffffffffffffffffffffff169050919050565b8080611fba5750600073ffffffffffffffffffffffffffffffffffffffff168273ffffffffffffffffffffffffffffffffffffffff1614155b156120ee576000611fca8461128f565b9050600073ffffffffffffffffffffffffffffffffffffffff168373ffffffffffffffffffffffffffffffffffffffff161415801561203557508273ffffffffffffffffffffffffffffffffffffffff168173ffffffffffffffffffffffffffffffffffffffff1614155b801561204857506120468184610c99565b155b1561208a57826040517fa9fbf51f0000000000000000000000000000000000000000000000000000000081526004016120819190612e17565b60405180910390fd5b81156120ec57838573ffffffffffffffffffffffffffffffffffffffff168273ffffffffffffffffffffffffffffffffffffffff167f8c5be1e5ebec7d5bd14f71427d1e84f3dd0314c0f7b2291e5b200ac8c7c3b92560405160405180910390a45b505b836004600085815260200190815260200160002060006101000a81548173ffffffffffffffffffffffffffffffffffffffff021916908373ffffffffffffffffffffffffffffffffffffffff16021790555050505050565b61215183838361265f565b61220557600073ffffffffffffffffffffffffffffffffffffffff168373ffffffffffffffffffffffffffffffffffffffff16036121c657806040517f7e2732890000000000000000000000000000000000000000000000000000000081526004016121bd9190612ead565b60405180910390fd5b81816040517f177e802f0000000000000000000000000000000000000000000000000000000081526004016121fc929190613ec6565b60405180910390fd5b505050565b606060ff60001b83146122275761222083612720565b90506122b4565b81805461223390613738565b80601f016020809104026020016040519081016040528092919081815260200182805461225f90613738565b80156122ac5780601f10612281576101008083540402835291602001916122ac565b820191906000526020600020905b81548152906001019060200180831161228f57829003601f168201915b505050505090505b92915050565b606060405180602001604052806000815250905090565b60606122dc8261128f565b5060006122e76122ba565b905060008151116123075760405180602001604052806000815250612332565b8061231184612794565b604051602001612322929190613c24565b6040516020818303038152906040525b915050919050565b60006040517f190100000000000000000000000000000000000000000000000000000000000081528360028201528260228201526042812091505092915050565b6123858383612862565b61239a612390611354565b60008585856118ba565b505050565b60007f8b73c3c69bb8fe3d512ecc4cf759cc79239f7b179b0ffacaa9a75d522b39400f7f00000000000000000000000000000000000000000000000000000000000000007f0000000000000000000000000000000000000000000000000000000000000000463060405160200161241a959493929190613eef565b60405160208183030381529060405280519060200120905090565b6000806000604184510361247a5760008060006020870151925060408701519150606087015160001a905061246c8882858561295b565b95509550955050505061248a565b60006002855160001b9250925092505b9250925092565b600060038111156124a5576124a4613f42565b5b8260038111156124b8576124b7613f42565b5b03156125f157600160038111156124d2576124d1613f42565b5b8260038111156124e5576124e4613f42565b5b0361251c576040517ff645eedf00000000000000000000000000000000000000000000000000000000815260040160405180910390fd5b600260038111156125305761252f613f42565b5b82600381111561254357612542613f42565b5b03612588578060001c6040517ffce698f700000000000000000000000000000000000000000000000000000000815260040161257f9190612ead565b60405180910390fd5b60038081111561259b5761259a613f42565b5b8260038111156125ae576125ad613f42565b5b036125f057806040517fd78bce0c0000000000000000000000000000000000000000000000000000000081526004016125e7919061338f565b60405180910390fd5b5b5050565b60007f01ffc9a7000000000000000000000000000000000000000000000000000000007bffffffffffffffffffffffffffffffffffffffffffffffffffffffff1916827bffffffffffffffffffffffffffffffffffffffffffffffffffffffff1916149050919050565b60008073ffffffffffffffffffffffffffffffffffffffff168373ffffffffffffffffffffffffffffffffffffffff161415801561271757508273ffffffffffffffffffffffffffffffffffffffff168473ffffffffffffffffffffffffffffffffffffffff1614806126d857506126d78484610c99565b5b8061271657508273ffffffffffffffffffffffffffffffffffffffff166126fe83611317565b73ffffffffffffffffffffffffffffffffffffffff16145b5b90509392505050565b6060600061272d83612a4f565b90506000602067ffffffffffffffff81111561274c5761274b613154565b5b6040519080825280601f01601f19166020018201604052801561277e5781602001600182028036833780820191505090505b5090508181528360208201528092505050919050565b6060600060016127a384612a9f565b01905060008167ffffffffffffffff8111156127c2576127c1613154565b5b6040519080825280601f01601f1916602001820160405280156127f45781602001600182028036833780820191505090505b509050600082602083010190505b600115612857578080600190039150507f3031323334353637383961626364656600000000000000000000000000000000600a86061a8153600a858161284b5761284a613f71565b5b04945060008503612802575b819350505050919050565b600073ffffffffffffffffffffffffffffffffffffffff168273ffffffffffffffffffffffffffffffffffffffff16036128d45760006040517f64a0ae920000000000000000000000000000000000000000000000000000000081526004016128cb9190612e17565b60405180910390fd5b60006128e28383600061136e565b9050600073ffffffffffffffffffffffffffffffffffffffff168173ffffffffffffffffffffffffffffffffffffffff16146129565760006040517f73c6ac6e00000000000000000000000000000000000000000000000000000000815260040161294d9190612e17565b60405180910390fd5b505050565b60008060007f7fffffffffffffffffffffffffffffff5d576e7357a4501ddfe92f46681b20a08460001c111561299b576000600385925092509250612a45565b6000600188888888604051600081526020016040526040516129c09493929190613fbc565b6020604051602081039080840390855afa1580156129e2573d6000803e3d6000fd5b505050602060405103519050600073ffffffffffffffffffffffffffffffffffffffff168173ffffffffffffffffffffffffffffffffffffffff1603612a3657600060016000801b93509350935050612a45565b8060008060001b935093509350505b9450945094915050565b60008060ff8360001c169050601f811115612a96576040517fb3512b0c00000000000000000000000000000000000000000000000000000000815260040160405180910390fd5b80915050919050565b600080600090507a184f03e93ff9f4daa797ed6e38ed64bf6a1f0100000000000000008310612afd577a184f03e93ff9f4daa797ed6e38ed64bf6a1f0100000000000000008381612af357612af2613f71565b5b0492506040810190505b6d04ee2d6d415b85acef81000000008310612b3a576d04ee2d6d415b85acef81000000008381612b3057612b2f613f71565b5b0492506020810190505b662386f26fc100008310612b6957662386f26fc100008381612b5f57612b5e613f71565b5b0492506010810190505b6305f5e1008310612b92576305f5e1008381612b8857612b87613f71565b5b0492506008810190505b6127108310612bb7576127108381612bad57612bac613f71565b5b0492506004810190505b60648310612bda5760648381612bd057612bcf613f71565b5b0492506002810190505b600a8310612be9576001810190505b80915050919050565b6000604051905090565b600080fd5b600080fd5b60007fffffffff0000000000000000000000000000000000000000000000000000000082169050919050565b612c3b81612c06565b8114612c4657600080fd5b50565b600081359050612c5881612c32565b92915050565b600060208284031215612c7457612c73612bfc565b5b6000612c8284828501612c49565b91505092915050565b60008115159050919050565b612ca081612c8b565b82525050565b6000602082019050612cbb6000830184612c97565b92915050565b600081519050919050565b600082825260208201905092915050565b60005b83811015612cfb578082015181840152602081019050612ce0565b60008484015250505050565b6000601f19601f8301169050919050565b6000612d2382612cc1565b612d2d8185612ccc565b9350612d3d818560208601612cdd565b612d4681612d07565b840191505092915050565b60006020820190508181036000830152612d6b8184612d18565b905092915050565b6000819050919050565b612d8681612d73565b8114612d9157600080fd5b50565b600081359050612da381612d7d565b92915050565b600060208284031215612dbf57612dbe612bfc565b5b6000612dcd84828501612d94565b91505092915050565b600073ffffffffffffffffffffffffffffffffffffffff82169050919050565b6000612e0182612dd6565b9050919050565b612e1181612df6565b82525050565b6000602082019050612e2c6000830184612e08565b92915050565b612e3b81612df6565b8114612e4657600080fd5b50565b600081359050612e5881612e32565b92915050565b60008060408385031215612e7557612e74612bfc565b5b6000612e8385828601612e49565b9250506020612e9485828601612d94565b9150509250929050565b612ea781612d73565b82525050565b6000602082019050612ec26000830184612e9e565b92915050565b600080600060608486031215612ee157612ee0612bfc565b5b6000612eef86828701612e49565b9350506020612f0086828701612e49565b9250506040612f1186828701612d94565b9150509250925092565b600060208284031215612f3157612f30612bfc565b5b6000612f3f84828501612e49565b91505092915050565b60007fff0000000000000000000000000000000000000000000000000000000000000082169050919050565b612f7d81612f48565b82525050565b6000819050919050565b612f9681612f83565b82525050565b600081519050919050565b600082825260208201905092915050565b6000819050602082019050919050565b612fd181612d73565b82525050565b6000612fe38383612fc8565b60208301905092915050565b6000602082019050919050565b600061300782612f9c565b6130118185612fa7565b935061301c83612fb8565b8060005b8381101561304d5781516130348882612fd7565b975061303f83612fef565b925050600181019050613020565b5085935050505092915050565b600060e08201905061306f600083018a612f74565b81810360208301526130818189612d18565b905081810360408301526130958188612d18565b90506130a46060830187612e9e565b6130b16080830186612e08565b6130be60a0830185612f8d565b81810360c08301526130d08184612ffc565b905098975050505050505050565b6130e781612c8b565b81146130f257600080fd5b50565b600081359050613104816130de565b92915050565b6000806040838503121561312157613120612bfc565b5b600061312f85828601612e49565b9250506020613140858286016130f5565b9150509250929050565b600080fd5b600080fd5b7f4e487b7100000000000000000000000000000000000000000000000000000000600052604160045260246000fd5b61318c82612d07565b810181811067ffffffffffffffff821117156131ab576131aa613154565b5b80604052505050565b60006131be612bf2565b90506131ca8282613183565b919050565b600067ffffffffffffffff8211156131ea576131e9613154565b5b6131f382612d07565b9050602081019050919050565b82818337600083830152505050565b600061322261321d846131cf565b6131b4565b90508281526020810184848401111561323e5761323d61314f565b5b613249848285613200565b509392505050565b600082601f8301126132665761326561314a565b5b813561327684826020860161320f565b91505092915050565b6000806000806080858703121561329957613298612bfc565b5b60006132a787828801612e49565b94505060206132b887828801612e49565b93505060406132c987828801612d94565b925050606085013567ffffffffffffffff8111156132ea576132e9612c01565b5b6132f687828801613251565b91505092959194509250565b60008060008060008060c0878903121561331f5761331e612bfc565b5b600061332d89828a01612e49565b965050602061333e89828a01612e49565b955050604061334f89828a01612d94565b945050606061336089828a01612d94565b935050608061337189828a01612d94565b92505060a061338289828a01612d94565b9150509295509295509295565b60006020820190506133a46000830184612f8d565b92915050565b600067ffffffffffffffff8211156133c5576133c4613154565b5b6133ce82612d07565b9050602081019050919050565b60006133ee6133e9846133aa565b6131b4565b90508281526020810184848401111561340a5761340961314f565b5b613415848285613200565b509392505050565b600082601f8301126134325761343161314a565b5b81356134428482602086016133db565b91505092915050565b6000806040838503121561346257613461612bfc565b5b600061347085828601612e49565b925050602083013567ffffffffffffffff81111561349157613490612c01565b5b61349d8582860161341d565b9150509250929050565b600080604083850312156134be576134bd612bfc565b5b60006134cc85828601612e49565b92505060206134dd85828601612e49565b9150509250929050565b600067ffffffffffffffff82111561350257613501613154565b5b602082029050602081019050919050565b600080fd5b600061352b613526846134e7565b6131b4565b9050808382526020820190506020840283018581111561354e5761354d613513565b5b835b8181101561359557803567ffffffffffffffff8111156135735761357261314a565b5b808601613580898261341d565b85526020850194505050602081019050613550565b5050509392505050565b600082601f8301126135b4576135b361314a565b5b81356135c4848260208601613518565b91505092915050565b600080604083850312156135e4576135e3612bfc565b5b60006135f285828601612e49565b925050602083013567ffffffffffffffff81111561361357613612612c01565b5b61361f8582860161359f565b9150509250929050565b600060208201905081810360008301526136438184612ffc565b905092915050565b600080600080600080600060e0888a03121561366a57613669612bfc565b5b60006136788a828b01612e49565b97505060206136898a828b01612e49565b965050604061369a8a828b01612d94565b95505060606136ab8a828b01612d94565b94505060806136bc8a828b01612d94565b93505060a06136cd8a828b01612d94565b92505060c088013567ffffffffffffffff8111156136ee576136ed612c01565b5b6136fa8a828b01613251565b91505092959891949750929550565b7f4e487b7100000000000000000000000000000000000000000000000000000000600052602260045260246000fd5b6000600282049050600182168061375057607f821691505b60208210810361376357613762613709565b5b50919050565b7f4e487b7100000000000000000000000000000000000000000000000000000000600052601160045260246000fd5b60006137a382612d73565b91506137ae83612d73565b92508282039050818111156137c6576137c5613769565b5b92915050565b60006060820190506137e16000830186612e08565b6137ee6020830185612e9e565b6137fb6040830184612e08565b949350505050565b600060e082019050613818600083018a612f8d565b6138256020830189612e08565b6138326040830188612e08565b61383f6060830187612e9e565b61384c6080830186612e9e565b61385960a0830185612e9e565b61386660c0830184612e9e565b98975050505050505050565b600061387d82612d73565b91507fffffffffffffffffffffffffffffffffffffffffffffffffffffffffffffffff82036138af576138ae613769565b5b600182019050919050565b7f4e487b7100000000000000000000000000000000000000000000000000000000600052603260045260246000fd5b7f5369676e61747572652065787069726564000000000000000000000000000000600082015250565b600061391f601183612ccc565b915061392a826138e9565b602082019050919050565b6000602082019050818103600083015261394e81613912565b9050919050565b7f496e76616c6964206e6f6e636500000000000000000000000000000000000000600082015250565b600061398b600d83612ccc565b915061399682613955565b602082019050919050565b600060208201905081810360008301526139ba8161397e565b9050919050565b7f4e6f7420746f6b656e206f776e65720000000000000000000000000000000000600082015250565b60006139f7600f83612ccc565b9150613a02826139c1565b602082019050919050565b60006020820190508181036000830152613a26816139ea565b9050919050565b7f496e76616c696420726563697069656e74000000000000000000000000000000600082015250565b6000613a63601183612ccc565b9150613a6e82613a2d565b602082019050919050565b60006020820190508181036000830152613a9281613a56565b9050919050565b7f496e76616c6964207369676e6174757265000000000000000000000000000000600082015250565b6000613acf601183612ccc565b9150613ada82613a99565b602082019050919050565b60006020820190508181036000830152613afe81613ac2565b9050919050565b600081519050919050565b600082825260208201905092915050565b6000613b2c82613b05565b613b368185613b10565b9350613b46818560208601612cdd565b613b4f81612d07565b840191505092915050565b6000608082019050613b6f6000830187612e08565b613b7c6020830186612e08565b613b896040830185612e9e565b8181036060830152613b9b8184613b21565b905095945050505050565b600081519050613bb581612c32565b92915050565b600060208284031215613bd157613bd0612bfc565b5b6000613bdf84828501613ba6565b91505092915050565b600081905092915050565b6000613bfe82612cc1565b613c088185613be8565b9350613c18818560208601612cdd565b80840191505092915050565b6000613c308285613bf3565b9150613c3c8284613bf3565b91508190509392505050565b60008190508160005260206000209050919050565b60006020601f8301049050919050565b600082821b905092915050565b600060088302613caa7fffffffffffffffffffffffffffffffffffffffffffffffffffffffffffffffff82613c6d565b613cb48683613c6d565b95508019841693508086168417925050509392505050565b6000819050919050565b6000613cf1613cec613ce784612d73565b613ccc565b612d73565b9050919050565b6000819050919050565b613d0b83613cd6565b613d1f613d1782613cf8565b848454613c7a565b825550505050565b600090565b613d34613d27565b613d3f818484613d02565b505050565b5b81811015613d6357613d58600082613d2c565b600181019050613d45565b5050565b601f821115613da857613d7981613c48565b613d8284613c5d565b81016020851015613d91578190505b613da5613d9d85613c5d565b830182613d44565b50505b505050565b600082821c905092915050565b6000613dcb60001984600802613dad565b1980831691505092915050565b6000613de48383613dba565b9150826002028217905092915050565b613dfd82612cc1565b67ffffffffffffffff811115613e1657613e15613154565b5b613e208254613738565b613e2b828285613d67565b600060209050601f831160018114613e5e5760008415613e4c578287015190505b613e568582613dd8565b865550613ebe565b601f198416613e6c86613c48565b60005b82811015613e9457848901518255600182019150602085019450602081019050613e6f565b86831015613eb15784890151613ead601f891682613dba565b8355505b6001600288020188555050505b505050505050565b6000604082019050613edb6000830185612e08565b613ee86020830184612e9e565b9392505050565b600060a082019050613f046000830188612f8d565b613f116020830187612f8d565b613f1e6040830186612f8d565b613f2b6060830185612e9e565b613f386080830184612e08565b9695505050505050565b7f4e487b7100000000000000000000000000000000000000000000000000000000600052602160045260246000fd5b7f4e487b7100000000000000000000000000000000000000000000000000000000600052601260045260246000fd5b600060ff82169050919050565b613fb681613fa0565b82525050565b6000608082019050613fd16000830187612f8d565b613fde6020830186613fad565b613feb6040830185612f8d565b613ff86060830184612f8d565b9594505050505056fea264697066735822122043edf7133e9d665a9e469aa890b5d15362129d1ed565700750763aff9648701464736f6c634300081c0033",
  "linkReferences": {},
  "deployedLinkReferences": {}
}