{
  "_format": "hh-sol-artifact-1",
  "contractName": "CrownNFTSimple",
  "sourceName": "contracts/CrownNFTSimple.sol",
  "abi": [
    {
      "inputs": [],
      "stateMutability": "nonpayable",
      "type": "constructor"
    },
    {
      "inputs": [
        {
          "internalType": "address",
          "name": "sender",
          "type": "address"
        },
        {
          "internalType": "uint256",
          "name": "tokenId",
          "type": "uint256"
        },
        {
          "internalType": "address",
          "name": "owner",
          "type": "address"
        }
      ],
      "name": "ERC721IncorrectOwner",
      "type": "error"
    },
    {
      "inputs": [
        {
          "internalType": "address",
          "name": "operator",
          "type": "address"
        },
        {
          "internalType": "uint256",
          "name": "tokenId",
          "type": "uint256"
        }
      ],
      "name": "ERC721InsufficientApproval",
      "type": "error"
    },
    {
      "inputs": [
        {
          "internalType": "address",
          "name": "approver",
          "type": "address"
        }
      ],
      "name": "ERC721InvalidApprover",
      "type": "error"
    },
    {
      "inputs": [
        {
          "internalType": "address",
          "name": "operator",
          "type": "address"
        }
      ],
      "name": "ERC721InvalidOperator",
      "type": "error"
    },
    {
      "inputs": [
        {
          "internalType": "address",
          "name": "owner",
          "type": "address"
        }
      ],
      "name": "ERC721InvalidOwner",
      "type": "error"
    },
    {
      "inputs": [
        {
          "internalType": "address",
          "name": "receiver",
          "type": "address"
        }
      ],
      "name": "ERC721InvalidReceiver",
      "type": "error"
    },
    {
      "inputs": [
        {
          "internalType": "address",
          "name": "sender",
          "type": "address"
        }
      ],
      "name": "ERC721InvalidSender",
      "type": "error"
    },
    {
      "inputs": [
        {
          "internalType": "uint256",
          "name": "tokenId",
          "type": "uint256"
        }
      ],
      "name": "ERC721NonexistentToken",
      "type": "error"
    },
    {
      "inputs": [
        {
          "internalType": "address",
          "name": "owner",
          "type": "address"
        }
      ],
      "name": "OwnableInvalidOwner",
      "type": "error"
    },
    {
      "inputs": [
        {
          "internalType": "address",
          "name": "account",
          "type": "address"
        }
      ],
      "name": "OwnableUnauthorizedAccount",
      "type": "error"
    },
    {
      "anonymous": false,
      "inputs": [
        {
          "indexed": true,
          "internalType": "address",
          "name": "owner",
          "type": "address"
        },
        {
          "indexed": true,
          "internalType": "address",
          "name": "approved",
          "type": "address"
        },
        {
          "indexed": true,
          "internalType": "uint256",
          "name": "tokenId",
          "type": "uint256"
        }
      ],
      "name": "Approval",
      "type": "event"
    },
    {
      "anonymous": false,
      "inputs": [
        {
          "indexed": true,
          "internalType": "address",
          "name": "owner",
          "type": "address"
        },
        {
          "indexed": true,
          "internalType": "address",
          "name": "operator",
          "type": "address"
        },
        {
          "indexed": false,
          "internalType": "bool",
          "name": "approved",
          "type": "bool"
        }
      ],
      "name": "ApprovalForAll",
      "type": "event"
    },
    {
      "anonymous": false,
      "inputs": [
        {
          "indexed": false,
          "internalType": "uint256",
          "name": "_fromTokenId",
          "type": "uint256"
        },
        {
          "indexed": false,
          "internalType": "uint256",
          "name": "_toTokenId",
          "type": "uint256"
        }
      ],
      "name": "BatchMetadataUpdate",
      "type": "event"
    },
    {
      "anonymous": false,
      "inputs": [
        {
          "indexed": false,
          "internalType": "uint256",
          "name": "_tokenId",
          "type": "uint256"
        }
      ],
      "name": "MetadataUpdate",
      "type": "event"
    },
    {
      "anonymous": false,
      "inputs": [
        {
          "indexed": true,
          "internalType": "address",
          "name": "previousOwner",
          "type": "address"
        },
        {
          "indexed": true,
          "internalType": "address",
          "name": "newOwner",
          "type": "address"
        }
      ],
      "name": "OwnershipTransferred",
      "type": "event"
    },
    {
      "anonymous": false,
      "inputs": [
        {
          "indexed": true,
          "internalType": "address",
          "name": "from",
          "type": "address"
        },
        {
          "indexed": true,
          "internalType": "address",
          "name": "to",
          "type": "address"
        },
        {
          "indexed": true,
          "internalType": "uint256",
          "name": "tokenId",
          "type": "uint256"
        }
      ],
      "name": "Transfer",
      "type": "event"
    },
    {
      "inputs": [
        {
          "internalType": "address",
          "name": "to",
          "type": "address"
        },
        {
          "internalType": "uint256",
          "name": "tokenId",
          "type": "uint256"
        }
      ],
      "name": "approve",
      "outputs": [],
      "stateMutability": "nonpayable",
      "type": "function"
    },
    {
      "inputs": [
        {
          "internalType": "address",
          "name": "owner",
          "type": "address"
        }
      ],
      "name": "balanceOf",
      "outputs": [
        {
          "internalType": "uint256",
          "name": "",
          "type": "uint256"
        }
      ],
      "stateMutability": "view",
      "type": "function"
    },
    {
      "inputs": [
        {
          "internalType": "uint256",
          "name": "tokenId",
          "type": "uint256"
        }
      ],
      "name": "getApproved",
      "outputs": [
        {
          "internalType": "address",
          "name": "",
          "type": "address"
        }
      ],
      "stateMutability": "view",
      "type": "function"
    },
    {
      "inputs": [
        {
          "internalType": "address",
          "name": "owner",
          "type": "address"
        },
        {
          "internalType": "address",
          "name": "operator",
          "type": "address"
        }
      ],
      "name": "isApprovedForAll",
      "outputs": [
        {
          "internalType": "bool",
          "name": "",
          "type": "bool"
        }
      ],
      "stateMutability": "view",
      "type": "function"
    },
    {
      "inputs": [
        {
          "internalType": "address",
          "name": "to",
          "type": "address"
        },
        {
          "internalType": "string",
          "name": "uri",
          "type": "string"
        }
      ],
      "name": "mint",
      "outputs": [
        {
          "internalType": "uint256",
          "name": "",
          "type": "uint256"
        }
      ],
      "stateMutability": "nonpayable",
      "type": "function"
    },
    {
      "inputs": [
        {
          "internalType": "address",
          "name": "to",
          "type": "address"
        },
        {
          "internalType": "string[]",
          "name": "uris",
          "type": "string[]"
        }
      ],
      "name": "mintBatch",
      "outputs": [
        {
          "internalType": "uint256[]",
          "name": "",
          "type": "uint256[]"
        }
      ],
      "stateMutability": "nonpayable",
      "type": "function"
    },
    {
      "inputs": [],
      "name": "name",
      "outputs": [
        {
          "internalType": "string",
          "name": "",
          "type": "string"
        }
      ],
      "stateMutability": "view",
      "type": "function"
    },
    {
      "inputs": [],
      "name": "nextTokenId",
      "outputs": [
        {
          "internalType": "uint256",
          "name": "",
          "type": "uint256"
        }
      ],
      "stateMutability": "view",
      "type": "function"
    },
    {
      "inputs": [],
      "name": "owner",
      "outputs": [
        {
          "internalType": "address",
          "name": "",
          "type": "address"
        }
      ],
      "stateMutability": "view",
      "type": "function"
    },
    {
      "inputs": [
        {
          "internalType": "uint256",
          "name": "tokenId",
          "type": "uint256"
        }
      ],
      "name": "ownerOf",
      "outputs": [
        {
          "internalType": "address",
          "name": "",
          "type": "address"
        }
      ],
      "stateMutability": "view",
      "type": "function"
    },
    {
      "inputs": [],
      "name": "renounceOwnership",
      "outputs": [],
      "stateMutability": "nonpayable",
      "type": "function"
    },
    {
      "inputs": [
        {
          "internalType": "address",
          "name": "from",
          "type": "address"
        },
        {
          "internalType": "address",
          "name": "to",
          "type": "address"
        },
        {
          "internalType": "uint256",
          "name": "tokenId",
          "type": "uint256"
        }
      ],
      "name": "safeTransferFrom",
      "outputs": [],
      "stateMutability": "nonpayable",
      "type": "function"
    },
    {
      "inputs": [
        {
          "internalType": "address",
          "name": "from",
          "type": "address"
        },
        {
          "internalType": "address",
          "name": "to",
          "type": "address"
        },
        {
          "internalType": "uint256",
          "name": "tokenId",
          "type": "uint256"
        },
        {
          "internalType": "bytes",
          "name": "data",
          "type": "bytes"
        }
      ],
      "name": "safeTransferFrom",
      "outputs": [],
      "stateMutability": "nonpayable",
      "type": "function"
    },
    {
      "inputs": [
        {
          "internalType": "address",
          "name": "operator",
          "type": "address"
        },
        {
          "internalType": "bool",
          "name": "approved",
          "type": "bool"
        }
      ],
      "name": "setApprovalForAll",
      "outputs": [],
      "stateMutability": "nonpayable",
      "type": "function"
    },
    {
      "inputs": [
        {
          "internalType": "bytes4",
          "name": "interfaceId",
          "type": "bytes4"
        }
      ],
      "name": "supportsInterface",
      "outputs": [
        {
          "internalType": "bool",
          "name": "",
          "type": "bool"
        }
      ],
      "stateMutability": "view",
      "type": "function"
    },
    {
      "inputs": [],
      "name": "symbol",
      "outputs": [
        {
          "internalType": "string",
          "name": "",
          "type": "string"
        }
      ],
      "stateMutability": "view",
      "type": "function"
    },
    {
      "inputs": [
        {
          "internalType": "uint256",
          "name": "tokenId",
          "type": "uint256"
        }
      ],
      "name": "tokenURI",
      "outputs": [
        {
          "internalType": "string",
          "name": "",
          "type": "string"
        }
      ],
      "stateMutability": "view",
      "type": "function"
    },
    {
      "inputs": [],
      "name": "totalSupply",
      "outputs": [
        {
          "internalType": "uint256",
          "name": "",
          "type": "uint256"
        }
      ],
      "stateMutability": "view",
      "type": "function"
    },
    {
      "inputs": [
        {
          "internalType": "address",
          "name": "from",
          "type": "address"
        },
        {
          "internalType": "address",
          "name": "to",
          "type": "address"
        },
        {
          "internalType": "uint256",
          "name": "tokenId",
          "type": "uint256"
        }
      ],
      "name": "transferFrom",
      "outputs": [],
      "stateMutability": "nonpayable",
      "type": "function"
    },
    {
      "inputs": [
        {
          "internalType": "address",
          "name": "newOwner",
          "type": "address"
        }
      ],
      "name": "transferOwnership",
      "outputs": [],
      "stateMutability": "nonpayable",
      "type": "function"
    }
  ],
  "bytecode": "0x608060405234801561001057600080fd5b50336040518060400160405280600981526020017f43726f776e204e465400000000000000000000000000000000000000000000008152506040518060400160405280600581526020017f43524f574e000000000000000000000000000000000000000000000000000000815250816000908161008d9190610445565b50806001908161009d9190610445565b505050600073ffffffffffffffffffffffffffffffffffffffff168173ffffffffffffffffffffffffffffffffffffffff16036101125760006040517f1e4fbdf70000000000000000000000000000000000000000000000000000000081526004016101099190610558565b60405180910390fd5b6101218161012f60201b60201c565b506001600881905550610573565b6000600760009054906101000a900473ffffffffffffffffffffffffffffffffffffffff16905081600760006101000a81548173ffffffffffffffffffffffffffffffffffffffff021916908373ffffffffffffffffffffffffffffffffffffffff1602179055508173ffffffffffffffffffffffffffffffffffffffff168173ffffffffffffffffffffffffffffffffffffffff167f8be0079c531659141344cd1fd0a4f28419497f9722a3daafe3b4186f6b6457e060405160405180910390a35050565b600081519050919050565b7f4e487b7100000000000000000000000000000000000000000000000000000000600052604160045260246000fd5b7f4e487b7100000000000000000000000000000000000000000000000000000000600052602260045260246000fd5b6000600282049050600182168061027657607f821691505b6020821081036102895761028861022f565b5b50919050565b60008190508160005260206000209050919050565b60006020601f8301049050919050565b600082821b905092915050565b6000600883026102f17fffffffffffffffffffffffffffffffffffffffffffffffffffffffffffffffff826102b4565b6102fb86836102b4565b95508019841693508086168417925050509392505050565b6000819050919050565b6000819050919050565b600061034261033d61033884610313565b61031d565b610313565b9050919050565b6000819050919050565b61035c83610327565b61037061036882610349565b8484546102c1565b825550505050565b600090565b610385610378565b610390818484610353565b505050565b5b818110156103b4576103a960008261037d565b600181019050610396565b5050565b601f8211156103f9576103ca8161028f565b6103d3846102a4565b810160208510156103e2578190505b6103f66103ee856102a4565b830182610395565b50505b505050565b600082821c905092915050565b600061041c600019846008026103fe565b1980831691505092915050565b6000610435838361040b565b9150826002028217905092915050565b61044e826101f5565b67ffffffffffffffff81111561046757610466610200565b5b610471825461025e565b61047c8282856103b8565b600060209050601f8311600181146104af576000841561049d578287015190505b6104a78582610429565b86555061050f565b601f1984166104bd8661028f565b60005b828110156104e5578489015182556001820191506020850194506020810190506104c0565b8683101561050257848901516104fe601f89168261040b565b8355505b6001600288020188555050505b505050505050565b600073ffffffffffffffffffffffffffffffffffffffff82169050919050565b600061054282610517565b9050919050565b61055281610537565b82525050565b600060208201905061056d6000830184610549565b92915050565b612abb806105826000396000f3fe608060405234801561001057600080fd5b506004361061012c5760003560e01c806375794a3c116100ad578063c87b56dd11610071578063c87b56dd1461031d578063d0def5211461034d578063e985e9c51461037d578063ed0e31de146103ad578063f2fde38b146103dd5761012c565b806375794a3c1461028b5780638da5cb5b146102a957806395d89b41146102c7578063a22cb465146102e5578063b88d4fde146103015761012c565b806323b872dd116100f457806323b872dd146101e957806342842e0e146102055780636352211e1461022157806370a0823114610251578063715018a6146102815761012c565b806301ffc9a71461013157806306fdde0314610161578063081812fc1461017f578063095ea7b3146101af57806318160ddd146101cb575b600080fd5b61014b60048036038101906101469190611c8e565b6103f9565b6040516101589190611cd6565b60405180910390f35b61016961040b565b6040516101769190611d81565b60405180910390f35b61019960048036038101906101949190611dd9565b61049d565b6040516101a69190611e47565b60405180910390f35b6101c960048036038101906101c49190611e8e565b6104b9565b005b6101d36104cf565b6040516101e09190611edd565b60405180910390f35b61020360048036038101906101fe9190611ef8565b6104e5565b005b61021f600480360381019061021a9190611ef8565b6105e7565b005b61023b60048036038101906102369190611dd9565b610607565b6040516102489190611e47565b60405180910390f35b61026b60048036038101906102669190611f4b565b610619565b6040516102789190611edd565b60405180910390f35b6102896106d3565b005b6102936106e7565b6040516102a09190611edd565b60405180910390f35b6102b16106f1565b6040516102be9190611e47565b60405180910390f35b6102cf61071b565b6040516102dc9190611d81565b60405180910390f35b6102ff60048036038101906102fa9190611fa4565b6107ad565b005b61031b60048036038101906103169190612119565b6107c3565b005b61033760048036038101906103329190611dd9565b6107e8565b6040516103449190611d81565b60405180910390f35b6103676004803603810190610362919061223d565b6107fa565b6040516103749190611edd565b60405180910390f35b61039760048036038101906103929190612299565b61083d565b6040516103a49190611cd6565b60405180910390f35b6103c760048036038101906103c291906123bf565b6108d1565b6040516103d491906124d9565b60405180910390f35b6103f760048036038101906103f29190611f4b565b6109b7565b005b600061040482610a3d565b9050919050565b60606000805461041a9061252a565b80601f01602080910402602001604051908101604052809291908181526020018280546104469061252a565b80156104935780601f1061046857610100808354040283529160200191610493565b820191906000526020600020905b81548152906001019060200180831161047657829003601f168201915b5050505050905090565b60006104a882610a9e565b506104b282610b26565b9050919050565b6104cb82826104c6610b63565b610b6b565b5050565b600060016008546104e0919061258a565b905090565b600073ffffffffffffffffffffffffffffffffffffffff168273ffffffffffffffffffffffffffffffffffffffff16036105575760006040517f64a0ae9200000000000000000000000000000000000000000000000000000000815260040161054e9190611e47565b60405180910390fd5b600061056b8383610566610b63565b610b7d565b90508373ffffffffffffffffffffffffffffffffffffffff168173ffffffffffffffffffffffffffffffffffffffff16146105e1578382826040517f64283d7b0000000000000000000000000000000000000000000000000000000081526004016105d8939291906125be565b60405180910390fd5b50505050565b610602838383604051806020016040528060008152506107c3565b505050565b600061061282610a9e565b9050919050565b60008073ffffffffffffffffffffffffffffffffffffffff168273ffffffffffffffffffffffffffffffffffffffff160361068c5760006040517f89c62b640000000000000000000000000000000000000000000000000000000081526004016106839190611e47565b60405180910390fd5b600360008373ffffffffffffffffffffffffffffffffffffffff1673ffffffffffffffffffffffffffffffffffffffff168152602001908152602001600020549050919050565b6106db610d97565b6106e56000610e1e565b565b6000600854905090565b6000600760009054906101000a900473ffffffffffffffffffffffffffffffffffffffff16905090565b60606001805461072a9061252a565b80601f01602080910402602001604051908101604052809291908181526020018280546107569061252a565b80156107a35780601f10610778576101008083540402835291602001916107a3565b820191906000526020600020905b81548152906001019060200180831161078657829003601f168201915b5050505050905090565b6107bf6107b8610b63565b8383610ee4565b5050565b6107ce8484846104e5565b6107e26107d9610b63565b85858585611053565b50505050565b60606107f382611204565b9050919050565b6000610804610d97565b600060086000815480929190610819906125f5565b9190505590506108298482611317565b6108338184611335565b8091505092915050565b6000600560008473ffffffffffffffffffffffffffffffffffffffff1673ffffffffffffffffffffffffffffffffffffffff16815260200190815260200160002060008373ffffffffffffffffffffffffffffffffffffffff1673ffffffffffffffffffffffffffffffffffffffff16815260200190815260200160002060009054906101000a900460ff16905092915050565b60606108db610d97565b6000825167ffffffffffffffff8111156108f8576108f7611fee565b5b6040519080825280602002602001820160405280156109265781602001602082028036833780820191505090505b50905060005b83518110156109ac5760006008600081548092919061094a906125f5565b91905055905061095a8682611317565b61097e818684815181106109715761097061263d565b5b6020026020010151611335565b808383815181106109925761099161263d565b5b60200260200101818152505050808060010191505061092c565b508091505092915050565b6109bf610d97565b600073ffffffffffffffffffffffffffffffffffffffff168173ffffffffffffffffffffffffffffffffffffffff1603610a315760006040517f1e4fbdf7000000000000000000000000000000000000000000000000000000008152600401610a289190611e47565b60405180910390fd5b610a3a81610e1e565b50565b6000634906490660e01b7bffffffffffffffffffffffffffffffffffffffffffffffffffffffff1916827bffffffffffffffffffffffffffffffffffffffffffffffffffffffff19161480610a975750610a9682611391565b5b9050919050565b600080610aaa83611473565b9050600073ffffffffffffffffffffffffffffffffffffffff168173ffffffffffffffffffffffffffffffffffffffff1603610b1d57826040517f7e273289000000000000000000000000000000000000000000000000000000008152600401610b149190611edd565b60405180910390fd5b80915050919050565b60006004600083815260200190815260200160002060009054906101000a900473ffffffffffffffffffffffffffffffffffffffff169050919050565b600033905090565b610b7883838360016114b0565b505050565b600080610b8984611473565b9050600073ffffffffffffffffffffffffffffffffffffffff168373ffffffffffffffffffffffffffffffffffffffff1614610bcb57610bca818486611675565b5b600073ffffffffffffffffffffffffffffffffffffffff168173ffffffffffffffffffffffffffffffffffffffff1614610c5c57610c0d6000856000806114b0565b6001600360008373ffffffffffffffffffffffffffffffffffffffff1673ffffffffffffffffffffffffffffffffffffffff168152602001908152602001600020600082825403925050819055505b600073ffffffffffffffffffffffffffffffffffffffff168573ffffffffffffffffffffffffffffffffffffffff1614610cdf576001600360008773ffffffffffffffffffffffffffffffffffffffff1673ffffffffffffffffffffffffffffffffffffffff168152602001908152602001600020600082825401925050819055505b846002600086815260200190815260200160002060006101000a81548173ffffffffffffffffffffffffffffffffffffffff021916908373ffffffffffffffffffffffffffffffffffffffff160217905550838573ffffffffffffffffffffffffffffffffffffffff168273ffffffffffffffffffffffffffffffffffffffff167fddf252ad1be2c89b69c2b068fc378daa952ba7f163c4a11628f55a4df523b3ef60405160405180910390a4809150509392505050565b610d9f610b63565b73ffffffffffffffffffffffffffffffffffffffff16610dbd6106f1565b73ffffffffffffffffffffffffffffffffffffffff1614610e1c57610de0610b63565b6040517f118cdaa7000000000000000000000000000000000000000000000000000000008152600401610e139190611e47565b60405180910390fd5b565b6000600760009054906101000a900473ffffffffffffffffffffffffffffffffffffffff16905081600760006101000a81548173ffffffffffffffffffffffffffffffffffffffff021916908373ffffffffffffffffffffffffffffffffffffffff1602179055508173ffffffffffffffffffffffffffffffffffffffff168173ffffffffffffffffffffffffffffffffffffffff167f8be0079c531659141344cd1fd0a4f28419497f9722a3daafe3b4186f6b6457e060405160405180910390a35050565b600073ffffffffffffffffffffffffffffffffffffffff168273ffffffffffffffffffffffffffffffffffffffff1603610f5557816040517f5b08ba18000000000000000000000000000000000000000000000000000000008152600401610f4c9190611e47565b60405180910390fd5b80600560008573ffffffffffffffffffffffffffffffffffffffff1673ffffffffffffffffffffffffffffffffffffffff16815260200190815260200160002060008473ffffffffffffffffffffffffffffffffffffffff1673ffffffffffffffffffffffffffffffffffffffff16815260200190815260200160002060006101000a81548160ff0219169083151502179055508173ffffffffffffffffffffffffffffffffffffffff168373ffffffffffffffffffffffffffffffffffffffff167f17307eab39ab6107e8899845ad3d59bd9653f200f220920489ca2b5937696c31836040516110469190611cd6565b60405180910390a3505050565b60008373ffffffffffffffffffffffffffffffffffffffff163b11156111fd578273ffffffffffffffffffffffffffffffffffffffff1663150b7a02868685856040518563ffffffff1660e01b81526004016110b294939291906126c1565b6020604051808303816000875af19250505080156110ee57506040513d601f19601f820116820180604052508101906110eb9190612722565b60015b611172573d806000811461111e576040519150601f19603f3d011682016040523d82523d6000602084013e611123565b606091505b50600081510361116a57836040517f64a0ae920000000000000000000000000000000000000000000000000000000081526004016111619190611e47565b60405180910390fd5b805160208201fd5b63150b7a0260e01b7bffffffffffffffffffffffffffffffffffffffffffffffffffffffff1916817bffffffffffffffffffffffffffffffffffffffffffffffffffffffff1916146111fb57836040517f64a0ae920000000000000000000000000000000000000000000000000000000081526004016111f29190611e47565b60405180910390fd5b505b5050505050565b606061120f82610a9e565b5060006006600084815260200190815260200160002080546112309061252a565b80601f016020809104026020016040519081016040528092919081815260200182805461125c9061252a565b80156112a95780601f1061127e576101008083540402835291602001916112a9565b820191906000526020600020905b81548152906001019060200180831161128c57829003601f168201915b5050505050905060006112ba611739565b905060008151036112cf578192505050611312565b6000825111156113045780826040516020016112ec92919061278b565b60405160208183030381529060405292505050611312565b61130d84611750565b925050505b919050565b6113318282604051806020016040528060008152506117b9565b5050565b80600660008481526020019081526020016000209081611355919061295b565b507ff8e1a15aba9398e019f0b49df1a4fde98ee17ae345cb5f6b5e2c27f5033e8ce7826040516113859190611edd565b60405180910390a15050565b60007f80ac58cd000000000000000000000000000000000000000000000000000000007bffffffffffffffffffffffffffffffffffffffffffffffffffffffff1916827bffffffffffffffffffffffffffffffffffffffffffffffffffffffff1916148061145c57507f5b5e139f000000000000000000000000000000000000000000000000000000007bffffffffffffffffffffffffffffffffffffffffffffffffffffffff1916827bffffffffffffffffffffffffffffffffffffffffffffffffffffffff1916145b8061146c575061146b826117dd565b5b9050919050565b60006002600083815260200190815260200160002060009054906101000a900473ffffffffffffffffffffffffffffffffffffffff169050919050565b80806114e95750600073ffffffffffffffffffffffffffffffffffffffff168273ffffffffffffffffffffffffffffffffffffffff1614155b1561161d5760006114f984610a9e565b9050600073ffffffffffffffffffffffffffffffffffffffff168373ffffffffffffffffffffffffffffffffffffffff161415801561156457508273ffffffffffffffffffffffffffffffffffffffff168173ffffffffffffffffffffffffffffffffffffffff1614155b80156115775750611575818461083d565b155b156115b957826040517fa9fbf51f0000000000000000000000000000000000000000000000000000000081526004016115b09190611e47565b60405180910390fd5b811561161b57838573ffffffffffffffffffffffffffffffffffffffff168273ffffffffffffffffffffffffffffffffffffffff167f8c5be1e5ebec7d5bd14f71427d1e84f3dd0314c0f7b2291e5b200ac8c7c3b92560405160405180910390a45b505b836004600085815260200190815260200160002060006101000a81548173ffffffffffffffffffffffffffffffffffffffff021916908373ffffffffffffffffffffffffffffffffffffffff16021790555050505050565b611680838383611847565b61173457600073ffffffffffffffffffffffffffffffffffffffff168373ffffffffffffffffffffffffffffffffffffffff16036116f557806040517f7e2732890000000000000000000000000000000000000000000000000000000081526004016116ec9190611edd565b60405180910390fd5b81816040517f177e802f00000000000000000000000000000000000000000000000000000000815260040161172b929190612a2d565b60405180910390fd5b505050565b606060405180602001604052806000815250905090565b606061175b82610a9e565b506000611766611739565b9050600081511161178657604051806020016040528060008152506117b1565b8061179084611908565b6040516020016117a192919061278b565b6040516020818303038152906040525b915050919050565b6117c383836119d6565b6117d86117ce610b63565b6000858585611053565b505050565b60007f01ffc9a7000000000000000000000000000000000000000000000000000000007bffffffffffffffffffffffffffffffffffffffffffffffffffffffff1916827bffffffffffffffffffffffffffffffffffffffffffffffffffffffff1916149050919050565b60008073ffffffffffffffffffffffffffffffffffffffff168373ffffffffffffffffffffffffffffffffffffffff16141580156118ff57508273ffffffffffffffffffffffffffffffffffffffff168473ffffffffffffffffffffffffffffffffffffffff1614806118c057506118bf848461083d565b5b806118fe57508273ffffffffffffffffffffffffffffffffffffffff166118e683610b26565b73ffffffffffffffffffffffffffffffffffffffff16145b5b90509392505050565b60606000600161191784611acf565b01905060008167ffffffffffffffff81111561193657611935611fee565b5b6040519080825280601f01601f1916602001820160405280156119685781602001600182028036833780820191505090505b509050600082602083010190505b6001156119cb578080600190039150507f3031323334353637383961626364656600000000000000000000000000000000600a86061a8153600a85816119bf576119be612a56565b5b04945060008503611976575b819350505050919050565b600073ffffffffffffffffffffffffffffffffffffffff168273ffffffffffffffffffffffffffffffffffffffff1603611a485760006040517f64a0ae92000000000000000000000000000000000000000000000000000000008152600401611a3f9190611e47565b60405180910390fd5b6000611a5683836000610b7d565b9050600073ffffffffffffffffffffffffffffffffffffffff168173ffffffffffffffffffffffffffffffffffffffff1614611aca5760006040517f73c6ac6e000000000000000000000000000000000000000000000000000000008152600401611ac19190611e47565b60405180910390fd5b505050565b600080600090507a184f03e93ff9f4daa797ed6e38ed64bf6a1f0100000000000000008310611b2d577a184f03e93ff9f4daa797ed6e38ed64bf6a1f0100000000000000008381611b2357611b22612a56565b5b0492506040810190505b6d04ee2d6d415b85acef81000000008310611b6a576d04ee2d6d415b85acef81000000008381611b6057611b5f612a56565b5b0492506020810190505b662386f26fc100008310611b9957662386f26fc100008381611b8f57611b8e612a56565b5b0492506010810190505b6305f5e1008310611bc2576305f5e1008381611bb857611bb7612a56565b5b0492506008810190505b6127108310611be7576127108381611bdd57611bdc612a56565b5b0492506004810190505b60648310611c0a5760648381611c0057611bff612a56565b5b0492506002810190505b600a8310611c19576001810190505b80915050919050565b6000604051905090565b600080fd5b600080fd5b60007fffffffff0000000000000000000000000000000000000000000000000000000082169050919050565b611c6b81611c36565b8114611c7657600080fd5b50565b600081359050611c8881611c62565b92915050565b600060208284031215611ca457611ca3611c2c565b5b6000611cb284828501611c79565b91505092915050565b60008115159050919050565b611cd081611cbb565b82525050565b6000602082019050611ceb6000830184611cc7565b92915050565b600081519050919050565b600082825260208201905092915050565b60005b83811015611d2b578082015181840152602081019050611d10565b60008484015250505050565b6000601f19601f8301169050919050565b6000611d5382611cf1565b611d5d8185611cfc565b9350611d6d818560208601611d0d565b611d7681611d37565b840191505092915050565b60006020820190508181036000830152611d9b8184611d48565b905092915050565b6000819050919050565b611db681611da3565b8114611dc157600080fd5b50565b600081359050611dd381611dad565b92915050565b600060208284031215611def57611dee611c2c565b5b6000611dfd84828501611dc4565b91505092915050565b600073ffffffffffffffffffffffffffffffffffffffff82169050919050565b6000611e3182611e06565b9050919050565b611e4181611e26565b82525050565b6000602082019050611e5c6000830184611e38565b92915050565b611e6b81611e26565b8114611e7657600080fd5b50565b600081359050611e8881611e62565b92915050565b60008060408385031215611ea557611ea4611c2c565b5b6000611eb385828601611e79565b9250506020611ec485828601611dc4565b9150509250929050565b611ed781611da3565b82525050565b6000602082019050611ef26000830184611ece565b92915050565b600080600060608486031215611f1157611f10611c2c565b5b6000611f1f86828701611e79565b9350506020611f3086828701611e79565b9250506040611f4186828701611dc4565b9150509250925092565b600060208284031215611f6157611f60611c2c565b5b6000611f6f84828501611e79565b91505092915050565b611f8181611cbb565b8114611f8c57600080fd5b50565b600081359050611f9e81611f78565b92915050565b60008060408385031215611fbb57611fba611c2c565b5b6000611fc985828601611e79565b9250506020611fda85828601611f8f565b9150509250929050565b600080fd5b600080fd5b7f4e487b7100000000000000000000000000000000000000000000000000000000600052604160045260246000fd5b61202682611d37565b810181811067ffffffffffffffff8211171561204557612044611fee565b5b80604052505050565b6000612058611c22565b9050612064828261201d565b919050565b600067ffffffffffffffff82111561208457612083611fee565b5b61208d82611d37565b9050602081019050919050565b82818337600083830152505050565b60006120bc6120b784612069565b61204e565b9050828152602081018484840111156120d8576120d7611fe9565b5b6120e384828561209a565b509392505050565b600082601f830112612100576120ff611fe4565b5b81356121108482602086016120a9565b91505092915050565b6000806000806080858703121561213357612132611c2c565b5b600061214187828801611e79565b945050602061215287828801611e79565b935050604061216387828801611dc4565b925050606085013567ffffffffffffffff81111561218457612183611c31565b5b612190878288016120eb565b91505092959194509250565b600067ffffffffffffffff8211156121b7576121b6611fee565b5b6121c082611d37565b9050602081019050919050565b60006121e06121db8461219c565b61204e565b9050828152602081018484840111156121fc576121fb611fe9565b5b61220784828561209a565b509392505050565b600082601f83011261222457612223611fe4565b5b81356122348482602086016121cd565b91505092915050565b6000806040838503121561225457612253611c2c565b5b600061226285828601611e79565b925050602083013567ffffffffffffffff81111561228357612282611c31565b5b61228f8582860161220f565b9150509250929050565b600080604083850312156122b0576122af611c2c565b5b60006122be85828601611e79565b92505060206122cf85828601611e79565b9150509250929050565b600067ffffffffffffffff8211156122f4576122f3611fee565b5b602082029050602081019050919050565b600080fd5b600061231d612318846122d9565b61204e565b905080838252602082019050602084028301858111156123405761233f612305565b5b835b8181101561238757803567ffffffffffffffff81111561236557612364611fe4565b5b808601612372898261220f565b85526020850194505050602081019050612342565b5050509392505050565b600082601f8301126123a6576123a5611fe4565b5b81356123b684826020860161230a565b91505092915050565b600080604083850312156123d6576123d5611c2c565b5b60006123e485828601611e79565b925050602083013567ffffffffffffffff81111561240557612404611c31565b5b61241185828601612391565b9150509250929050565b600081519050919050565b600082825260208201905092915050565b6000819050602082019050919050565b61245081611da3565b82525050565b60006124628383612447565b60208301905092915050565b6000602082019050919050565b60006124868261241b565b6124908185612426565b935061249b83612437565b8060005b838110156124cc5781516124b38882612456565b97506124be8361246e565b92505060018101905061249f565b5085935050505092915050565b600060208201905081810360008301526124f3818461247b565b905092915050565b7f4e487b7100000000000000000000000000000000000000000000000000000000600052602260045260246000fd5b6000600282049050600182168061254257607f821691505b602082108103612555576125546124fb565b5b50919050565b7f4e487b7100000000000000000000000000000000000000000000000000000000600052601160045260246000fd5b600061259582611da3565b91506125a083611da3565b92508282039050818111156125b8576125b761255b565b5b92915050565b60006060820190506125d36000830186611e38565b6125e06020830185611ece565b6125ed6040830184611e38565b949350505050565b600061260082611da3565b91507fffffffffffffffffffffffffffffffffffffffffffffffffffffffffffffffff82036126325761263161255b565b5b600182019050919050565b7f4e487b7100000000000000000000000000000000000000000000000000000000600052603260045260246000fd5b600081519050919050565b600082825260208201905092915050565b60006126938261266c565b61269d8185612677565b93506126ad818560208601611d0d565b6126b681611d37565b840191505092915050565b60006080820190506126d66000830187611e38565b6126e36020830186611e38565b6126f06040830185611ece565b81810360608301526127028184612688565b905095945050505050565b60008151905061271c81611c62565b92915050565b60006020828403121561273857612737611c2c565b5b60006127468482850161270d565b91505092915050565b600081905092915050565b600061276582611cf1565b61276f818561274f565b935061277f818560208601611d0d565b80840191505092915050565b6000612797828561275a565b91506127a3828461275a565b91508190509392505050565b60008190508160005260206000209050919050565b60006020601f8301049050919050565b600082821b905092915050565b6000600883026128117fffffffffffffffffffffffffffffffffffffffffffffffffffffffffffffffff826127d4565b61281b86836127d4565b95508019841693508086168417925050509392505050565b6000819050919050565b600061285861285361284e84611da3565b612833565b611da3565b9050919050565b6000819050919050565b6128728361283d565b61288661287e8261285f565b8484546127e1565b825550505050565b600090565b61289b61288e565b6128a6818484612869565b505050565b5b818110156128ca576128bf600082612893565b6001810190506128ac565b5050565b601f82111561290f576128e0816127af565b6128e9846127c4565b810160208510156128f8578190505b61290c612904856127c4565b8301826128ab565b50505b505050565b600082821c905092915050565b600061293260001984600802612914565b1980831691505092915050565b600061294b8383612921565b9150826002028217905092915050565b61296482611cf1565b67ffffffffffffffff81111561297d5761297c611fee565b5b612987825461252a565b6129928282856128ce565b600060209050601f8311600181146129c557600084156129b3578287015190505b6129bd858261293f565b865550612a25565b601f1984166129d3866127af565b60005b828110156129fb578489015182556001820191506020850194506020810190506129d6565b86831015612a185784890151612a14601f891682612921565b8355505b6001600288020188555050505b505050505050565b6000604082019050612a426000830185611e38565b612a4f6020830184611ece565b9392505050565b7f4e487b7100000000000000000000000000000000000000000000000000000000600052601260045260246000fdfea264697066735822122027a5da1ea4afcfcc6eea08bd41e0b7acad885717eefd717988d527c650dd55d264736f6c634300081c0033",
  "linkReferences": {},
  "deployedLinkReferences": {}
}