{
  "_format": "hh-sol-artifact-1",
  "contractName": "CrownNFT",
  "sourceName": "contracts/CrownNFT.sol",
  "abi": [
    {
      "inputs": [],
      "stateMutability": "nonpayable",
      "type": "constructor"
    },
    {
      "inputs": [
        {
          "internalType": "address",
          "name": "target",
          "type": "address"
        }
      ],
      "name": "AddressEmptyCode",
      "type": "error"
    },
    {
      "inputs": [
        {
          "internalType": "address",
          "name": "implementation",
          "type": "address"
        }
      ],
      "name": "ERC1967InvalidImplementation",
      "type": "error"
    },
    {
      "inputs": [],
      "name": "ERC1967NonPayable",
      "type": "error"
    },
    {
      "inputs": [
        {
          "internalType": "address",
          "name": "sender",
          "type": "address"
        },
        {
          "internalType": "uint256",
          "name": "tokenId",
          "type": "uint256"
        },
        {
          "internalType": "address",
          "name": "owner",
          "type": "address"
        }
      ],
      "name": "ERC721IncorrectOwner",
      "type": "error"
    },
    {
      "inputs": [
        {
          "internalType": "address",
          "name": "operator",
          "type": "address"
        },
        {
          "internalType": "uint256",
          "name": "tokenId",
          "type": "uint256"
        }
      ],
      "name": "ERC721InsufficientApproval",
      "type": "error"
    },
    {
      "inputs": [
        {
          "internalType": "address",
          "name": "approver",
          "type": "address"
        }
      ],
      "name": "ERC721InvalidApprover",
      "type": "error"
    },
    {
      "inputs": [
        {
          "internalType": "address",
          "name": "operator",
          "type": "address"
        }
      ],
      "name": "ERC721InvalidOperator",
      "type": "error"
    },
    {
      "inputs": [
        {
          "internalType": "address",
          "name": "owner",
          "type": "address"
        }
      ],
      "name": "ERC721InvalidOwner",
      "type": "error"
    },
    {
      "inputs": [
        {
          "internalType": "address",
          "name": "receiver",
          "type": "address"
        }
      ],
      "name": "ERC721InvalidReceiver",
      "type": "error"
    },
    {
      "inputs": [
        {
          "internalType": "address",
          "name": "sender",
          "type": "address"
        }
      ],
      "name": "ERC721InvalidSender",
      "type": "error"
    },
    {
      "inputs": [
        {
          "internalType": "uint256",
          "name": "tokenId",
          "type": "uint256"
        }
      ],
      "name": "ERC721NonexistentToken",
      "type": "error"
    },
    {
      "inputs": [],
      "name": "FailedCall",
      "type": "error"
    },
    {
      "inputs": [],
      "name": "InvalidInitialization",
      "type": "error"
    },
    {
      "inputs": [],
      "name": "NotInitializing",
      "type": "error"
    },
    {
      "inputs": [
        {
          "internalType": "address",
          "name": "owner",
          "type": "address"
        }
      ],
      "name": "OwnableInvalidOwner",
      "type": "error"
    },
    {
      "inputs": [
        {
          "internalType": "address",
          "name": "account",
          "type": "address"
        }
      ],
      "name": "OwnableUnauthorizedAccount",
      "type": "error"
    },
    {
      "inputs": [],
      "name": "UUPSUnauthorizedCallContext",
      "type": "error"
    },
    {
      "inputs": [
        {
          "internalType": "bytes32",
          "name": "slot",
          "type": "bytes32"
        }
      ],
      "name": "UUPSUnsupportedProxiableUUID",
      "type": "error"
    },
    {
      "anonymous": false,
      "inputs": [
        {
          "indexed": true,
          "internalType": "address",
          "name": "owner",
          "type": "address"
        },
        {
          "indexed": true,
          "internalType": "address",
          "name": "approved",
          "type": "address"
        },
        {
          "indexed": true,
          "internalType": "uint256",
          "name": "tokenId",
          "type": "uint256"
        }
      ],
      "name": "Approval",
      "type": "event"
    },
    {
      "anonymous": false,
      "inputs": [
        {
          "indexed": true,
          "internalType": "address",
          "name": "owner",
          "type": "address"
        },
        {
          "indexed": true,
          "internalType": "address",
          "name": "operator",
          "type": "address"
        },
        {
          "indexed": false,
          "internalType": "bool",
          "name": "approved",
          "type": "bool"
        }
      ],
      "name": "ApprovalForAll",
      "type": "event"
    },
    {
      "anonymous": false,
      "inputs": [
        {
          "indexed": false,
          "internalType": "uint256",
          "name": "_fromTokenId",
          "type": "uint256"
        },
        {
          "indexed": false,
          "internalType": "uint256",
          "name": "_toTokenId",
          "type": "uint256"
        }
      ],
      "name": "BatchMetadataUpdate",
      "type": "event"
    },
    {
      "anonymous": false,
      "inputs": [
        {
          "indexed": false,
          "internalType": "uint64",
          "name": "version",
          "type": "uint64"
        }
      ],
      "name": "Initialized",
      "type": "event"
    },
    {
      "anonymous": false,
      "inputs": [
        {
          "indexed": false,
          "internalType": "uint256",
          "name": "_tokenId",
          "type": "uint256"
        }
      ],
      "name": "MetadataUpdate",
      "type": "event"
    },
    {
      "anonymous": false,
      "inputs": [
        {
          "indexed": true,
          "internalType": "address",
          "name": "previousOwner",
          "type": "address"
        },
        {
          "indexed": true,
          "internalType": "address",
          "name": "newOwner",
          "type": "address"
        }
      ],
      "name": "OwnershipTransferred",
      "type": "event"
    },
    {
      "anonymous": false,
      "inputs": [
        {
          "indexed": true,
          "internalType": "address",
          "name": "from",
          "type": "address"
        },
        {
          "indexed": true,
          "internalType": "address",
          "name": "to",
          "type": "address"
        },
        {
          "indexed": true,
          "internalType": "uint256",
          "name": "tokenId",
          "type": "uint256"
        }
      ],
      "name": "Transfer",
      "type": "event"
    },
    {
      "anonymous": false,
      "inputs": [
        {
          "indexed": true,
          "internalType": "address",
          "name": "implementation",
          "type": "address"
        }
      ],
      "name": "Upgraded",
      "type": "event"
    },
    {
      "inputs": [],
      "name": "UPGRADE_INTERFACE_VERSION",
      "outputs": [
        {
          "internalType": "string",
          "name": "",
          "type": "string"
        }
      ],
      "stateMutability": "view",
      "type": "function"
    },
    {
      "inputs": [
        {
          "internalType": "address",
          "name": "to",
          "type": "address"
        },
        {
          "internalType": "uint256",
          "name": "tokenId",
          "type": "uint256"
        }
      ],
      "name": "approve",
      "outputs": [],
      "stateMutability": "nonpayable",
      "type": "function"
    },
    {
      "inputs": [
        {
          "internalType": "address",
          "name": "owner",
          "type": "address"
        }
      ],
      "name": "balanceOf",
      "outputs": [
        {
          "internalType": "uint256",
          "name": "",
          "type": "uint256"
        }
      ],
      "stateMutability": "view",
      "type": "function"
    },
    {
      "inputs": [
        {
          "internalType": "uint256",
          "name": "tokenId",
          "type": "uint256"
        }
      ],
      "name": "getApproved",
      "outputs": [
        {
          "internalType": "address",
          "name": "",
          "type": "address"
        }
      ],
      "stateMutability": "view",
      "type": "function"
    },
    {
      "inputs": [],
      "name": "initialize",
      "outputs": [],
      "stateMutability": "nonpayable",
      "type": "function"
    },
    {
      "inputs": [
        {
          "internalType": "address",
          "name": "owner",
          "type": "address"
        },
        {
          "internalType": "address",
          "name": "operator",
          "type": "address"
        }
      ],
      "name": "isApprovedForAll",
      "outputs": [
        {
          "internalType": "bool",
          "name": "",
          "type": "bool"
        }
      ],
      "stateMutability": "view",
      "type": "function"
    },
    {
      "inputs": [
        {
          "internalType": "address",
          "name": "to",
          "type": "address"
        },
        {
          "internalType": "string",
          "name": "uri",
          "type": "string"
        }
      ],
      "name": "mint",
      "outputs": [
        {
          "internalType": "uint256",
          "name": "",
          "type": "uint256"
        }
      ],
      "stateMutability": "nonpayable",
      "type": "function"
    },
    {
      "inputs": [
        {
          "internalType": "address",
          "name": "to",
          "type": "address"
        },
        {
          "internalType": "string[]",
          "name": "uris",
          "type": "string[]"
        }
      ],
      "name": "mintBatch",
      "outputs": [
        {
          "internalType": "uint256[]",
          "name": "",
          "type": "uint256[]"
        }
      ],
      "stateMutability": "nonpayable",
      "type": "function"
    },
    {
      "inputs": [],
      "name": "name",
      "outputs": [
        {
          "internalType": "string",
          "name": "",
          "type": "string"
        }
      ],
      "stateMutability": "view",
      "type": "function"
    },
    {
      "inputs": [],
      "name": "nextTokenId",
      "outputs": [
        {
          "internalType": "uint256",
          "name": "",
          "type": "uint256"
        }
      ],
      "stateMutability": "view",
      "type": "function"
    },
    {
      "inputs": [],
      "name": "owner",
      "outputs": [
        {
          "internalType": "address",
          "name": "",
          "type": "address"
        }
      ],
      "stateMutability": "view",
      "type": "function"
    },
    {
      "inputs": [
        {
          "internalType": "uint256",
          "name": "tokenId",
          "type": "uint256"
        }
      ],
      "name": "ownerOf",
      "outputs": [
        {
          "internalType": "address",
          "name": "",
          "type": "address"
        }
      ],
      "stateMutability": "view",
      "type": "function"
    },
    {
      "inputs": [],
      "name": "proxiableUUID",
      "outputs": [
        {
          "internalType": "bytes32",
          "name": "",
          "type": "bytes32"
        }
      ],
      "stateMutability": "view",
      "type": "function"
    },
    {
      "inputs": [],
      "name": "renounceOwnership",
      "outputs": [],
      "stateMutability": "nonpayable",
      "type": "function"
    },
    {
      "inputs": [
        {
          "internalType": "address",
          "name": "from",
          "type": "address"
        },
        {
          "internalType": "address",
          "name": "to",
          "type": "address"
        },
        {
          "internalType": "uint256",
          "name": "tokenId",
          "type": "uint256"
        }
      ],
      "name": "safeTransferFrom",
      "outputs": [],
      "stateMutability": "nonpayable",
      "type": "function"
    },
    {
      "inputs": [
        {
          "internalType": "address",
          "name": "from",
          "type": "address"
        },
        {
          "internalType": "address",
          "name": "to",
          "type": "address"
        },
        {
          "internalType": "uint256",
          "name": "tokenId",
          "type": "uint256"
        },
        {
          "internalType": "bytes",
          "name": "data",
          "type": "bytes"
        }
      ],
      "name": "safeTransferFrom",
      "outputs": [],
      "stateMutability": "nonpayable",
      "type": "function"
    },
    {
      "inputs": [
        {
          "internalType": "address",
          "name": "operator",
          "type": "address"
        },
        {
          "internalType": "bool",
          "name": "approved",
          "type": "bool"
        }
      ],
      "name": "setApprovalForAll",
      "outputs": [],
      "stateMutability": "nonpayable",
      "type": "function"
    },
    {
      "inputs": [
        {
          "internalType": "bytes4",
          "name": "interfaceId",
          "type": "bytes4"
        }
      ],
      "name": "supportsInterface",
      "outputs": [
        {
          "internalType": "bool",
          "name": "",
          "type": "bool"
        }
      ],
      "stateMutability": "view",
      "type": "function"
    },
    {
      "inputs": [],
      "name": "symbol",
      "outputs": [
        {
          "internalType": "string",
          "name": "",
          "type": "string"
        }
      ],
      "stateMutability": "view",
      "type": "function"
    },
    {
      "inputs": [
        {
          "internalType": "uint256",
          "name": "tokenId",
          "type": "uint256"
        }
      ],
      "name": "tokenURI",
      "outputs": [
        {
          "internalType": "string",
          "name": "",
          "type": "string"
        }
      ],
      "stateMutability": "view",
      "type": "function"
    },
    {
      "inputs": [],
      "name": "totalSupply",
      "outputs": [
        {
          "internalType": "uint256",
          "name": "",
          "type": "uint256"
        }
      ],
      "stateMutability": "view",
      "type": "function"
    },
    {
      "inputs": [
        {
          "internalType": "address",
          "name": "from",
          "type": "address"
        },
        {
          "internalType": "address",
          "name": "to",
          "type": "address"
        },
        {
          "internalType": "uint256",
          "name": "tokenId",
          "type": "uint256"
        }
      ],
      "name": "transferFrom",
      "outputs": [],
      "stateMutability": "nonpayable",
      "type": "function"
    },
    {
      "inputs": [
        {
          "internalType": "address",
          "name": "newOwner",
          "type": "address"
        }
      ],
      "name": "transferOwnership",
      "outputs": [],
      "stateMutability": "nonpayable",
      "type": "function"
    },
    {
      "inputs": [
        {
          "internalType": "address",
          "name": "newImplementation",
          "type": "address"
        },
        {
          "internalType": "bytes",
          "name": "data",
          "type": "bytes"
        }
      ],
      "name": "upgradeToAndCall",
      "outputs": [],
      "stateMutability": "payable",
      "type": "function"
    }
  ],
  "bytecode": "0x60a06040523073ffffffffffffffffffffffffffffffffffffffff1660809073ffffffffffffffffffffffffffffffffffffffff1681525034801561004357600080fd5b5061005261005760201b60201c565b6101de565b600061006761015b60201b60201c565b90508060000160089054906101000a900460ff16156100b2576040517ff92ee8a900000000000000000000000000000000000000000000000000000000815260040160405180910390fd5b67ffffffffffffffff80168160000160009054906101000a900467ffffffffffffffff1667ffffffffffffffff16146101585767ffffffffffffffff8160000160006101000a81548167ffffffffffffffff021916908367ffffffffffffffff1602179055507fc7f505b2f371ae2175ee4913f4499e1f2633a7b5936321eed1cdaeb6115181d267ffffffffffffffff60405161014f91906101c3565b60405180910390a15b50565b60008061016c61017560201b60201c565b90508091505090565b60007ff0c57e16840df040f15088dc2f81fe391c3923bec73e23a9662efc9c229c6a0060001b905090565b600067ffffffffffffffff82169050919050565b6101bd816101a0565b82525050565b60006020820190506101d860008301846101b4565b92915050565b60805161395a61020760003960008181611279015281816112ce0152611489015261395a6000f3fe60806040526004361061014b5760003560e01c806375794a3c116100b6578063b88d4fde1161006f578063b88d4fde1461045f578063c87b56dd14610488578063d0def521146104c5578063e985e9c514610502578063ed0e31de1461053f578063f2fde38b1461057c5761014b565b806375794a3c146103735780638129fc1c1461039e5780638da5cb5b146103b557806395d89b41146103e0578063a22cb4651461040b578063ad3cb1cc146104345761014b565b806342842e0e1161010857806342842e0e146102725780634f1ef2861461029b57806352d1902d146102b75780636352211e146102e257806370a082311461031f578063715018a61461035c5761014b565b806301ffc9a71461015057806306fdde031461018d578063081812fc146101b8578063095ea7b3146101f557806318160ddd1461021e57806323b872dd14610249575b600080fd5b34801561015c57600080fd5b5061017760048036038101906101729190612987565b6105a5565b60405161018491906129cf565b60405180910390f35b34801561019957600080fd5b506101a26105b7565b6040516101af9190612a7a565b60405180910390f35b3480156101c457600080fd5b506101df60048036038101906101da9190612ad2565b610658565b6040516101ec9190612b40565b60405180910390f35b34801561020157600080fd5b5061021c60048036038101906102179190612b87565b610674565b005b34801561022a57600080fd5b5061023361068a565b6040516102409190612bd6565b60405180910390f35b34801561025557600080fd5b50610270600480360381019061026b9190612bf1565b6106a0565b005b34801561027e57600080fd5b5061029960048036038101906102949190612bf1565b6107a2565b005b6102b560048036038101906102b09190612d79565b6107c2565b005b3480156102c357600080fd5b506102cc6107e1565b6040516102d99190612dee565b60405180910390f35b3480156102ee57600080fd5b5061030960048036038101906103049190612ad2565b610814565b6040516103169190612b40565b60405180910390f35b34801561032b57600080fd5b5061034660048036038101906103419190612e09565b610826565b6040516103539190612bd6565b60405180910390f35b34801561036857600080fd5b506103716108ef565b005b34801561037f57600080fd5b50610388610903565b6040516103959190612bd6565b60405180910390f35b3480156103aa57600080fd5b506103b361090c565b005b3480156103c157600080fd5b506103ca610b26565b6040516103d79190612b40565b60405180910390f35b3480156103ec57600080fd5b506103f5610b5e565b6040516104029190612a7a565b60405180910390f35b34801561041757600080fd5b50610432600480360381019061042d9190612e62565b610bff565b005b34801561044057600080fd5b50610449610c15565b6040516104569190612a7a565b60405180910390f35b34801561046b57600080fd5b5061048660048036038101906104819190612ea2565b610c4e565b005b34801561049457600080fd5b506104af60048036038101906104aa9190612ad2565b610c73565b6040516104bc9190612a7a565b60405180910390f35b3480156104d157600080fd5b506104ec60048036038101906104e79190612fc6565b610c85565b6040516104f99190612bd6565b60405180910390f35b34801561050e57600080fd5b5061052960048036038101906105249190613022565b610cc7565b60405161053691906129cf565b60405180910390f35b34801561054b57600080fd5b5061056660048036038101906105619190613148565b610d69565b6040516105739190613262565b60405180910390f35b34801561058857600080fd5b506105a3600480360381019061059e9190612e09565b610e4e565b005b60006105b082610ed4565b9050919050565b606060006105c3610f35565b90508060000180546105d4906132b3565b80601f0160208091040260200160405190810160405280929190818152602001828054610600906132b3565b801561064d5780601f106106225761010080835404028352916020019161064d565b820191906000526020600020905b81548152906001019060200180831161063057829003601f168201915b505050505091505090565b600061066382610f5d565b5061066d82610fe5565b9050919050565b6106868282610681611030565b611038565b5050565b6000600160005461069b9190613313565b905090565b600073ffffffffffffffffffffffffffffffffffffffff168273ffffffffffffffffffffffffffffffffffffffff16036107125760006040517f64a0ae920000000000000000000000000000000000000000000000000000000081526004016107099190612b40565b60405180910390fd5b60006107268383610721611030565b61104a565b90508373ffffffffffffffffffffffffffffffffffffffff168173ffffffffffffffffffffffffffffffffffffffff161461079c578382826040517f64283d7b00000000000000000000000000000000000000000000000000000000815260040161079393929190613347565b60405180910390fd5b50505050565b6107bd83838360405180602001604052806000815250610c4e565b505050565b6107ca611277565b6107d38261135d565b6107dd8282611368565b5050565b60006107eb611487565b7f360894a13ba1a3210667c828492db98dca3e2076cc3735a920a3ca505d382bbc60001b905090565b600061081f82610f5d565b9050919050565b600080610831610f35565b9050600073ffffffffffffffffffffffffffffffffffffffff168373ffffffffffffffffffffffffffffffffffffffff16036108a55760006040517f89c62b6400000000000000000000000000000000000000000000000000000000815260040161089c9190612b40565b60405180910390fd5b8060030160008473ffffffffffffffffffffffffffffffffffffffff1673ffffffffffffffffffffffffffffffffffffffff16815260200190815260200160002054915050919050565b6108f761150e565b6109016000611595565b565b60008054905090565b600061091661166c565b905060008160000160089054906101000a900460ff1615905060008260000160009054906101000a900467ffffffffffffffff1690506000808267ffffffffffffffff161480156109645750825b9050600060018367ffffffffffffffff16148015610999575060003073ffffffffffffffffffffffffffffffffffffffff163b145b9050811580156109a7575080155b156109de576040517ff92ee8a900000000000000000000000000000000000000000000000000000000815260040160405180910390fd5b60018560000160006101000a81548167ffffffffffffffff021916908367ffffffffffffffff1602179055508315610a2e5760018560000160086101000a81548160ff0219169083151502179055505b610aa26040518060400160405280600981526020017f43726f776e204e465400000000000000000000000000000000000000000000008152506040518060400160405280600581526020017f43524f574e000000000000000000000000000000000000000000000000000000815250611680565b610aaa611696565b610ab3336116a0565b610abb6116b4565b60016000819055508315610b1f5760008560000160086101000a81548160ff0219169083151502179055507fc7f505b2f371ae2175ee4913f4499e1f2633a7b5936321eed1cdaeb6115181d26001604051610b1691906133d7565b60405180910390a15b5050505050565b600080610b316116be565b90508060000160009054906101000a900473ffffffffffffffffffffffffffffffffffffffff1691505090565b60606000610b6a610f35565b9050806001018054610b7b906132b3565b80601f0160208091040260200160405190810160405280929190818152602001828054610ba7906132b3565b8015610bf45780601f10610bc957610100808354040283529160200191610bf4565b820191906000526020600020905b815481529060010190602001808311610bd757829003601f168201915b505050505091505090565b610c11610c0a611030565b83836116e6565b5050565b6040518060400160405280600581526020017f352e302e3000000000000000000000000000000000000000000000000000000081525081565b610c598484846106a0565b610c6d610c64611030565b85858585611864565b50505050565b6060610c7e82611a15565b9050919050565b6000610c8f61150e565b6000806000815480929190610ca3906133f2565b919050559050610cb38482611b39565b610cbd8184611b57565b8091505092915050565b600080610cd2610f35565b90508060050160008573ffffffffffffffffffffffffffffffffffffffff1673ffffffffffffffffffffffffffffffffffffffff16815260200190815260200160002060008473ffffffffffffffffffffffffffffffffffffffff1673ffffffffffffffffffffffffffffffffffffffff16815260200190815260200160002060009054906101000a900460ff1691505092915050565b6060610d7361150e565b6000825167ffffffffffffffff811115610d9057610d8f612c4e565b5b604051908082528060200260200182016040528015610dbe5781602001602082028036833780820191505090505b50905060005b8351811015610e43576000806000815480929190610de1906133f2565b919050559050610df18682611b39565b610e1581868481518110610e0857610e0761343a565b5b6020026020010151611b57565b80838381518110610e2957610e2861343a565b5b602002602001018181525050508080600101915050610dc4565b508091505092915050565b610e5661150e565b600073ffffffffffffffffffffffffffffffffffffffff168173ffffffffffffffffffffffffffffffffffffffff1603610ec85760006040517f1e4fbdf7000000000000000000000000000000000000000000000000000000008152600401610ebf9190612b40565b60405180910390fd5b610ed181611595565b50565b6000634906490660e01b7bffffffffffffffffffffffffffffffffffffffffffffffffffffffff1916827bffffffffffffffffffffffffffffffffffffffffffffffffffffffff19161480610f2e5750610f2d82611bc2565b5b9050919050565b60007f80bb2b638cc20bc4d0a60d66940f3ab4a00c1d7b313497ca82fb0b4ab0079300905090565b600080610f6983611ca4565b9050600073ffffffffffffffffffffffffffffffffffffffff168173ffffffffffffffffffffffffffffffffffffffff1603610fdc57826040517f7e273289000000000000000000000000000000000000000000000000000000008152600401610fd39190612bd6565b60405180910390fd5b80915050919050565b600080610ff0610f35565b905080600401600084815260200190815260200160002060009054906101000a900473ffffffffffffffffffffffffffffffffffffffff16915050919050565b600033905090565b6110458383836001611cef565b505050565b600080611055610f35565b9050600061106285611ca4565b9050600073ffffffffffffffffffffffffffffffffffffffff168473ffffffffffffffffffffffffffffffffffffffff16146110a4576110a3818587611ec3565b5b600073ffffffffffffffffffffffffffffffffffffffff168173ffffffffffffffffffffffffffffffffffffffff1614611137576110e6600086600080611cef565b60018260030160008373ffffffffffffffffffffffffffffffffffffffff1673ffffffffffffffffffffffffffffffffffffffff168152602001908152602001600020600082825403925050819055505b600073ffffffffffffffffffffffffffffffffffffffff168673ffffffffffffffffffffffffffffffffffffffff16146111bc5760018260030160008873ffffffffffffffffffffffffffffffffffffffff1673ffffffffffffffffffffffffffffffffffffffff168152602001908152602001600020600082825401925050819055505b8582600201600087815260200190815260200160002060006101000a81548173ffffffffffffffffffffffffffffffffffffffff021916908373ffffffffffffffffffffffffffffffffffffffff160217905550848673ffffffffffffffffffffffffffffffffffffffff168273ffffffffffffffffffffffffffffffffffffffff167fddf252ad1be2c89b69c2b068fc378daa952ba7f163c4a11628f55a4df523b3ef60405160405180910390a480925050509392505050565b7f000000000000000000000000000000000000000000000000000000000000000073ffffffffffffffffffffffffffffffffffffffff163073ffffffffffffffffffffffffffffffffffffffff16148061132457507f000000000000000000000000000000000000000000000000000000000000000073ffffffffffffffffffffffffffffffffffffffff1661130b611f87565b73ffffffffffffffffffffffffffffffffffffffff1614155b1561135b576040517fe07c8dba00000000000000000000000000000000000000000000000000000000815260040160405180910390fd5b565b61136561150e565b50565b8173ffffffffffffffffffffffffffffffffffffffff166352d1902d6040518163ffffffff1660e01b8152600401602060405180830381865afa9250505080156113d057506040513d601f19601f820116820180604052508101906113cd9190613495565b60015b61141157816040517f4c9c8ce30000000000000000000000000000000000000000000000000000000081526004016114089190612b40565b60405180910390fd5b7f360894a13ba1a3210667c828492db98dca3e2076cc3735a920a3ca505d382bbc60001b811461147857806040517faa1d49a400000000000000000000000000000000000000000000000000000000815260040161146f9190612dee565b60405180910390fd5b6114828383611fde565b505050565b7f000000000000000000000000000000000000000000000000000000000000000073ffffffffffffffffffffffffffffffffffffffff163073ffffffffffffffffffffffffffffffffffffffff161461150c576040517fe07c8dba00000000000000000000000000000000000000000000000000000000815260040160405180910390fd5b565b611516611030565b73ffffffffffffffffffffffffffffffffffffffff16611534610b26565b73ffffffffffffffffffffffffffffffffffffffff161461159357611557611030565b6040517f118cdaa700000000000000000000000000000000000000000000000000000000815260040161158a9190612b40565b60405180910390fd5b565b600061159f6116be565b905060008160000160009054906101000a900473ffffffffffffffffffffffffffffffffffffffff169050828260000160006101000a81548173ffffffffffffffffffffffffffffffffffffffff021916908373ffffffffffffffffffffffffffffffffffffffff1602179055508273ffffffffffffffffffffffffffffffffffffffff168173ffffffffffffffffffffffffffffffffffffffff167f8be0079c531659141344cd1fd0a4f28419497f9722a3daafe3b4186f6b6457e060405160405180910390a3505050565b600080611677612051565b90508091505090565b61168861207c565b61169282826120bc565b5050565b61169e61207c565b565b6116a861207c565b6116b1816120f9565b50565b6116bc61207c565b565b60007f9016d09d72d40fdae2fd8ceac6b6234c7706214fd39c1cd1e609a0528c199300905090565b60006116f0610f35565b9050600073ffffffffffffffffffffffffffffffffffffffff168373ffffffffffffffffffffffffffffffffffffffff160361176357826040517f5b08ba1800000000000000000000000000000000000000000000000000000000815260040161175a9190612b40565b60405180910390fd5b818160050160008673ffffffffffffffffffffffffffffffffffffffff1673ffffffffffffffffffffffffffffffffffffffff16815260200190815260200160002060008573ffffffffffffffffffffffffffffffffffffffff1673ffffffffffffffffffffffffffffffffffffffff16815260200190815260200160002060006101000a81548160ff0219169083151502179055508273ffffffffffffffffffffffffffffffffffffffff168473ffffffffffffffffffffffffffffffffffffffff167f17307eab39ab6107e8899845ad3d59bd9653f200f220920489ca2b5937696c318460405161185691906129cf565b60405180910390a350505050565b60008373ffffffffffffffffffffffffffffffffffffffff163b1115611a0e578273ffffffffffffffffffffffffffffffffffffffff1663150b7a02868685856040518563ffffffff1660e01b81526004016118c39493929190613517565b6020604051808303816000875af19250505080156118ff57506040513d601f19601f820116820180604052508101906118fc9190613578565b60015b611983573d806000811461192f576040519150601f19603f3d011682016040523d82523d6000602084013e611934565b606091505b50600081510361197b57836040517f64a0ae920000000000000000000000000000000000000000000000000000000081526004016119729190612b40565b60405180910390fd5b805160208201fd5b63150b7a0260e01b7bffffffffffffffffffffffffffffffffffffffffffffffffffffffff1916817bffffffffffffffffffffffffffffffffffffffffffffffffffffffff191614611a0c57836040517f64a0ae92000000000000000000000000000000000000000000000000000000008152600401611a039190612b40565b60405180910390fd5b505b5050505050565b60606000611a2161217f565b9050611a2c83610f5d565b5060008160000160008581526020019081526020016000208054611a4f906132b3565b80601f0160208091040260200160405190810160405280929190818152602001828054611a7b906132b3565b8015611ac85780601f10611a9d57610100808354040283529160200191611ac8565b820191906000526020600020905b815481529060010190602001808311611aab57829003601f168201915b505050505090506000611ad96121a7565b90506000815103611aef57819350505050611b34565b600082511115611b25578082604051602001611b0c9291906135e1565b6040516020818303038152906040529350505050611b34565b611b2e856121be565b93505050505b919050565b611b53828260405180602001604052806000815250612227565b5050565b6000611b6161217f565b9050818160000160008581526020019081526020016000209081611b8591906137a7565b507ff8e1a15aba9398e019f0b49df1a4fde98ee17ae345cb5f6b5e2c27f5033e8ce783604051611bb59190612bd6565b60405180910390a1505050565b60007f80ac58cd000000000000000000000000000000000000000000000000000000007bffffffffffffffffffffffffffffffffffffffffffffffffffffffff1916827bffffffffffffffffffffffffffffffffffffffffffffffffffffffff19161480611c8d57507f5b5e139f000000000000000000000000000000000000000000000000000000007bffffffffffffffffffffffffffffffffffffffffffffffffffffffff1916827bffffffffffffffffffffffffffffffffffffffffffffffffffffffff1916145b80611c9d5750611c9c8261224b565b5b9050919050565b600080611caf610f35565b905080600201600084815260200190815260200160002060009054906101000a900473ffffffffffffffffffffffffffffffffffffffff16915050919050565b6000611cf9610f35565b90508180611d345750600073ffffffffffffffffffffffffffffffffffffffff168373ffffffffffffffffffffffffffffffffffffffff1614155b15611e68576000611d4485610f5d565b9050600073ffffffffffffffffffffffffffffffffffffffff168473ffffffffffffffffffffffffffffffffffffffff1614158015611daf57508373ffffffffffffffffffffffffffffffffffffffff168173ffffffffffffffffffffffffffffffffffffffff1614155b8015611dc25750611dc08185610cc7565b155b15611e0457836040517fa9fbf51f000000000000000000000000000000000000000000000000000000008152600401611dfb9190612b40565b60405180910390fd5b8215611e6657848673ffffffffffffffffffffffffffffffffffffffff168273ffffffffffffffffffffffffffffffffffffffff167f8c5be1e5ebec7d5bd14f71427d1e84f3dd0314c0f7b2291e5b200ac8c7c3b92560405160405180910390a45b505b8481600401600086815260200190815260200160002060006101000a81548173ffffffffffffffffffffffffffffffffffffffff021916908373ffffffffffffffffffffffffffffffffffffffff1602179055505050505050565b611ece8383836122b5565b611f8257600073ffffffffffffffffffffffffffffffffffffffff168373ffffffffffffffffffffffffffffffffffffffff1603611f4357806040517f7e273289000000000000000000000000000000000000000000000000000000008152600401611f3a9190612bd6565b60405180910390fd5b81816040517f177e802f000000000000000000000000000000000000000000000000000000008152600401611f79929190613879565b60405180910390fd5b505050565b6000611fb57f360894a13ba1a3210667c828492db98dca3e2076cc3735a920a3ca505d382bbc60001b612376565b60000160009054906101000a900473ffffffffffffffffffffffffffffffffffffffff16905090565b611fe782612380565b8173ffffffffffffffffffffffffffffffffffffffff167fbc7cd75a20ee27fd9adebab32041f755214dbc6bffa90cc0225b39da2e5c2d3b60405160405180910390a26000815111156120445761203e828261244d565b5061204d565b61204c6124d1565b5b5050565b60007ff0c57e16840df040f15088dc2f81fe391c3923bec73e23a9662efc9c229c6a0060001b905090565b61208461250e565b6120ba576040517fd7e6bcf800000000000000000000000000000000000000000000000000000000815260040160405180910390fd5b565b6120c461207c565b60006120ce610f35565b9050828160000190816120e191906137a7565b50818160010190816120f391906137a7565b50505050565b61210161207c565b600073ffffffffffffffffffffffffffffffffffffffff168173ffffffffffffffffffffffffffffffffffffffff16036121735760006040517f1e4fbdf700000000000000000000000000000000000000000000000000000000815260040161216a9190612b40565b60405180910390fd5b61217c81611595565b50565b60007f0542a41881ee128a365a727b282c86fa859579490b9bb45aab8503648c8e7900905090565b606060405180602001604052806000815250905090565b60606121c982610f5d565b5060006121d46121a7565b905060008151116121f4576040518060200160405280600081525061221f565b806121fe8461252e565b60405160200161220f9291906135e1565b6040516020818303038152906040525b915050919050565b61223183836125fc565b61224661223c611030565b6000858585611864565b505050565b60007f01ffc9a7000000000000000000000000000000000000000000000000000000007bffffffffffffffffffffffffffffffffffffffffffffffffffffffff1916827bffffffffffffffffffffffffffffffffffffffffffffffffffffffff1916149050919050565b60008073ffffffffffffffffffffffffffffffffffffffff168373ffffffffffffffffffffffffffffffffffffffff161415801561236d57508273ffffffffffffffffffffffffffffffffffffffff168473ffffffffffffffffffffffffffffffffffffffff16148061232e575061232d8484610cc7565b5b8061236c57508273ffffffffffffffffffffffffffffffffffffffff1661235483610fe5565b73ffffffffffffffffffffffffffffffffffffffff16145b5b90509392505050565b6000819050919050565b60008173ffffffffffffffffffffffffffffffffffffffff163b036123dc57806040517f4c9c8ce30000000000000000000000000000000000000000000000000000000081526004016123d39190612b40565b60405180910390fd5b806124097f360894a13ba1a3210667c828492db98dca3e2076cc3735a920a3ca505d382bbc60001b612376565b60000160006101000a81548173ffffffffffffffffffffffffffffffffffffffff021916908373ffffffffffffffffffffffffffffffffffffffff16021790555050565b60606000808473ffffffffffffffffffffffffffffffffffffffff168460405161247791906138de565b600060405180830381855af49150503d80600081146124b2576040519150601f19603f3d011682016040523d82523d6000602084013e6124b7565b606091505b50915091506124c78583836126f5565b9250505092915050565b600034111561250c576040517fb398979f00000000000000000000000000000000000000000000000000000000815260040160405180910390fd5b565b600061251861166c565b60000160089054906101000a900460ff16905090565b60606000600161253d84612784565b01905060008167ffffffffffffffff81111561255c5761255b612c4e565b5b6040519080825280601f01601f19166020018201604052801561258e5781602001600182028036833780820191505090505b509050600082602083010190505b6001156125f1578080600190039150507f3031323334353637383961626364656600000000000000000000000000000000600a86061a8153600a85816125e5576125e46138f5565b5b0494506000850361259c575b819350505050919050565b600073ffffffffffffffffffffffffffffffffffffffff168273ffffffffffffffffffffffffffffffffffffffff160361266e5760006040517f64a0ae920000000000000000000000000000000000000000000000000000000081526004016126659190612b40565b60405180910390fd5b600061267c8383600061104a565b9050600073ffffffffffffffffffffffffffffffffffffffff168173ffffffffffffffffffffffffffffffffffffffff16146126f05760006040517f73c6ac6e0000000000000000000000000000000000000000000000000000000081526004016126e79190612b40565b60405180910390fd5b505050565b60608261270a57612705826128d7565b61277c565b60008251148015612732575060008473ffffffffffffffffffffffffffffffffffffffff163b145b1561277457836040517f9996b31500000000000000000000000000000000000000000000000000000000815260040161276b9190612b40565b60405180910390fd5b81905061277d565b5b9392505050565b600080600090507a184f03e93ff9f4daa797ed6e38ed64bf6a1f01000000000000000083106127e2577a184f03e93ff9f4daa797ed6e38ed64bf6a1f01000000000000000083816127d8576127d76138f5565b5b0492506040810190505b6d04ee2d6d415b85acef8100000000831061281f576d04ee2d6d415b85acef81000000008381612815576128146138f5565b5b0492506020810190505b662386f26fc10000831061284e57662386f26fc100008381612844576128436138f5565b5b0492506010810190505b6305f5e1008310612877576305f5e100838161286d5761286c6138f5565b5b0492506008810190505b612710831061289c576127108381612892576128916138f5565b5b0492506004810190505b606483106128bf57606483816128b5576128b46138f5565b5b0492506002810190505b600a83106128ce576001810190505b80915050919050565b6000815111156128e957805160208201fd5b6040517fd6bda27500000000000000000000000000000000000000000000000000000000815260040160405180910390fd5b6000604051905090565b600080fd5b600080fd5b60007fffffffff0000000000000000000000000000000000000000000000000000000082169050919050565b6129648161292f565b811461296f57600080fd5b50565b6000813590506129818161295b565b92915050565b60006020828403121561299d5761299c612925565b5b60006129ab84828501612972565b91505092915050565b60008115159050919050565b6129c9816129b4565b82525050565b60006020820190506129e460008301846129c0565b92915050565b600081519050919050565b600082825260208201905092915050565b60005b83811015612a24578082015181840152602081019050612a09565b60008484015250505050565b6000601f19601f8301169050919050565b6000612a4c826129ea565b612a5681856129f5565b9350612a66818560208601612a06565b612a6f81612a30565b840191505092915050565b60006020820190508181036000830152612a948184612a41565b905092915050565b6000819050919050565b612aaf81612a9c565b8114612aba57600080fd5b50565b600081359050612acc81612aa6565b92915050565b600060208284031215612ae857612ae7612925565b5b6000612af684828501612abd565b91505092915050565b600073ffffffffffffffffffffffffffffffffffffffff82169050919050565b6000612b2a82612aff565b9050919050565b612b3a81612b1f565b82525050565b6000602082019050612b556000830184612b31565b92915050565b612b6481612b1f565b8114612b6f57600080fd5b50565b600081359050612b8181612b5b565b92915050565b60008060408385031215612b9e57612b9d612925565b5b6000612bac85828601612b72565b9250506020612bbd85828601612abd565b9150509250929050565b612bd081612a9c565b82525050565b6000602082019050612beb6000830184612bc7565b92915050565b600080600060608486031215612c0a57612c09612925565b5b6000612c1886828701612b72565b9350506020612c2986828701612b72565b9250506040612c3a86828701612abd565b9150509250925092565b600080fd5b600080fd5b7f4e487b7100000000000000000000000000000000000000000000000000000000600052604160045260246000fd5b612c8682612a30565b810181811067ffffffffffffffff82111715612ca557612ca4612c4e565b5b80604052505050565b6000612cb861291b565b9050612cc48282612c7d565b919050565b600067ffffffffffffffff821115612ce457612ce3612c4e565b5b612ced82612a30565b9050602081019050919050565b82818337600083830152505050565b6000612d1c612d1784612cc9565b612cae565b905082815260208101848484011115612d3857612d37612c49565b5b612d43848285612cfa565b509392505050565b600082601f830112612d6057612d5f612c44565b5b8135612d70848260208601612d09565b91505092915050565b60008060408385031215612d9057612d8f612925565b5b6000612d9e85828601612b72565b925050602083013567ffffffffffffffff811115612dbf57612dbe61292a565b5b612dcb85828601612d4b565b9150509250929050565b6000819050919050565b612de881612dd5565b82525050565b6000602082019050612e036000830184612ddf565b92915050565b600060208284031215612e1f57612e1e612925565b5b6000612e2d84828501612b72565b91505092915050565b612e3f816129b4565b8114612e4a57600080fd5b50565b600081359050612e5c81612e36565b92915050565b60008060408385031215612e7957612e78612925565b5b6000612e8785828601612b72565b9250506020612e9885828601612e4d565b9150509250929050565b60008060008060808587031215612ebc57612ebb612925565b5b6000612eca87828801612b72565b9450506020612edb87828801612b72565b9350506040612eec87828801612abd565b925050606085013567ffffffffffffffff811115612f0d57612f0c61292a565b5b612f1987828801612d4b565b91505092959194509250565b600067ffffffffffffffff821115612f4057612f3f612c4e565b5b612f4982612a30565b9050602081019050919050565b6000612f69612f6484612f25565b612cae565b905082815260208101848484011115612f8557612f84612c49565b5b612f90848285612cfa565b509392505050565b600082601f830112612fad57612fac612c44565b5b8135612fbd848260208601612f56565b91505092915050565b60008060408385031215612fdd57612fdc612925565b5b6000612feb85828601612b72565b925050602083013567ffffffffffffffff81111561300c5761300b61292a565b5b61301885828601612f98565b9150509250929050565b6000806040838503121561303957613038612925565b5b600061304785828601612b72565b925050602061305885828601612b72565b9150509250929050565b600067ffffffffffffffff82111561307d5761307c612c4e565b5b602082029050602081019050919050565b600080fd5b60006130a66130a184613062565b612cae565b905080838252602082019050602084028301858111156130c9576130c861308e565b5b835b8181101561311057803567ffffffffffffffff8111156130ee576130ed612c44565b5b8086016130fb8982612f98565b855260208501945050506020810190506130cb565b5050509392505050565b600082601f83011261312f5761312e612c44565b5b813561313f848260208601613093565b91505092915050565b6000806040838503121561315f5761315e612925565b5b600061316d85828601612b72565b925050602083013567ffffffffffffffff81111561318e5761318d61292a565b5b61319a8582860161311a565b9150509250929050565b600081519050919050565b600082825260208201905092915050565b6000819050602082019050919050565b6131d981612a9c565b82525050565b60006131eb83836131d0565b60208301905092915050565b6000602082019050919050565b600061320f826131a4565b61321981856131af565b9350613224836131c0565b8060005b8381101561325557815161323c88826131df565b9750613247836131f7565b925050600181019050613228565b5085935050505092915050565b6000602082019050818103600083015261327c8184613204565b905092915050565b7f4e487b7100000000000000000000000000000000000000000000000000000000600052602260045260246000fd5b600060028204905060018216806132cb57607f821691505b6020821081036132de576132dd613284565b5b50919050565b7f4e487b7100000000000000000000000000000000000000000000000000000000600052601160045260246000fd5b600061331e82612a9c565b915061332983612a9c565b9250828203905081811115613341576133406132e4565b5b92915050565b600060608201905061335c6000830186612b31565b6133696020830185612bc7565b6133766040830184612b31565b949350505050565b6000819050919050565b600067ffffffffffffffff82169050919050565b6000819050919050565b60006133c16133bc6133b78461337e565b61339c565b613388565b9050919050565b6133d1816133a6565b82525050565b60006020820190506133ec60008301846133c8565b92915050565b60006133fd82612a9c565b91507fffffffffffffffffffffffffffffffffffffffffffffffffffffffffffffffff820361342f5761342e6132e4565b5b600182019050919050565b7f4e487b7100000000000000000000000000000000000000000000000000000000600052603260045260246000fd5b61347281612dd5565b811461347d57600080fd5b50565b60008151905061348f81613469565b92915050565b6000602082840312156134ab576134aa612925565b5b60006134b984828501613480565b91505092915050565b600081519050919050565b600082825260208201905092915050565b60006134e9826134c2565b6134f381856134cd565b9350613503818560208601612a06565b61350c81612a30565b840191505092915050565b600060808201905061352c6000830187612b31565b6135396020830186612b31565b6135466040830185612bc7565b818103606083015261355881846134de565b905095945050505050565b6000815190506135728161295b565b92915050565b60006020828403121561358e5761358d612925565b5b600061359c84828501613563565b91505092915050565b600081905092915050565b60006135bb826129ea565b6135c581856135a5565b93506135d5818560208601612a06565b80840191505092915050565b60006135ed82856135b0565b91506135f982846135b0565b91508190509392505050565b60008190508160005260206000209050919050565b60006020601f8301049050919050565b600082821b905092915050565b6000600883026136677fffffffffffffffffffffffffffffffffffffffffffffffffffffffffffffffff8261362a565b613671868361362a565b95508019841693508086168417925050509392505050565b60006136a461369f61369a84612a9c565b61339c565b612a9c565b9050919050565b6000819050919050565b6136be83613689565b6136d26136ca826136ab565b848454613637565b825550505050565b600090565b6136e76136da565b6136f28184846136b5565b505050565b5b818110156137165761370b6000826136df565b6001810190506136f8565b5050565b601f82111561375b5761372c81613605565b6137358461361a565b81016020851015613744578190505b6137586137508561361a565b8301826136f7565b50505b505050565b600082821c905092915050565b600061377e60001984600802613760565b1980831691505092915050565b6000613797838361376d565b9150826002028217905092915050565b6137b0826129ea565b67ffffffffffffffff8111156137c9576137c8612c4e565b5b6137d382546132b3565b6137de82828561371a565b600060209050601f83116001811461381157600084156137ff578287015190505b613809858261378b565b865550613871565b601f19841661381f86613605565b60005b8281101561384757848901518255600182019150602085019450602081019050613822565b868310156138645784890151613860601f89168261376d565b8355505b6001600288020188555050505b505050505050565b600060408201905061388e6000830185612b31565b61389b6020830184612bc7565b9392505050565b600081905092915050565b60006138b8826134c2565b6138c281856138a2565b93506138d2818560208601612a06565b80840191505092915050565b60006138ea82846138ad565b915081905092915050565b7f4e487b7100000000000000000000000000000000000000000000000000000000600052601260045260246000fdfea26469706673582212205e6499847ab0d5b0581ed3469b92717e6dcc8fd243028cbbc3021ef75dbc2d8b64736f6c634300081c0033",
  "linkReferences": {},
  "deployedLinkReferences": {}
}