{
  "_format": "hh-sol-artifact-1",
  "contractName": "CrownNFTSimple",
  "sourceName": "contracts/CrownNFTSimple.sol",
  "abi": [
    {
      "inputs": [],
      "stateMutability": "nonpayable",
      "type": "constructor"
    },
    {
      "inputs": [
        {
          "internalType": "address",
          "name": "sender",
          "type": "address"
        },
        {
          "internalType": "uint256",
          "name": "tokenId",
          "type": "uint256"
        },
        {
          "internalType": "address",
          "name": "owner",
          "type": "address"
        }
      ],
      "name": "ERC721IncorrectOwner",
      "type": "error"
    },
    {
      "inputs": [
        {
          "internalType": "address",
          "name": "operator",
          "type": "address"
        },
        {
          "internalType": "uint256",
          "name": "tokenId",
          "type": "uint256"
        }
      ],
      "name": "ERC721InsufficientApproval",
      "type": "error"
    },
    {
      "inputs": [
        {
          "internalType": "address",
          "name": "approver",
          "type": "address"
        }
      ],
      "name": "ERC721InvalidApprover",
      "type": "error"
    },
    {
      "inputs": [
        {
          "internalType": "address",
          "name": "operator",
          "type": "address"
        }
      ],
      "name": "ERC721InvalidOperator",
      "type": "error"
    },
    {
      "inputs": [
        {
          "internalType": "address",
          "name": "owner",
          "type": "address"
        }
      ],
      "name": "ERC721InvalidOwner",
      "type": "error"
    },
    {
      "inputs": [
        {
          "internalType": "address",
          "name": "receiver",
          "type": "address"
        }
      ],
      "name": "ERC721InvalidReceiver",
      "type": "error"
    },
    {
      "inputs": [
        {
          "internalType": "address",
          "name": "sender",
          "type": "address"
        }
      ],
      "name": "ERC721InvalidSender",
      "type": "error"
    },
    {
      "inputs": [
        {
          "internalType": "uint256",
          "name": "tokenId",
          "type": "uint256"
        }
      ],
      "name": "ERC721NonexistentToken",
      "type": "error"
    },
    {
      "inputs": [
        {
          "internalType": "address",
          "name": "owner",
          "type": "address"
        }
      ],
      "name": "OwnableInvalidOwner",
      "type": "error"
    },
    {
      "inputs": [
        {
          "internalType": "address",
          "name": "account",
          "type": "address"
        }
      ],
      "name": "OwnableUnauthorizedAccount",
      "type": "error"
    },
    {
      "anonymous": false,
      "inputs": [
        {
          "indexed": true,
          "internalType": "address",
          "name": "owner",
          "type": "address"
        },
        {
          "indexed": true,
          "internalType": "address",
          "name": "approved",
          "type": "address"
        },
        {
          "indexed": true,
          "internalType": "uint256",
          "name": "tokenId",
          "type": "uint256"
        }
      ],
      "name": "Approval",
      "type": "event"
    },
    {
      "anonymous": false,
      "inputs": [
        {
          "indexed": true,
          "internalType": "address",
          "name": "owner",
          "type": "address"
        },
        {
          "indexed": true,
          "internalType": "address",
          "name": "operator",
          "type": "address"
        },
        {
          "indexed": false,
          "internalType": "bool",
          "name": "approved",
          "type": "bool"
        }
      ],
      "name": "ApprovalForAll",
      "type": "event"
    },
    {
      "anonymous": false,
      "inputs": [
        {
          "indexed": false,
          "internalType": "uint256",
          "name": "_fromTokenId",
          "type": "uint256"
        },
        {
          "indexed": false,
          "internalType": "uint256",
          "name": "_toTokenId",
          "type": "uint256"
        }
      ],
      "name": "BatchMetadataUpdate",
      "type": "event"
    },
    {
      "anonymous": false,
      "inputs": [
        {
          "indexed": false,
          "internalType": "uint256",
          "name": "_tokenId",
          "type": "uint256"
        }
      ],
      "name": "MetadataUpdate",
      "type": "event"
    },
    {
      "anonymous": false,
      "inputs": [
        {
          "indexed": true,
          "internalType": "address",
          "name": "previousOwner",
          "type": "address"
        },
        {
          "indexed": true,
          "internalType": "address",
          "name": "newOwner",
          "type": "address"
        }
      ],
      "name": "OwnershipTransferred",
      "type": "event"
    },
    {
      "anonymous": false,
      "inputs": [
        {
          "indexed": true,
          "internalType": "address",
          "name": "from",
          "type": "address"
        },
        {
          "indexed": true,
          "internalType": "address",
          "name": "to",
          "type": "address"
        },
        {
          "indexed": true,
          "internalType": "uint256",
          "name": "tokenId",
          "type": "uint256"
        }
      ],
      "name": "Transfer",
      "type": "event"
    },
    {
      "inputs": [
        {
          "internalType": "address",
          "name": "to",
          "type": "address"
        },
        {
          "internalType": "uint256",
          "name": "tokenId",
          "type": "uint256"
        }
      ],
      "name": "approve",
      "outputs": [],
      "stateMutability": "nonpayable",
      "type": "function"
    },
    {
      "inputs": [
        {
          "internalType": "address",
          "name": "owner",
          "type": "address"
        }
      ],
      "name": "balanceOf",
      "outputs": [
        {
          "internalType": "uint256",
          "name": "",
          "type": "uint256"
        }
      ],
      "stateMutability": "view",
      "type": "function"
    },
    {
      "inputs": [
        {
          "internalType": "uint256",
          "name": "tokenId",
          "type": "uint256"
        }
      ],
      "name": "getApproved",
      "outputs": [
        {
          "internalType": "address",
          "name": "",
          "type": "address"
        }
      ],
      "stateMutability": "view",
      "type": "function"
    },
    {
      "inputs": [
        {
          "internalType": "address",
          "name": "owner",
          "type": "address"
        },
        {
          "internalType": "address",
          "name": "operator",
          "type": "address"
        }
      ],
      "name": "isApprovedForAll",
      "outputs": [
        {
          "internalType": "bool",
          "name": "",
          "type": "bool"
        }
      ],
      "stateMutability": "view",
      "type": "function"
    },
    {
      "inputs": [
        {
          "internalType": "address",
          "name": "from",
          "type": "address"
        },
        {
          "internalType": "address",
          "name": "to",
          "type": "address"
        },
        {
          "internalType": "uint256",
          "name": "tokenId",
          "type": "uint256"
        }
      ],
      "name": "marketplaceTransfer",
      "outputs": [],
      "stateMutability": "nonpayable",
      "type": "function"
    },
    {
      "inputs": [
        {
          "internalType": "address",
          "name": "to",
          "type": "address"
        },
        {
          "internalType": "string",
          "name": "uri",
          "type": "string"
        }
      ],
      "name": "mint",
      "outputs": [
        {
          "internalType": "uint256",
          "name": "",
          "type": "uint256"
        }
      ],
      "stateMutability": "nonpayable",
      "type": "function"
    },
    {
      "inputs": [
        {
          "internalType": "address",
          "name": "to",
          "type": "address"
        },
        {
          "internalType": "string[]",
          "name": "uris",
          "type": "string[]"
        }
      ],
      "name": "mintBatch",
      "outputs": [
        {
          "internalType": "uint256[]",
          "name": "",
          "type": "uint256[]"
        }
      ],
      "stateMutability": "nonpayable",
      "type": "function"
    },
    {
      "inputs": [],
      "name": "name",
      "outputs": [
        {
          "internalType": "string",
          "name": "",
          "type": "string"
        }
      ],
      "stateMutability": "view",
      "type": "function"
    },
    {
      "inputs": [],
      "name": "nextTokenId",
      "outputs": [
        {
          "internalType": "uint256",
          "name": "",
          "type": "uint256"
        }
      ],
      "stateMutability": "view",
      "type": "function"
    },
    {
      "inputs": [],
      "name": "owner",
      "outputs": [
        {
          "internalType": "address",
          "name": "",
          "type": "address"
        }
      ],
      "stateMutability": "view",
      "type": "function"
    },
    {
      "inputs": [
        {
          "internalType": "uint256",
          "name": "tokenId",
          "type": "uint256"
        }
      ],
      "name": "ownerOf",
      "outputs": [
        {
          "internalType": "address",
          "name": "",
          "type": "address"
        }
      ],
      "stateMutability": "view",
      "type": "function"
    },
    {
      "inputs": [],
      "name": "renounceOwnership",
      "outputs": [],
      "stateMutability": "nonpayable",
      "type": "function"
    },
    {
      "inputs": [
        {
          "internalType": "address",
          "name": "from",
          "type": "address"
        },
        {
          "internalType": "address",
          "name": "to",
          "type": "address"
        },
        {
          "internalType": "uint256",
          "name": "tokenId",
          "type": "uint256"
        }
      ],
      "name": "safeTransferFrom",
      "outputs": [],
      "stateMutability": "nonpayable",
      "type": "function"
    },
    {
      "inputs": [
        {
          "internalType": "address",
          "name": "from",
          "type": "address"
        },
        {
          "internalType": "address",
          "name": "to",
          "type": "address"
        },
        {
          "internalType": "uint256",
          "name": "tokenId",
          "type": "uint256"
        },
        {
          "internalType": "bytes",
          "name": "data",
          "type": "bytes"
        }
      ],
      "name": "safeTransferFrom",
      "outputs": [],
      "stateMutability": "nonpayable",
      "type": "function"
    },
    {
      "inputs": [
        {
          "internalType": "address",
          "name": "operator",
          "type": "address"
        },
        {
          "internalType": "bool",
          "name": "approved",
          "type": "bool"
        }
      ],
      "name": "setApprovalForAll",
      "outputs": [],
      "stateMutability": "nonpayable",
      "type": "function"
    },
    {
      "inputs": [
        {
          "internalType": "bytes4",
          "name": "interfaceId",
          "type": "bytes4"
        }
      ],
      "name": "supportsInterface",
      "outputs": [
        {
          "internalType": "bool",
          "name": "",
          "type": "bool"
        }
      ],
      "stateMutability": "view",
      "type": "function"
    },
    {
      "inputs": [],
      "name": "symbol",
      "outputs": [
        {
          "internalType": "string",
          "name": "",
          "type": "string"
        }
      ],
      "stateMutability": "view",
      "type": "function"
    },
    {
      "inputs": [
        {
          "internalType": "uint256",
          "name": "tokenId",
          "type": "uint256"
        }
      ],
      "name": "tokenURI",
      "outputs": [
        {
          "internalType": "string",
          "name": "",
          "type": "string"
        }
      ],
      "stateMutability": "view",
      "type": "function"
    },
    {
      "inputs": [],
      "name": "totalSupply",
      "outputs": [
        {
          "internalType": "uint256",
          "name": "",
          "type": "uint256"
        }
      ],
      "stateMutability": "view",
      "type": "function"
    },
    {
      "inputs": [
        {
          "internalType": "address",
          "name": "from",
          "type": "address"
        },
        {
          "internalType": "address",
          "name": "to",
          "type": "address"
        },
        {
          "internalType": "uint256",
          "name": "tokenId",
          "type": "uint256"
        }
      ],
      "name": "transferFrom",
      "outputs": [],
      "stateMutability": "nonpayable",
      "type": "function"
    },
    {
      "inputs": [
        {
          "internalType": "address",
          "name": "newOwner",
          "type": "address"
        }
      ],
      "name": "transferOwnership",
      "outputs": [],
      "stateMutability": "nonpayable",
      "type": "function"
    }
  ],
  "bytecode": "0x608060405234801561001057600080fd5b50336040518060400160405280600981526020017f43726f776e204e465400000000000000000000000000000000000000000000008152506040518060400160405280600581526020017f43524f574e000000000000000000000000000000000000000000000000000000815250816000908161008d9190610445565b50806001908161009d9190610445565b505050600073ffffffffffffffffffffffffffffffffffffffff168173ffffffffffffffffffffffffffffffffffffffff16036101125760006040517f1e4fbdf70000000000000000000000000000000000000000000000000000000081526004016101099190610558565b60405180910390fd5b6101218161012f60201b60201c565b506001600881905550610573565b6000600760009054906101000a900473ffffffffffffffffffffffffffffffffffffffff16905081600760006101000a81548173ffffffffffffffffffffffffffffffffffffffff021916908373ffffffffffffffffffffffffffffffffffffffff1602179055508173ffffffffffffffffffffffffffffffffffffffff168173ffffffffffffffffffffffffffffffffffffffff167f8be0079c531659141344cd1fd0a4f28419497f9722a3daafe3b4186f6b6457e060405160405180910390a35050565b600081519050919050565b7f4e487b7100000000000000000000000000000000000000000000000000000000600052604160045260246000fd5b7f4e487b7100000000000000000000000000000000000000000000000000000000600052602260045260246000fd5b6000600282049050600182168061027657607f821691505b6020821081036102895761028861022f565b5b50919050565b60008190508160005260206000209050919050565b60006020601f8301049050919050565b600082821b905092915050565b6000600883026102f17fffffffffffffffffffffffffffffffffffffffffffffffffffffffffffffffff826102b4565b6102fb86836102b4565b95508019841693508086168417925050509392505050565b6000819050919050565b6000819050919050565b600061034261033d61033884610313565b61031d565b610313565b9050919050565b6000819050919050565b61035c83610327565b61037061036882610349565b8484546102c1565b825550505050565b600090565b610385610378565b610390818484610353565b505050565b5b818110156103b4576103a960008261037d565b600181019050610396565b5050565b601f8211156103f9576103ca8161028f565b6103d3846102a4565b810160208510156103e2578190505b6103f66103ee856102a4565b830182610395565b50505b505050565b600082821c905092915050565b600061041c600019846008026103fe565b1980831691505092915050565b6000610435838361040b565b9150826002028217905092915050565b61044e826101f5565b67ffffffffffffffff81111561046757610466610200565b5b610471825461025e565b61047c8282856103b8565b600060209050601f8311600181146104af576000841561049d578287015190505b6104a78582610429565b86555061050f565b601f1984166104bd8661028f565b60005b828110156104e5578489015182556001820191506020850194506020810190506104c0565b8683101561050257848901516104fe601f89168261040b565b8355505b6001600288020188555050505b505050505050565b600073ffffffffffffffffffffffffffffffffffffffff82169050919050565b600061054282610517565b9050919050565b61055281610537565b82525050565b600060208201905061056d6000830184610549565b92915050565b612e24806105826000396000f3fe608060405234801561001057600080fd5b50600436106101375760003560e01c8063715018a6116100b8578063b88d4fde1161007c578063b88d4fde14610328578063c87b56dd14610344578063d0def52114610374578063e985e9c5146103a4578063ed0e31de146103d4578063f2fde38b1461040457610137565b8063715018a6146102a857806375794a3c146102b25780638da5cb5b146102d057806395d89b41146102ee578063a22cb4651461030c57610137565b80632139556b116100ff5780632139556b146101f457806323b872dd1461021057806342842e0e1461022c5780636352211e1461024857806370a082311461027857610137565b806301ffc9a71461013c57806306fdde031461016c578063081812fc1461018a578063095ea7b3146101ba57806318160ddd146101d6575b600080fd5b61015660048036038101906101519190611f1f565b610420565b6040516101639190611f67565b60405180910390f35b610174610432565b6040516101819190612012565b60405180910390f35b6101a4600480360381019061019f919061206a565b6104c4565b6040516101b191906120d8565b60405180910390f35b6101d460048036038101906101cf919061211f565b6104e0565b005b6101de6104f6565b6040516101eb919061216e565b60405180910390f35b61020e60048036038101906102099190612189565b61050c565b005b61022a60048036038101906102259190612189565b610609565b005b61024660048036038101906102419190612189565b61070b565b005b610262600480360381019061025d919061206a565b61072b565b60405161026f91906120d8565b60405180910390f35b610292600480360381019061028d91906121dc565b61073d565b60405161029f919061216e565b60405180910390f35b6102b06107f7565b005b6102ba61080b565b6040516102c7919061216e565b60405180910390f35b6102d8610815565b6040516102e591906120d8565b60405180910390f35b6102f661083f565b6040516103039190612012565b60405180910390f35b61032660048036038101906103219190612235565b6108d1565b005b610342600480360381019061033d91906123aa565b6108e7565b005b61035e6004803603810190610359919061206a565b61090c565b60405161036b9190612012565b60405180910390f35b61038e600480360381019061038991906124ce565b61091e565b60405161039b919061216e565b60405180910390f35b6103be60048036038101906103b9919061252a565b610961565b6040516103cb9190611f67565b60405180910390f35b6103ee60048036038101906103e99190612650565b6109f5565b6040516103fb919061276a565b60405180910390f35b61041e600480360381019061041991906121dc565b610adb565b005b600061042b82610b61565b9050919050565b606060008054610441906127bb565b80601f016020809104026020016040519081016040528092919081815260200182805461046d906127bb565b80156104ba5780601f1061048f576101008083540402835291602001916104ba565b820191906000526020600020905b81548152906001019060200180831161049d57829003601f168201915b5050505050905090565b60006104cf82610bc2565b506104d982610c4a565b9050919050565b6104f282826104ed610c87565b610c8f565b5050565b60006001600854610507919061281b565b905090565b610514610ca1565b8273ffffffffffffffffffffffffffffffffffffffff166105348261072b565b73ffffffffffffffffffffffffffffffffffffffff161461058a576040517f08c379a00000000000000000000000000000000000000000000000000000000081526004016105819061289b565b60405180910390fd5b600073ffffffffffffffffffffffffffffffffffffffff168273ffffffffffffffffffffffffffffffffffffffff16036105f9576040517f08c379a00000000000000000000000000000000000000000000000000000000081526004016105f090612907565b60405180910390fd5b610604838383610d28565b505050565b600073ffffffffffffffffffffffffffffffffffffffff168273ffffffffffffffffffffffffffffffffffffffff160361067b5760006040517f64a0ae9200000000000000000000000000000000000000000000000000000000815260040161067291906120d8565b60405180910390fd5b600061068f838361068a610c87565b610e95565b90508373ffffffffffffffffffffffffffffffffffffffff168173ffffffffffffffffffffffffffffffffffffffff1614610705578382826040517f64283d7b0000000000000000000000000000000000000000000000000000000081526004016106fc93929190612927565b60405180910390fd5b50505050565b610726838383604051806020016040528060008152506108e7565b505050565b600061073682610bc2565b9050919050565b60008073ffffffffffffffffffffffffffffffffffffffff168273ffffffffffffffffffffffffffffffffffffffff16036107b05760006040517f89c62b640000000000000000000000000000000000000000000000000000000081526004016107a791906120d8565b60405180910390fd5b600360008373ffffffffffffffffffffffffffffffffffffffff1673ffffffffffffffffffffffffffffffffffffffff168152602001908152602001600020549050919050565b6107ff610ca1565b61080960006110af565b565b6000600854905090565b6000600760009054906101000a900473ffffffffffffffffffffffffffffffffffffffff16905090565b60606001805461084e906127bb565b80601f016020809104026020016040519081016040528092919081815260200182805461087a906127bb565b80156108c75780601f1061089c576101008083540402835291602001916108c7565b820191906000526020600020905b8154815290600101906020018083116108aa57829003601f168201915b5050505050905090565b6108e36108dc610c87565b8383611175565b5050565b6108f2848484610609565b6109066108fd610c87565b858585856112e4565b50505050565b606061091782611495565b9050919050565b6000610928610ca1565b60006008600081548092919061093d9061295e565b91905055905061094d84826115a8565b61095781846115c6565b8091505092915050565b6000600560008473ffffffffffffffffffffffffffffffffffffffff1673ffffffffffffffffffffffffffffffffffffffff16815260200190815260200160002060008373ffffffffffffffffffffffffffffffffffffffff1673ffffffffffffffffffffffffffffffffffffffff16815260200190815260200160002060009054906101000a900460ff16905092915050565b60606109ff610ca1565b6000825167ffffffffffffffff811115610a1c57610a1b61227f565b5b604051908082528060200260200182016040528015610a4a5781602001602082028036833780820191505090505b50905060005b8351811015610ad057600060086000815480929190610a6e9061295e565b919050559050610a7e86826115a8565b610aa281868481518110610a9557610a946129a6565b5b60200260200101516115c6565b80838381518110610ab657610ab56129a6565b5b602002602001018181525050508080600101915050610a50565b508091505092915050565b610ae3610ca1565b600073ffffffffffffffffffffffffffffffffffffffff168173ffffffffffffffffffffffffffffffffffffffff1603610b555760006040517f1e4fbdf7000000000000000000000000000000000000000000000000000000008152600401610b4c91906120d8565b60405180910390fd5b610b5e816110af565b50565b6000634906490660e01b7bffffffffffffffffffffffffffffffffffffffffffffffffffffffff1916827bffffffffffffffffffffffffffffffffffffffffffffffffffffffff19161480610bbb5750610bba82611622565b5b9050919050565b600080610bce83611704565b9050600073ffffffffffffffffffffffffffffffffffffffff168173ffffffffffffffffffffffffffffffffffffffff1603610c4157826040517f7e273289000000000000000000000000000000000000000000000000000000008152600401610c38919061216e565b60405180910390fd5b80915050919050565b60006004600083815260200190815260200160002060009054906101000a900473ffffffffffffffffffffffffffffffffffffffff169050919050565b600033905090565b610c9c8383836001611741565b505050565b610ca9610c87565b73ffffffffffffffffffffffffffffffffffffffff16610cc7610815565b73ffffffffffffffffffffffffffffffffffffffff1614610d2657610cea610c87565b6040517f118cdaa7000000000000000000000000000000000000000000000000000000008152600401610d1d91906120d8565b60405180910390fd5b565b600073ffffffffffffffffffffffffffffffffffffffff168273ffffffffffffffffffffffffffffffffffffffff1603610d9a5760006040517f64a0ae92000000000000000000000000000000000000000000000000000000008152600401610d9191906120d8565b60405180910390fd5b6000610da883836000610e95565b9050600073ffffffffffffffffffffffffffffffffffffffff168173ffffffffffffffffffffffffffffffffffffffff1603610e1b57816040517f7e273289000000000000000000000000000000000000000000000000000000008152600401610e12919061216e565b60405180910390fd5b8373ffffffffffffffffffffffffffffffffffffffff168173ffffffffffffffffffffffffffffffffffffffff1614610e8f578382826040517f64283d7b000000000000000000000000000000000000000000000000000000008152600401610e8693929190612927565b60405180910390fd5b50505050565b600080610ea184611704565b9050600073ffffffffffffffffffffffffffffffffffffffff168373ffffffffffffffffffffffffffffffffffffffff1614610ee357610ee2818486611906565b5b600073ffffffffffffffffffffffffffffffffffffffff168173ffffffffffffffffffffffffffffffffffffffff1614610f7457610f25600085600080611741565b6001600360008373ffffffffffffffffffffffffffffffffffffffff1673ffffffffffffffffffffffffffffffffffffffff168152602001908152602001600020600082825403925050819055505b600073ffffffffffffffffffffffffffffffffffffffff168573ffffffffffffffffffffffffffffffffffffffff1614610ff7576001600360008773ffffffffffffffffffffffffffffffffffffffff1673ffffffffffffffffffffffffffffffffffffffff168152602001908152602001600020600082825401925050819055505b846002600086815260200190815260200160002060006101000a81548173ffffffffffffffffffffffffffffffffffffffff021916908373ffffffffffffffffffffffffffffffffffffffff160217905550838573ffffffffffffffffffffffffffffffffffffffff168273ffffffffffffffffffffffffffffffffffffffff167fddf252ad1be2c89b69c2b068fc378daa952ba7f163c4a11628f55a4df523b3ef60405160405180910390a4809150509392505050565b6000600760009054906101000a900473ffffffffffffffffffffffffffffffffffffffff16905081600760006101000a81548173ffffffffffffffffffffffffffffffffffffffff021916908373ffffffffffffffffffffffffffffffffffffffff1602179055508173ffffffffffffffffffffffffffffffffffffffff168173ffffffffffffffffffffffffffffffffffffffff167f8be0079c531659141344cd1fd0a4f28419497f9722a3daafe3b4186f6b6457e060405160405180910390a35050565b600073ffffffffffffffffffffffffffffffffffffffff168273ffffffffffffffffffffffffffffffffffffffff16036111e657816040517f5b08ba180000000000000000000000000000000000000000000000000000000081526004016111dd91906120d8565b60405180910390fd5b80600560008573ffffffffffffffffffffffffffffffffffffffff1673ffffffffffffffffffffffffffffffffffffffff16815260200190815260200160002060008473ffffffffffffffffffffffffffffffffffffffff1673ffffffffffffffffffffffffffffffffffffffff16815260200190815260200160002060006101000a81548160ff0219169083151502179055508173ffffffffffffffffffffffffffffffffffffffff168373ffffffffffffffffffffffffffffffffffffffff167f17307eab39ab6107e8899845ad3d59bd9653f200f220920489ca2b5937696c31836040516112d79190611f67565b60405180910390a3505050565b60008373ffffffffffffffffffffffffffffffffffffffff163b111561148e578273ffffffffffffffffffffffffffffffffffffffff1663150b7a02868685856040518563ffffffff1660e01b81526004016113439493929190612a2a565b6020604051808303816000875af192505050801561137f57506040513d601f19601f8201168201806040525081019061137c9190612a8b565b60015b611403573d80600081146113af576040519150601f19603f3d011682016040523d82523d6000602084013e6113b4565b606091505b5060008151036113fb57836040517f64a0ae920000000000000000000000000000000000000000000000000000000081526004016113f291906120d8565b60405180910390fd5b805160208201fd5b63150b7a0260e01b7bffffffffffffffffffffffffffffffffffffffffffffffffffffffff1916817bffffffffffffffffffffffffffffffffffffffffffffffffffffffff19161461148c57836040517f64a0ae9200000000000000000000000000000000000000000000000000000000815260040161148391906120d8565b60405180910390fd5b505b5050505050565b60606114a082610bc2565b5060006006600084815260200190815260200160002080546114c1906127bb565b80601f01602080910402602001604051908101604052809291908181526020018280546114ed906127bb565b801561153a5780601f1061150f5761010080835404028352916020019161153a565b820191906000526020600020905b81548152906001019060200180831161151d57829003601f168201915b50505050509050600061154b6119ca565b905060008151036115605781925050506115a3565b60008251111561159557808260405160200161157d929190612af4565b604051602081830303815290604052925050506115a3565b61159e846119e1565b925050505b919050565b6115c2828260405180602001604052806000815250611a4a565b5050565b806006600084815260200190815260200160002090816115e69190612cc4565b507ff8e1a15aba9398e019f0b49df1a4fde98ee17ae345cb5f6b5e2c27f5033e8ce782604051611616919061216e565b60405180910390a15050565b60007f80ac58cd000000000000000000000000000000000000000000000000000000007bffffffffffffffffffffffffffffffffffffffffffffffffffffffff1916827bffffffffffffffffffffffffffffffffffffffffffffffffffffffff191614806116ed57507f5b5e139f000000000000000000000000000000000000000000000000000000007bffffffffffffffffffffffffffffffffffffffffffffffffffffffff1916827bffffffffffffffffffffffffffffffffffffffffffffffffffffffff1916145b806116fd57506116fc82611a6e565b5b9050919050565b60006002600083815260200190815260200160002060009054906101000a900473ffffffffffffffffffffffffffffffffffffffff169050919050565b808061177a5750600073ffffffffffffffffffffffffffffffffffffffff168273ffffffffffffffffffffffffffffffffffffffff1614155b156118ae57600061178a84610bc2565b9050600073ffffffffffffffffffffffffffffffffffffffff168373ffffffffffffffffffffffffffffffffffffffff16141580156117f557508273ffffffffffffffffffffffffffffffffffffffff168173ffffffffffffffffffffffffffffffffffffffff1614155b801561180857506118068184610961565b155b1561184a57826040517fa9fbf51f00000000000000000000000000000000000000000000000000000000815260040161184191906120d8565b60405180910390fd5b81156118ac57838573ffffffffffffffffffffffffffffffffffffffff168273ffffffffffffffffffffffffffffffffffffffff167f8c5be1e5ebec7d5bd14f71427d1e84f3dd0314c0f7b2291e5b200ac8c7c3b92560405160405180910390a45b505b836004600085815260200190815260200160002060006101000a81548173ffffffffffffffffffffffffffffffffffffffff021916908373ffffffffffffffffffffffffffffffffffffffff16021790555050505050565b611911838383611ad8565b6119c557600073ffffffffffffffffffffffffffffffffffffffff168373ffffffffffffffffffffffffffffffffffffffff160361198657806040517f7e27328900000000000000000000000000000000000000000000000000000000815260040161197d919061216e565b60405180910390fd5b81816040517f177e802f0000000000000000000000000000000000000000000000000000000081526004016119bc929190612d96565b60405180910390fd5b505050565b606060405180602001604052806000815250905090565b60606119ec82610bc2565b5060006119f76119ca565b90506000815111611a175760405180602001604052806000815250611a42565b80611a2184611b99565b604051602001611a32929190612af4565b6040516020818303038152906040525b915050919050565b611a548383611c67565b611a69611a5f610c87565b60008585856112e4565b505050565b60007f01ffc9a7000000000000000000000000000000000000000000000000000000007bffffffffffffffffffffffffffffffffffffffffffffffffffffffff1916827bffffffffffffffffffffffffffffffffffffffffffffffffffffffff1916149050919050565b60008073ffffffffffffffffffffffffffffffffffffffff168373ffffffffffffffffffffffffffffffffffffffff1614158015611b9057508273ffffffffffffffffffffffffffffffffffffffff168473ffffffffffffffffffffffffffffffffffffffff161480611b515750611b508484610961565b5b80611b8f57508273ffffffffffffffffffffffffffffffffffffffff16611b7783610c4a565b73ffffffffffffffffffffffffffffffffffffffff16145b5b90509392505050565b606060006001611ba884611d60565b01905060008167ffffffffffffffff811115611bc757611bc661227f565b5b6040519080825280601f01601f191660200182016040528015611bf95781602001600182028036833780820191505090505b509050600082602083010190505b600115611c5c578080600190039150507f3031323334353637383961626364656600000000000000000000000000000000600a86061a8153600a8581611c5057611c4f612dbf565b5b04945060008503611c07575b819350505050919050565b600073ffffffffffffffffffffffffffffffffffffffff168273ffffffffffffffffffffffffffffffffffffffff1603611cd95760006040517f64a0ae92000000000000000000000000000000000000000000000000000000008152600401611cd091906120d8565b60405180910390fd5b6000611ce783836000610e95565b9050600073ffffffffffffffffffffffffffffffffffffffff168173ffffffffffffffffffffffffffffffffffffffff1614611d5b5760006040517f73c6ac6e000000000000000000000000000000000000000000000000000000008152600401611d5291906120d8565b60405180910390fd5b505050565b600080600090507a184f03e93ff9f4daa797ed6e38ed64bf6a1f0100000000000000008310611dbe577a184f03e93ff9f4daa797ed6e38ed64bf6a1f0100000000000000008381611db457611db3612dbf565b5b0492506040810190505b6d04ee2d6d415b85acef81000000008310611dfb576d04ee2d6d415b85acef81000000008381611df157611df0612dbf565b5b0492506020810190505b662386f26fc100008310611e2a57662386f26fc100008381611e2057611e1f612dbf565b5b0492506010810190505b6305f5e1008310611e53576305f5e1008381611e4957611e48612dbf565b5b0492506008810190505b6127108310611e78576127108381611e6e57611e6d612dbf565b5b0492506004810190505b60648310611e9b5760648381611e9157611e90612dbf565b5b0492506002810190505b600a8310611eaa576001810190505b80915050919050565b6000604051905090565b600080fd5b600080fd5b60007fffffffff0000000000000000000000000000000000000000000000000000000082169050919050565b611efc81611ec7565b8114611f0757600080fd5b50565b600081359050611f1981611ef3565b92915050565b600060208284031215611f3557611f34611ebd565b5b6000611f4384828501611f0a565b91505092915050565b60008115159050919050565b611f6181611f4c565b82525050565b6000602082019050611f7c6000830184611f58565b92915050565b600081519050919050565b600082825260208201905092915050565b60005b83811015611fbc578082015181840152602081019050611fa1565b60008484015250505050565b6000601f19601f8301169050919050565b6000611fe482611f82565b611fee8185611f8d565b9350611ffe818560208601611f9e565b61200781611fc8565b840191505092915050565b6000602082019050818103600083015261202c8184611fd9565b905092915050565b6000819050919050565b61204781612034565b811461205257600080fd5b50565b6000813590506120648161203e565b92915050565b6000602082840312156120805761207f611ebd565b5b600061208e84828501612055565b91505092915050565b600073ffffffffffffffffffffffffffffffffffffffff82169050919050565b60006120c282612097565b9050919050565b6120d2816120b7565b82525050565b60006020820190506120ed60008301846120c9565b92915050565b6120fc816120b7565b811461210757600080fd5b50565b600081359050612119816120f3565b92915050565b6000806040838503121561213657612135611ebd565b5b60006121448582860161210a565b925050602061215585828601612055565b9150509250929050565b61216881612034565b82525050565b6000602082019050612183600083018461215f565b92915050565b6000806000606084860312156121a2576121a1611ebd565b5b60006121b08682870161210a565b93505060206121c18682870161210a565b92505060406121d286828701612055565b9150509250925092565b6000602082840312156121f2576121f1611ebd565b5b60006122008482850161210a565b91505092915050565b61221281611f4c565b811461221d57600080fd5b50565b60008135905061222f81612209565b92915050565b6000806040838503121561224c5761224b611ebd565b5b600061225a8582860161210a565b925050602061226b85828601612220565b9150509250929050565b600080fd5b600080fd5b7f4e487b7100000000000000000000000000000000000000000000000000000000600052604160045260246000fd5b6122b782611fc8565b810181811067ffffffffffffffff821117156122d6576122d561227f565b5b80604052505050565b60006122e9611eb3565b90506122f582826122ae565b919050565b600067ffffffffffffffff8211156123155761231461227f565b5b61231e82611fc8565b9050602081019050919050565b82818337600083830152505050565b600061234d612348846122fa565b6122df565b9050828152602081018484840111156123695761236861227a565b5b61237484828561232b565b509392505050565b600082601f83011261239157612390612275565b5b81356123a184826020860161233a565b91505092915050565b600080600080608085870312156123c4576123c3611ebd565b5b60006123d28782880161210a565b94505060206123e38782880161210a565b93505060406123f487828801612055565b925050606085013567ffffffffffffffff81111561241557612414611ec2565b5b6124218782880161237c565b91505092959194509250565b600067ffffffffffffffff8211156124485761244761227f565b5b61245182611fc8565b9050602081019050919050565b600061247161246c8461242d565b6122df565b90508281526020810184848401111561248d5761248c61227a565b5b61249884828561232b565b509392505050565b600082601f8301126124b5576124b4612275565b5b81356124c584826020860161245e565b91505092915050565b600080604083850312156124e5576124e4611ebd565b5b60006124f38582860161210a565b925050602083013567ffffffffffffffff81111561251457612513611ec2565b5b612520858286016124a0565b9150509250929050565b6000806040838503121561254157612540611ebd565b5b600061254f8582860161210a565b92505060206125608582860161210a565b9150509250929050565b600067ffffffffffffffff8211156125855761258461227f565b5b602082029050602081019050919050565b600080fd5b60006125ae6125a98461256a565b6122df565b905080838252602082019050602084028301858111156125d1576125d0612596565b5b835b8181101561261857803567ffffffffffffffff8111156125f6576125f5612275565b5b80860161260389826124a0565b855260208501945050506020810190506125d3565b5050509392505050565b600082601f83011261263757612636612275565b5b813561264784826020860161259b565b91505092915050565b6000806040838503121561266757612666611ebd565b5b60006126758582860161210a565b925050602083013567ffffffffffffffff81111561269657612695611ec2565b5b6126a285828601612622565b9150509250929050565b600081519050919050565b600082825260208201905092915050565b6000819050602082019050919050565b6126e181612034565b82525050565b60006126f383836126d8565b60208301905092915050565b6000602082019050919050565b6000612717826126ac565b61272181856126b7565b935061272c836126c8565b8060005b8381101561275d57815161274488826126e7565b975061274f836126ff565b925050600181019050612730565b5085935050505092915050565b60006020820190508181036000830152612784818461270c565b905092915050565b7f4e487b7100000000000000000000000000000000000000000000000000000000600052602260045260246000fd5b600060028204905060018216806127d357607f821691505b6020821081036127e6576127e561278c565b5b50919050565b7f4e487b7100000000000000000000000000000000000000000000000000000000600052601160045260246000fd5b600061282682612034565b915061283183612034565b9250828203905081811115612849576128486127ec565b5b92915050565b7f4e6f7420746f6b656e206f776e65720000000000000000000000000000000000600082015250565b6000612885600f83611f8d565b91506128908261284f565b602082019050919050565b600060208201905081810360008301526128b481612878565b9050919050565b7f496e76616c696420726563697069656e74000000000000000000000000000000600082015250565b60006128f1601183611f8d565b91506128fc826128bb565b602082019050919050565b60006020820190508181036000830152612920816128e4565b9050919050565b600060608201905061293c60008301866120c9565b612949602083018561215f565b61295660408301846120c9565b949350505050565b600061296982612034565b91507fffffffffffffffffffffffffffffffffffffffffffffffffffffffffffffffff820361299b5761299a6127ec565b5b600182019050919050565b7f4e487b7100000000000000000000000000000000000000000000000000000000600052603260045260246000fd5b600081519050919050565b600082825260208201905092915050565b60006129fc826129d5565b612a0681856129e0565b9350612a16818560208601611f9e565b612a1f81611fc8565b840191505092915050565b6000608082019050612a3f60008301876120c9565b612a4c60208301866120c9565b612a59604083018561215f565b8181036060830152612a6b81846129f1565b905095945050505050565b600081519050612a8581611ef3565b92915050565b600060208284031215612aa157612aa0611ebd565b5b6000612aaf84828501612a76565b91505092915050565b600081905092915050565b6000612ace82611f82565b612ad88185612ab8565b9350612ae8818560208601611f9e565b80840191505092915050565b6000612b008285612ac3565b9150612b0c8284612ac3565b91508190509392505050565b60008190508160005260206000209050919050565b60006020601f8301049050919050565b600082821b905092915050565b600060088302612b7a7fffffffffffffffffffffffffffffffffffffffffffffffffffffffffffffffff82612b3d565b612b848683612b3d565b95508019841693508086168417925050509392505050565b6000819050919050565b6000612bc1612bbc612bb784612034565b612b9c565b612034565b9050919050565b6000819050919050565b612bdb83612ba6565b612bef612be782612bc8565b848454612b4a565b825550505050565b600090565b612c04612bf7565b612c0f818484612bd2565b505050565b5b81811015612c3357612c28600082612bfc565b600181019050612c15565b5050565b601f821115612c7857612c4981612b18565b612c5284612b2d565b81016020851015612c61578190505b612c75612c6d85612b2d565b830182612c14565b50505b505050565b600082821c905092915050565b6000612c9b60001984600802612c7d565b1980831691505092915050565b6000612cb48383612c8a565b9150826002028217905092915050565b612ccd82611f82565b67ffffffffffffffff811115612ce657612ce561227f565b5b612cf082546127bb565b612cfb828285612c37565b600060209050601f831160018114612d2e5760008415612d1c578287015190505b612d268582612ca8565b865550612d8e565b601f198416612d3c86612b18565b60005b82811015612d6457848901518255600182019150602085019450602081019050612d3f565b86831015612d815784890151612d7d601f891682612c8a565b8355505b6001600288020188555050505b505050505050565b6000604082019050612dab60008301856120c9565b612db8602083018461215f565b9392505050565b7f4e487b7100000000000000000000000000000000000000000000000000000000600052601260045260246000fdfea264697066735822122034e0ca96c8a8a3469ad14fff949ec203e38ea3eab90980b15186e2e87f05e2a164736f6c634300081c0033",
  "linkReferences": {},
  "deployedLinkReferences": {}
}