{
  "_format": "hh-sol-artifact-1",
  "contractName": "CrownPurchase",
  "sourceName": "contracts/CrownPurchase.sol",
  "abi": [
    {
      "inputs": [
        {
          "internalType": "address",
          "name": "_darkToken",
          "type": "address"
        },
        {
          "internalType": "address",
          "name": "_crownNFT",
          "type": "address"
        }
      ],
      "stateMutability": "nonpayable",
      "type": "constructor"
    },
    {
      "inputs": [],
      "name": "ECDSAInvalidSignature",
      "type": "error"
    },
    {
      "inputs": [
        {
          "internalType": "uint256",
          "name": "length",
          "type": "uint256"
        }
      ],
      "name": "ECDSAInvalidSignatureLength",
      "type": "error"
    },
    {
      "inputs": [
        {
          "internalType": "bytes32",
          "name": "s",
          "type": "bytes32"
        }
      ],
      "name": "ECDSAInvalidSignatureS",
      "type": "error"
    },
    {
      "inputs": [],
      "name": "InvalidShortString",
      "type": "error"
    },
    {
      "inputs": [
        {
          "internalType": "address",
          "name": "owner",
          "type": "address"
        }
      ],
      "name": "OwnableInvalidOwner",
      "type": "error"
    },
    {
      "inputs": [
        {
          "internalType": "address",
          "name": "account",
          "type": "address"
        }
      ],
      "name": "OwnableUnauthorizedAccount",
      "type": "error"
    },
    {
      "inputs": [
        {
          "internalType": "string",
          "name": "str",
          "type": "string"
        }
      ],
      "name": "StringTooLong",
      "type": "error"
    },
    {
      "anonymous": false,
      "inputs": [],
      "name": "EIP712DomainChanged",
      "type": "event"
    },
    {
      "anonymous": false,
      "inputs": [
        {
          "indexed": true,
          "internalType": "address",
          "name": "from",
          "type": "address"
        },
        {
          "indexed": true,
          "internalType": "address",
          "name": "to",
          "type": "address"
        },
        {
          "indexed": true,
          "internalType": "uint256",
          "name": "tokenId",
          "type": "uint256"
        },
        {
          "indexed": false,
          "internalType": "uint256",
          "name": "price",
          "type": "uint256"
        }
      ],
      "name": "MarketplaceTransfer",
      "type": "event"
    },
    {
      "anonymous": false,
      "inputs": [
        {
          "indexed": true,
          "internalType": "address",
          "name": "buyer",
          "type": "address"
        },
        {
          "indexed": true,
          "internalType": "uint256",
          "name": "tokenId",
          "type": "uint256"
        },
        {
          "indexed": false,
          "internalType": "uint256",
          "name": "price",
          "type": "uint256"
        }
      ],
      "name": "NFTPurchased",
      "type": "event"
    },
    {
      "anonymous": false,
      "inputs": [
        {
          "indexed": true,
          "internalType": "address",
          "name": "previousOwner",
          "type": "address"
        },
        {
          "indexed": true,
          "internalType": "address",
          "name": "newOwner",
          "type": "address"
        }
      ],
      "name": "OwnershipTransferred",
      "type": "event"
    },
    {
      "anonymous": false,
      "inputs": [
        {
          "indexed": false,
          "internalType": "uint256",
          "name": "oldPrice",
          "type": "uint256"
        },
        {
          "indexed": false,
          "internalType": "uint256",
          "name": "newPrice",
          "type": "uint256"
        }
      ],
      "name": "PriceUpdated",
      "type": "event"
    },
    {
      "inputs": [],
      "name": "authorizedSigner",
      "outputs": [
        {
          "internalType": "address",
          "name": "",
          "type": "address"
        }
      ],
      "stateMutability": "view",
      "type": "function"
    },
    {
      "inputs": [
        {
          "internalType": "string[]",
          "name": "tokenURIs",
          "type": "string[]"
        }
      ],
      "name": "buyMultipleNFTs",
      "outputs": [
        {
          "internalType": "uint256[]",
          "name": "",
          "type": "uint256[]"
        }
      ],
      "stateMutability": "nonpayable",
      "type": "function"
    },
    {
      "inputs": [
        {
          "internalType": "string",
          "name": "tokenURI",
          "type": "string"
        }
      ],
      "name": "buyNFT",
      "outputs": [
        {
          "internalType": "uint256",
          "name": "",
          "type": "uint256"
        }
      ],
      "stateMutability": "nonpayable",
      "type": "function"
    },
    {
      "inputs": [],
      "name": "crownNFT",
      "outputs": [
        {
          "internalType": "contract ICrownNFT",
          "name": "",
          "type": "address"
        }
      ],
      "stateMutability": "view",
      "type": "function"
    },
    {
      "inputs": [],
      "name": "darkToken",
      "outputs": [
        {
          "internalType": "contract IERC20",
          "name": "",
          "type": "address"
        }
      ],
      "stateMutability": "view",
      "type": "function"
    },
    {
      "inputs": [],
      "name": "eip712Domain",
      "outputs": [
        {
          "internalType": "bytes1",
          "name": "fields",
          "type": "bytes1"
        },
        {
          "internalType": "string",
          "name": "name",
          "type": "string"
        },
        {
          "internalType": "string",
          "name": "version",
          "type": "string"
        },
        {
          "internalType": "uint256",
          "name": "chainId",
          "type": "uint256"
        },
        {
          "internalType": "address",
          "name": "verifyingContract",
          "type": "address"
        },
        {
          "internalType": "bytes32",
          "name": "salt",
          "type": "bytes32"
        },
        {
          "internalType": "uint256[]",
          "name": "extensions",
          "type": "uint256[]"
        }
      ],
      "stateMutability": "view",
      "type": "function"
    },
    {
      "inputs": [],
      "name": "getDomainSeparator",
      "outputs": [
        {
          "internalType": "bytes32",
          "name": "",
          "type": "bytes32"
        }
      ],
      "stateMutability": "view",
      "type": "function"
    },
    {
      "inputs": [],
      "name": "getNFTPrice",
      "outputs": [
        {
          "internalType": "uint256",
          "name": "",
          "type": "uint256"
        }
      ],
      "stateMutability": "view",
      "type": "function"
    },
    {
      "inputs": [],
      "name": "getNextTokenId",
      "outputs": [
        {
          "internalType": "uint256",
          "name": "",
          "type": "uint256"
        }
      ],
      "stateMutability": "view",
      "type": "function"
    },
    {
      "inputs": [
        {
          "internalType": "address",
          "name": "from",
          "type": "address"
        },
        {
          "internalType": "address",
          "name": "to",
          "type": "address"
        },
        {
          "internalType": "uint256",
          "name": "tokenId",
          "type": "uint256"
        },
        {
          "internalType": "uint256",
          "name": "price",
          "type": "uint256"
        },
        {
          "internalType": "uint256",
          "name": "deadline",
          "type": "uint256"
        },
        {
          "internalType": "uint256",
          "name": "nonce",
          "type": "uint256"
        }
      ],
      "name": "getTransferHash",
      "outputs": [
        {
          "internalType": "bytes32",
          "name": "",
          "type": "bytes32"
        }
      ],
      "stateMutability": "view",
      "type": "function"
    },
    {
      "inputs": [],
      "name": "nftPrice",
      "outputs": [
        {
          "internalType": "uint256",
          "name": "",
          "type": "uint256"
        }
      ],
      "stateMutability": "view",
      "type": "function"
    },
    {
      "inputs": [
        {
          "internalType": "address",
          "name": "",
          "type": "address"
        }
      ],
      "name": "nonces",
      "outputs": [
        {
          "internalType": "uint256",
          "name": "",
          "type": "uint256"
        }
      ],
      "stateMutability": "view",
      "type": "function"
    },
    {
      "inputs": [],
      "name": "owner",
      "outputs": [
        {
          "internalType": "address",
          "name": "",
          "type": "address"
        }
      ],
      "stateMutability": "view",
      "type": "function"
    },
    {
      "inputs": [],
      "name": "renounceOwnership",
      "outputs": [],
      "stateMutability": "nonpayable",
      "type": "function"
    },
    {
      "inputs": [
        {
          "internalType": "address",
          "name": "_signer",
          "type": "address"
        }
      ],
      "name": "setAuthorizedSigner",
      "outputs": [],
      "stateMutability": "nonpayable",
      "type": "function"
    },
    {
      "inputs": [
        {
          "internalType": "address",
          "name": "_crownNFT",
          "type": "address"
        }
      ],
      "name": "setCrownNFT",
      "outputs": [],
      "stateMutability": "nonpayable",
      "type": "function"
    },
    {
      "inputs": [
        {
          "internalType": "address",
          "name": "_darkToken",
          "type": "address"
        }
      ],
      "name": "setDarkToken",
      "outputs": [],
      "stateMutability": "nonpayable",
      "type": "function"
    },
    {
      "inputs": [
        {
          "internalType": "uint256",
          "name": "_newPrice",
          "type": "uint256"
        }
      ],
      "name": "setNFTPrice",
      "outputs": [],
      "stateMutability": "nonpayable",
      "type": "function"
    },
    {
      "inputs": [
        {
          "internalType": "address",
          "name": "newOwner",
          "type": "address"
        }
      ],
      "name": "transferOwnership",
      "outputs": [],
      "stateMutability": "nonpayable",
      "type": "function"
    },
    {
      "inputs": [
        {
          "internalType": "address",
          "name": "from",
          "type": "address"
        },
        {
          "internalType": "address",
          "name": "to",
          "type": "address"
        },
        {
          "internalType": "uint256",
          "name": "tokenId",
          "type": "uint256"
        },
        {
          "internalType": "uint256",
          "name": "price",
          "type": "uint256"
        },
        {
          "internalType": "uint256",
          "name": "deadline",
          "type": "uint256"
        },
        {
          "internalType": "uint256",
          "name": "nonce",
          "type": "uint256"
        },
        {
          "internalType": "bytes",
          "name": "signature",
          "type": "bytes"
        }
      ],
      "name": "transferWithSignature",
      "outputs": [],
      "stateMutability": "payable",
      "type": "function"
    },
    {
      "inputs": [],
      "name": "withdrawDarkTokens",
      "outputs": [],
      "stateMutability": "nonpayable",
      "type": "function"
    }
  ],
  "bytecode": "0x610160604052678ac7230489e8000060055534801561001d57600080fd5b50604051614695380380614695833981810160405281019061003f91906104e6565b6040518060400160405280600d81526020017f43726f776e5075726368617365000000000000000000000000000000000000008152506040518060400160405280600181526020017f310000000000000000000000000000000000000000000000000000000000000081525033600073ffffffffffffffffffffffffffffffffffffffff168173ffffffffffffffffffffffffffffffffffffffff160361011e5760006040517f1e4fbdf70000000000000000000000000000000000000000000000000000000081526004016101159190610535565b60405180910390fd5b61012d816102a260201b60201c565b5061014260018361036660201b90919060201c565b610120818152505061015e60028261036660201b90919060201c565b6101408181525050818051906020012060e08181525050808051906020012061010081815250504660a0818152505061019b6103b660201b60201c565b608081815250503073ffffffffffffffffffffffffffffffffffffffff1660c08173ffffffffffffffffffffffffffffffffffffffff1681525050505081600360006101000a81548173ffffffffffffffffffffffffffffffffffffffff021916908373ffffffffffffffffffffffffffffffffffffffff16021790555080600460006101000a81548173ffffffffffffffffffffffffffffffffffffffff021916908373ffffffffffffffffffffffffffffffffffffffff16021790555033600760006101000a81548173ffffffffffffffffffffffffffffffffffffffff021916908373ffffffffffffffffffffffffffffffffffffffff1602179055505050610a2b565b60008060009054906101000a900473ffffffffffffffffffffffffffffffffffffffff169050816000806101000a81548173ffffffffffffffffffffffffffffffffffffffff021916908373ffffffffffffffffffffffffffffffffffffffff1602179055508173ffffffffffffffffffffffffffffffffffffffff168173ffffffffffffffffffffffffffffffffffffffff167f8be0079c531659141344cd1fd0a4f28419497f9722a3daafe3b4186f6b6457e060405160405180910390a35050565b6000602083511015610388576103818361041160201b60201c565b90506103b0565b826103988361047960201b60201c565b60000190816103a791906107a0565b5060ff60001b90505b92915050565b60007f8b73c3c69bb8fe3d512ecc4cf759cc79239f7b179b0ffacaa9a75d522b39400f60e0516101005146306040516020016103f695949392919061089a565b60405160208183030381529060405280519060200120905090565b600080829050601f8151111561045e57826040517f305a27a90000000000000000000000000000000000000000000000000000000081526004016104559190610972565b60405180910390fd5b80518161046a906109c4565b60001c1760001b915050919050565b6000819050919050565b600080fd5b600073ffffffffffffffffffffffffffffffffffffffff82169050919050565b60006104b382610488565b9050919050565b6104c3816104a8565b81146104ce57600080fd5b50565b6000815190506104e0816104ba565b92915050565b600080604083850312156104fd576104fc610483565b5b600061050b858286016104d1565b925050602061051c858286016104d1565b9150509250929050565b61052f816104a8565b82525050565b600060208201905061054a6000830184610526565b92915050565b600081519050919050565b7f4e487b7100000000000000000000000000000000000000000000000000000000600052604160045260246000fd5b7f4e487b7100000000000000000000000000000000000000000000000000000000600052602260045260246000fd5b600060028204905060018216806105d157607f821691505b6020821081036105e4576105e361058a565b5b50919050565b60008190508160005260206000209050919050565b60006020601f8301049050919050565b600082821b905092915050565b60006008830261064c7fffffffffffffffffffffffffffffffffffffffffffffffffffffffffffffffff8261060f565b610656868361060f565b95508019841693508086168417925050509392505050565b6000819050919050565b6000819050919050565b600061069d6106986106938461066e565b610678565b61066e565b9050919050565b6000819050919050565b6106b783610682565b6106cb6106c3826106a4565b84845461061c565b825550505050565b600090565b6106e06106d3565b6106eb8184846106ae565b505050565b5b8181101561070f576107046000826106d8565b6001810190506106f1565b5050565b601f82111561075457610725816105ea565b61072e846105ff565b8101602085101561073d578190505b610751610749856105ff565b8301826106f0565b50505b505050565b600082821c905092915050565b600061077760001984600802610759565b1980831691505092915050565b60006107908383610766565b9150826002028217905092915050565b6107a982610550565b67ffffffffffffffff8111156107c2576107c161055b565b5b6107cc82546105b9565b6107d7828285610713565b600060209050601f83116001811461080a57600084156107f8578287015190505b6108028582610784565b86555061086a565b601f198416610818866105ea565b60005b828110156108405784890151825560018201915060208501945060208101905061081b565b8683101561085d5784890151610859601f891682610766565b8355505b6001600288020188555050505b505050505050565b6000819050919050565b61088581610872565b82525050565b6108948161066e565b82525050565b600060a0820190506108af600083018861087c565b6108bc602083018761087c565b6108c9604083018661087c565b6108d6606083018561088b565b6108e36080830184610526565b9695505050505050565b600082825260208201905092915050565b60005b8381101561091c578082015181840152602081019050610901565b60008484015250505050565b6000601f19601f8301169050919050565b600061094482610550565b61094e81856108ed565b935061095e8185602086016108fe565b61096781610928565b840191505092915050565b6000602082019050818103600083015261098c8184610939565b905092915050565b600081519050919050565b6000819050602082019050919050565b60006109bb8251610872565b80915050919050565b60006109cf82610994565b826109d98461099f565b90506109e4816109af565b92506020821015610a2457610a1f7fffffffffffffffffffffffffffffffffffffffffffffffffffffffffffffffff8360200360080261060f565b831692505b5050919050565b60805160a05160c05160e051610100516101205161014051613c10610a856000396000611f8f01526000611f54015260006121fd015260006121dc01526000611fdf015260006120350152600061205e0152613c106000f3fe60806040526004361061012a5760003560e01c8063bcd83824116100ab578063d63323321161006f578063d6332332146103d4578063ed241eb0146103ff578063ed24911d14610428578063f0bfa41614610453578063f2fde38b1461046f578063fb107a4f146104985761012a565b8063bcd83824146102db578063c771909c14610318578063c89e43e814610343578063caa0f92a14610380578063d279b0ca146103ab5761012a565b806381530b68116100f257806381530b681461020257806384b0196e1461022b5780638d0123001461025c5780638da5cb5b1461029957806391940680146102c45761012a565b806301338ff01461012f5780630d39fc81146101585780632acfc2ca14610183578063715018a6146101ae5780637ecebe00146101c5575b600080fd5b34801561013b57600080fd5b5061015660048036038101906101519190612637565b6104c3565b005b34801561016457600080fd5b5061016d61057e565b60405161017a919061267d565b60405180910390f35b34801561018f57600080fd5b50610198610584565b6040516101a591906126f7565b60405180910390f35b3480156101ba57600080fd5b506101c36105aa565b005b3480156101d157600080fd5b506101ec60048036038101906101e79190612637565b6105be565b6040516101f9919061267d565b60405180910390f35b34801561020e57600080fd5b506102296004803603810190610224919061273e565b6105d6565b005b34801561023757600080fd5b5061024061066c565b604051610253979695949392919061291c565b60405180910390f35b34801561026857600080fd5b50610283600480360381019061027e9190612ad5565b610716565b604051610290919061267d565b60405180910390f35b3480156102a557600080fd5b506102ae610afe565b6040516102bb9190612b1e565b60405180910390f35b3480156102d057600080fd5b506102d9610b27565b005b3480156102e757600080fd5b5061030260048036038101906102fd9190612c1f565b610cfb565b60405161030f9190612c68565b60405180910390f35b34801561032457600080fd5b5061032d611238565b60405161033a9190612b1e565b60405180910390f35b34801561034f57600080fd5b5061036a60048036038101906103659190612c8a565b61125e565b6040516103779190612d17565b60405180910390f35b34801561038c57600080fd5b506103956112cc565b6040516103a2919061267d565b60405180910390f35b3480156103b757600080fd5b506103d260048036038101906103cd9190612637565b611364565b005b3480156103e057600080fd5b506103e96113b0565b6040516103f69190612d53565b60405180910390f35b34801561040b57600080fd5b5061042660048036038101906104219190612637565b6113d6565b005b34801561043457600080fd5b5061043d611491565b60405161044a9190612d17565b60405180910390f35b61046d60048036038101906104689190612e0f565b6114a0565b005b34801561047b57600080fd5b5061049660048036038101906104919190612637565b611d70565b005b3480156104a457600080fd5b506104ad611df6565b6040516104ba919061267d565b60405180910390f35b6104cb611e00565b600073ffffffffffffffffffffffffffffffffffffffff168173ffffffffffffffffffffffffffffffffffffffff160361053a576040517f08c379a000000000000000000000000000000000000000000000000000000000815260040161053190612f19565b60405180910390fd5b80600360006101000a81548173ffffffffffffffffffffffffffffffffffffffff021916908373ffffffffffffffffffffffffffffffffffffffff16021790555050565b60055481565b600360009054906101000a900473ffffffffffffffffffffffffffffffffffffffff1681565b6105b2611e00565b6105bc6000611e87565b565b60066020528060005260406000206000915090505481565b6105de611e00565b60008111610621576040517f08c379a000000000000000000000000000000000000000000000000000000000815260040161061890612f85565b60405180910390fd5b60006005549050816005819055507f945c1c4e99aa89f648fbfe3df471b916f719e16d960fcec0737d4d56bd6968388183604051610660929190612fa5565b60405180910390a15050565b600060608060008060006060610680611f4b565b610688611f86565b46306000801b600067ffffffffffffffff8111156106a9576106a86129aa565b5b6040519080825280602002602001820160405280156106d75781602001602082028036833780820191505090505b507f0f00000000000000000000000000000000000000000000000000000000000000959493929190965096509650965096509650965090919293949596565b60008082511161075b576040517f08c379a00000000000000000000000000000000000000000000000000000000081526004016107529061301a565b60405180910390fd5b600554600360009054906101000a900473ffffffffffffffffffffffffffffffffffffffff1673ffffffffffffffffffffffffffffffffffffffff166370a08231336040518263ffffffff1660e01b81526004016107b99190612b1e565b602060405180830381865afa1580156107d6573d6000803e3d6000fd5b505050506040513d601f19601f820116820180604052508101906107fa919061304f565b101561083b576040517f08c379a0000000000000000000000000000000000000000000000000000000008152600401610832906130c8565b60405180910390fd5b600554600360009054906101000a900473ffffffffffffffffffffffffffffffffffffffff1673ffffffffffffffffffffffffffffffffffffffff1663dd62ed3e33306040518363ffffffff1660e01b815260040161089b9291906130e8565b602060405180830381865afa1580156108b8573d6000803e3d6000fd5b505050506040513d601f19601f820116820180604052508101906108dc919061304f565b101561091d576040517f08c379a000000000000000000000000000000000000000000000000000000000815260040161091490613183565b60405180910390fd5b600360009054906101000a900473ffffffffffffffffffffffffffffffffffffffff1673ffffffffffffffffffffffffffffffffffffffff166323b872dd33306005546040518463ffffffff1660e01b815260040161097e939291906131a3565b6020604051808303816000875af115801561099d573d6000803e3d6000fd5b505050506040513d601f19601f820116820180604052508101906109c19190613212565b610a00576040517f08c379a00000000000000000000000000000000000000000000000000000000081526004016109f79061328b565b60405180910390fd5b6000600460009054906101000a900473ffffffffffffffffffffffffffffffffffffffff1673ffffffffffffffffffffffffffffffffffffffff1663d0def52133856040518363ffffffff1660e01b8152600401610a5f9291906132ab565b6020604051808303816000875af1158015610a7e573d6000803e3d6000fd5b505050506040513d601f19601f82011682018060405250810190610aa2919061304f565b9050803373ffffffffffffffffffffffffffffffffffffffff167fa6d32bfcc7cd31e4d5ee7adeef7edd500cab0e64b4a494de4f832d41fd70f56d600554604051610aed919061267d565b60405180910390a380915050919050565b60008060009054906101000a900473ffffffffffffffffffffffffffffffffffffffff16905090565b610b2f611e00565b6000600360009054906101000a900473ffffffffffffffffffffffffffffffffffffffff1673ffffffffffffffffffffffffffffffffffffffff166370a08231306040518263ffffffff1660e01b8152600401610b8c9190612b1e565b602060405180830381865afa158015610ba9573d6000803e3d6000fd5b505050506040513d601f19601f82011682018060405250810190610bcd919061304f565b905060008111610c12576040517f08c379a0000000000000000000000000000000000000000000000000000000008152600401610c0990613327565b60405180910390fd5b600360009054906101000a900473ffffffffffffffffffffffffffffffffffffffff1673ffffffffffffffffffffffffffffffffffffffff1663a9059cbb610c58610afe565b836040518363ffffffff1660e01b8152600401610c76929190613347565b6020604051808303816000875af1158015610c95573d6000803e3d6000fd5b505050506040513d601f19601f82011682018060405250810190610cb99190613212565b610cf8576040517f08c379a0000000000000000000000000000000000000000000000000000000008152600401610cef906133bc565b60405180910390fd5b50565b60606000825111610d41576040517f08c379a0000000000000000000000000000000000000000000000000000000008152600401610d389061344e565b60405180910390fd5b600a82511115610d86576040517f08c379a0000000000000000000000000000000000000000000000000000000008152600401610d7d906134e0565b60405180910390fd5b60008251600554610d97919061352f565b905080600360009054906101000a900473ffffffffffffffffffffffffffffffffffffffff1673ffffffffffffffffffffffffffffffffffffffff166370a08231336040518263ffffffff1660e01b8152600401610df59190612b1e565b602060405180830381865afa158015610e12573d6000803e3d6000fd5b505050506040513d601f19601f82011682018060405250810190610e36919061304f565b1015610e77576040517f08c379a0000000000000000000000000000000000000000000000000000000008152600401610e6e906130c8565b60405180910390fd5b80600360009054906101000a900473ffffffffffffffffffffffffffffffffffffffff1673ffffffffffffffffffffffffffffffffffffffff1663dd62ed3e33306040518363ffffffff1660e01b8152600401610ed59291906130e8565b602060405180830381865afa158015610ef2573d6000803e3d6000fd5b505050506040513d601f19601f82011682018060405250810190610f16919061304f565b1015610f57576040517f08c379a0000000000000000000000000000000000000000000000000000000008152600401610f4e90613183565b60405180910390fd5b600360009054906101000a900473ffffffffffffffffffffffffffffffffffffffff1673ffffffffffffffffffffffffffffffffffffffff166323b872dd3330846040518463ffffffff1660e01b8152600401610fb6939291906131a3565b6020604051808303816000875af1158015610fd5573d6000803e3d6000fd5b505050506040513d601f19601f82011682018060405250810190610ff99190613212565b611038576040517f08c379a000000000000000000000000000000000000000000000000000000000815260040161102f9061328b565b60405180910390fd5b6000835167ffffffffffffffff811115611055576110546129aa565b5b6040519080825280602002602001820160405280156110835781602001602082028036833780820191505090505b50905060005b845181101561122d5760008582815181106110a7576110a6613571565b5b602002602001015151116110f0576040517f08c379a00000000000000000000000000000000000000000000000000000000081526004016110e79061301a565b60405180910390fd5b6000600460009054906101000a900473ffffffffffffffffffffffffffffffffffffffff1673ffffffffffffffffffffffffffffffffffffffff1663d0def5213388858151811061114457611143613571565b5b60200260200101516040518363ffffffff1660e01b81526004016111699291906132ab565b6020604051808303816000875af1158015611188573d6000803e3d6000fd5b505050506040513d601f19601f820116820180604052508101906111ac919061304f565b9050808383815181106111c2576111c1613571565b5b602002602001018181525050803373ffffffffffffffffffffffffffffffffffffffff167fa6d32bfcc7cd31e4d5ee7adeef7edd500cab0e64b4a494de4f832d41fd70f56d600554604051611217919061267d565b60405180910390a3508080600101915050611089565b508092505050919050565b600760009054906101000a900473ffffffffffffffffffffffffffffffffffffffff1681565b6000807f85307254b14fb6d5805a16dc88aac6883d41e6b0b34900b567a02d0847177b5d88888888888860405160200161129e97969594939291906135a0565b6040516020818303038152906040528051906020012090506112bf81611fc1565b9150509695505050505050565b6000600460009054906101000a900473ffffffffffffffffffffffffffffffffffffffff1673ffffffffffffffffffffffffffffffffffffffff166375794a3c6040518163ffffffff1660e01b8152600401602060405180830381865afa15801561133b573d6000803e3d6000fd5b505050506040513d601f19601f8201168201806040525081019061135f919061304f565b905090565b61136c611e00565b80600760006101000a81548173ffffffffffffffffffffffffffffffffffffffff021916908373ffffffffffffffffffffffffffffffffffffffff16021790555050565b600460009054906101000a900473ffffffffffffffffffffffffffffffffffffffff1681565b6113de611e00565b600073ffffffffffffffffffffffffffffffffffffffff168173ffffffffffffffffffffffffffffffffffffffff160361144d576040517f08c379a00000000000000000000000000000000000000000000000000000000081526004016114449061365b565b60405180910390fd5b80600460006101000a81548173ffffffffffffffffffffffffffffffffffffffff021916908373ffffffffffffffffffffffffffffffffffffffff16021790555050565b600061149b611fdb565b905090565b824211156114e3576040517f08c379a00000000000000000000000000000000000000000000000000000000081526004016114da906136c7565b60405180910390fd5b600660008873ffffffffffffffffffffffffffffffffffffffff1673ffffffffffffffffffffffffffffffffffffffff168152602001908152602001600020548214611564576040517f08c379a000000000000000000000000000000000000000000000000000000000815260040161155b90613733565b60405180910390fd5b8673ffffffffffffffffffffffffffffffffffffffff16600460009054906101000a900473ffffffffffffffffffffffffffffffffffffffff1673ffffffffffffffffffffffffffffffffffffffff16636352211e876040518263ffffffff1660e01b81526004016115d6919061267d565b602060405180830381865afa1580156115f3573d6000803e3d6000fd5b505050506040513d601f19601f820116820180604052508101906116179190613768565b73ffffffffffffffffffffffffffffffffffffffff161461166d576040517f08c379a0000000000000000000000000000000000000000000000000000000008152600401611664906137e1565b60405180910390fd5b600073ffffffffffffffffffffffffffffffffffffffff168673ffffffffffffffffffffffffffffffffffffffff16036116dc576040517f08c379a00000000000000000000000000000000000000000000000000000000081526004016116d39061384d565b60405180910390fd5b60007f85307254b14fb6d5805a16dc88aac6883d41e6b0b34900b567a02d0847177b5d88888888888860405160200161171b97969594939291906135a0565b604051602081830303815290604052805190602001209050600061173e82611fc1565b90506000600460009054906101000a900473ffffffffffffffffffffffffffffffffffffffff1673ffffffffffffffffffffffffffffffffffffffff16636352211e896040518263ffffffff1660e01b815260040161179d919061267d565b602060405180830381865afa1580156117ba573d6000803e3d6000fd5b505050506040513d601f19601f820116820180604052508101906117de9190613768565b905060008173ffffffffffffffffffffffffffffffffffffffff163b11156118e857631626ba7e60e01b8173ffffffffffffffffffffffffffffffffffffffff16631626ba7e84876040518363ffffffff1660e01b81526004016118439291906138c2565b602060405180830381865afa158015611860573d6000803e3d6000fd5b505050506040513d601f19601f82011682018060405250810190611884919061394a565b7bffffffffffffffffffffffffffffffffffffffffffffffffffffffff1916146118e3576040517f08c379a00000000000000000000000000000000000000000000000000000000081526004016118da906139c3565b60405180910390fd5b61196f565b60006118fd858461209290919063ffffffff16565b90508173ffffffffffffffffffffffffffffffffffffffff168173ffffffffffffffffffffffffffffffffffffffff161461196d576040517f08c379a000000000000000000000000000000000000000000000000000000000815260040161196490613a2f565b60405180910390fd5b505b600660008b73ffffffffffffffffffffffffffffffffffffffff1673ffffffffffffffffffffffffffffffffffffffff16815260200190815260200160002060008154809291906119bf90613a4f565b91905055506000871115611c6d5786600360009054906101000a900473ffffffffffffffffffffffffffffffffffffffff1673ffffffffffffffffffffffffffffffffffffffff166370a08231336040518263ffffffff1660e01b8152600401611a299190612b1e565b602060405180830381865afa158015611a46573d6000803e3d6000fd5b505050506040513d601f19601f82011682018060405250810190611a6a919061304f565b1015611aab576040517f08c379a0000000000000000000000000000000000000000000000000000000008152600401611aa2906130c8565b60405180910390fd5b86600360009054906101000a900473ffffffffffffffffffffffffffffffffffffffff1673ffffffffffffffffffffffffffffffffffffffff1663dd62ed3e33306040518363ffffffff1660e01b8152600401611b099291906130e8565b602060405180830381865afa158015611b26573d6000803e3d6000fd5b505050506040513d601f19601f82011682018060405250810190611b4a919061304f565b1015611b8b576040517f08c379a0000000000000000000000000000000000000000000000000000000008152600401611b8290613183565b60405180910390fd5b600360009054906101000a900473ffffffffffffffffffffffffffffffffffffffff1673ffffffffffffffffffffffffffffffffffffffff166323b872dd338c8a6040518463ffffffff1660e01b8152600401611bea939291906131a3565b6020604051808303816000875af1158015611c09573d6000803e3d6000fd5b505050506040513d601f19601f82011682018060405250810190611c2d9190613212565b611c6c576040517f08c379a0000000000000000000000000000000000000000000000000000000008152600401611c639061328b565b60405180910390fd5b5b600460009054906101000a900473ffffffffffffffffffffffffffffffffffffffff1673ffffffffffffffffffffffffffffffffffffffff16632139556b8b8b8b6040518463ffffffff1660e01b8152600401611ccc939291906131a3565b600060405180830381600087803b158015611ce657600080fd5b505af1158015611cfa573d6000803e3d6000fd5b50505050878973ffffffffffffffffffffffffffffffffffffffff168b73ffffffffffffffffffffffffffffffffffffffff167ffad4695f5191853d911a72c8179e4e7d7cc4d6cd508c48cea563282d249e71f08a604051611d5c919061267d565b60405180910390a450505050505050505050565b611d78611e00565b600073ffffffffffffffffffffffffffffffffffffffff168173ffffffffffffffffffffffffffffffffffffffff1603611dea5760006040517f1e4fbdf7000000000000000000000000000000000000000000000000000000008152600401611de19190612b1e565b60405180910390fd5b611df381611e87565b50565b6000600554905090565b611e086120be565b73ffffffffffffffffffffffffffffffffffffffff16611e26610afe565b73ffffffffffffffffffffffffffffffffffffffff1614611e8557611e496120be565b6040517f118cdaa7000000000000000000000000000000000000000000000000000000008152600401611e7c9190612b1e565b60405180910390fd5b565b60008060009054906101000a900473ffffffffffffffffffffffffffffffffffffffff169050816000806101000a81548173ffffffffffffffffffffffffffffffffffffffff021916908373ffffffffffffffffffffffffffffffffffffffff1602179055508173ffffffffffffffffffffffffffffffffffffffff168173ffffffffffffffffffffffffffffffffffffffff167f8be0079c531659141344cd1fd0a4f28419497f9722a3daafe3b4186f6b6457e060405160405180910390a35050565b6060611f8160017f00000000000000000000000000000000000000000000000000000000000000006120c690919063ffffffff16565b905090565b6060611fbc60027f00000000000000000000000000000000000000000000000000000000000000006120c690919063ffffffff16565b905090565b6000611fd4611fce611fdb565b83612176565b9050919050565b60007f000000000000000000000000000000000000000000000000000000000000000073ffffffffffffffffffffffffffffffffffffffff163073ffffffffffffffffffffffffffffffffffffffff1614801561205757507f000000000000000000000000000000000000000000000000000000000000000046145b15612084577f0000000000000000000000000000000000000000000000000000000000000000905061208f565b61208c6121b7565b90505b90565b6000806000806120a2868661224d565b9250925092506120b282826122a9565b82935050505092915050565b600033905090565b606060ff60001b83146120e3576120dc8361240d565b9050612170565b8180546120ef90613ac6565b80601f016020809104026020016040519081016040528092919081815260200182805461211b90613ac6565b80156121685780601f1061213d57610100808354040283529160200191612168565b820191906000526020600020905b81548152906001019060200180831161214b57829003601f168201915b505050505090505b92915050565b60006040517f190100000000000000000000000000000000000000000000000000000000000081528360028201528260228201526042812091505092915050565b60007f8b73c3c69bb8fe3d512ecc4cf759cc79239f7b179b0ffacaa9a75d522b39400f7f00000000000000000000000000000000000000000000000000000000000000007f00000000000000000000000000000000000000000000000000000000000000004630604051602001612232959493929190613af7565b60405160208183030381529060405280519060200120905090565b600080600060418451036122925760008060006020870151925060408701519150606087015160001a905061228488828585612481565b9550955095505050506122a2565b60006002855160001b9250925092505b9250925092565b600060038111156122bd576122bc613b4a565b5b8260038111156122d0576122cf613b4a565b5b031561240957600160038111156122ea576122e9613b4a565b5b8260038111156122fd576122fc613b4a565b5b03612334576040517ff645eedf00000000000000000000000000000000000000000000000000000000815260040160405180910390fd5b6002600381111561234857612347613b4a565b5b82600381111561235b5761235a613b4a565b5b036123a0578060001c6040517ffce698f7000000000000000000000000000000000000000000000000000000008152600401612397919061267d565b60405180910390fd5b6003808111156123b3576123b2613b4a565b5b8260038111156123c6576123c5613b4a565b5b0361240857806040517fd78bce0c0000000000000000000000000000000000000000000000000000000081526004016123ff9190612d17565b60405180910390fd5b5b5050565b6060600061241a83612575565b90506000602067ffffffffffffffff811115612439576124386129aa565b5b6040519080825280601f01601f19166020018201604052801561246b5781602001600182028036833780820191505090505b5090508181528360208201528092505050919050565b60008060007f7fffffffffffffffffffffffffffffff5d576e7357a4501ddfe92f46681b20a08460001c11156124c157600060038592509250925061256b565b6000600188888888604051600081526020016040526040516124e69493929190613b95565b6020604051602081039080840390855afa158015612508573d6000803e3d6000fd5b505050602060405103519050600073ffffffffffffffffffffffffffffffffffffffff168173ffffffffffffffffffffffffffffffffffffffff160361255c57600060016000801b9350935093505061256b565b8060008060001b935093509350505b9450945094915050565b60008060ff8360001c169050601f8111156125bc576040517fb3512b0c00000000000000000000000000000000000000000000000000000000815260040160405180910390fd5b80915050919050565b6000604051905090565b600080fd5b600080fd5b600073ffffffffffffffffffffffffffffffffffffffff82169050919050565b6000612604826125d9565b9050919050565b612614816125f9565b811461261f57600080fd5b50565b6000813590506126318161260b565b92915050565b60006020828403121561264d5761264c6125cf565b5b600061265b84828501612622565b91505092915050565b6000819050919050565b61267781612664565b82525050565b6000602082019050612692600083018461266e565b92915050565b6000819050919050565b60006126bd6126b86126b3846125d9565b612698565b6125d9565b9050919050565b60006126cf826126a2565b9050919050565b60006126e1826126c4565b9050919050565b6126f1816126d6565b82525050565b600060208201905061270c60008301846126e8565b92915050565b61271b81612664565b811461272657600080fd5b50565b60008135905061273881612712565b92915050565b600060208284031215612754576127536125cf565b5b600061276284828501612729565b91505092915050565b60007fff0000000000000000000000000000000000000000000000000000000000000082169050919050565b6127a08161276b565b82525050565b600081519050919050565b600082825260208201905092915050565b60005b838110156127e05780820151818401526020810190506127c5565b60008484015250505050565b6000601f19601f8301169050919050565b6000612808826127a6565b61281281856127b1565b93506128228185602086016127c2565b61282b816127ec565b840191505092915050565b61283f816125f9565b82525050565b6000819050919050565b61285881612845565b82525050565b600081519050919050565b600082825260208201905092915050565b6000819050602082019050919050565b61289381612664565b82525050565b60006128a5838361288a565b60208301905092915050565b6000602082019050919050565b60006128c98261285e565b6128d38185612869565b93506128de8361287a565b8060005b8381101561290f5781516128f68882612899565b9750612901836128b1565b9250506001810190506128e2565b5085935050505092915050565b600060e082019050612931600083018a612797565b818103602083015261294381896127fd565b9050818103604083015261295781886127fd565b9050612966606083018761266e565b6129736080830186612836565b61298060a083018561284f565b81810360c083015261299281846128be565b905098975050505050505050565b600080fd5b600080fd5b7f4e487b7100000000000000000000000000000000000000000000000000000000600052604160045260246000fd5b6129e2826127ec565b810181811067ffffffffffffffff82111715612a0157612a006129aa565b5b80604052505050565b6000612a146125c5565b9050612a2082826129d9565b919050565b600067ffffffffffffffff821115612a4057612a3f6129aa565b5b612a49826127ec565b9050602081019050919050565b82818337600083830152505050565b6000612a78612a7384612a25565b612a0a565b905082815260208101848484011115612a9457612a936129a5565b5b612a9f848285612a56565b509392505050565b600082601f830112612abc57612abb6129a0565b5b8135612acc848260208601612a65565b91505092915050565b600060208284031215612aeb57612aea6125cf565b5b600082013567ffffffffffffffff811115612b0957612b086125d4565b5b612b1584828501612aa7565b91505092915050565b6000602082019050612b336000830184612836565b92915050565b600067ffffffffffffffff821115612b5457612b536129aa565b5b602082029050602081019050919050565b600080fd5b6000612b7d612b7884612b39565b612a0a565b90508083825260208201905060208402830185811115612ba057612b9f612b65565b5b835b81811015612be757803567ffffffffffffffff811115612bc557612bc46129a0565b5b808601612bd28982612aa7565b85526020850194505050602081019050612ba2565b5050509392505050565b600082601f830112612c0657612c056129a0565b5b8135612c16848260208601612b6a565b91505092915050565b600060208284031215612c3557612c346125cf565b5b600082013567ffffffffffffffff811115612c5357612c526125d4565b5b612c5f84828501612bf1565b91505092915050565b60006020820190508181036000830152612c8281846128be565b905092915050565b60008060008060008060c08789031215612ca757612ca66125cf565b5b6000612cb589828a01612622565b9650506020612cc689828a01612622565b9550506040612cd789828a01612729565b9450506060612ce889828a01612729565b9350506080612cf989828a01612729565b92505060a0612d0a89828a01612729565b9150509295509295509295565b6000602082019050612d2c600083018461284f565b92915050565b6000612d3d826126c4565b9050919050565b612d4d81612d32565b82525050565b6000602082019050612d686000830184612d44565b92915050565b600067ffffffffffffffff821115612d8957612d886129aa565b5b612d92826127ec565b9050602081019050919050565b6000612db2612dad84612d6e565b612a0a565b905082815260208101848484011115612dce57612dcd6129a5565b5b612dd9848285612a56565b509392505050565b600082601f830112612df657612df56129a0565b5b8135612e06848260208601612d9f565b91505092915050565b600080600080600080600060e0888a031215612e2e57612e2d6125cf565b5b6000612e3c8a828b01612622565b9750506020612e4d8a828b01612622565b9650506040612e5e8a828b01612729565b9550506060612e6f8a828b01612729565b9450506080612e808a828b01612729565b93505060a0612e918a828b01612729565b92505060c088013567ffffffffffffffff811115612eb257612eb16125d4565b5b612ebe8a828b01612de1565b91505092959891949750929550565b7f496e76616c696420746f6b656e20616464726573730000000000000000000000600082015250565b6000612f036015836127b1565b9150612f0e82612ecd565b602082019050919050565b60006020820190508181036000830152612f3281612ef6565b9050919050565b7f5072696365206d7573742062652067726561746572207468616e203000000000600082015250565b6000612f6f601c836127b1565b9150612f7a82612f39565b602082019050919050565b60006020820190508181036000830152612f9e81612f62565b9050919050565b6000604082019050612fba600083018561266e565b612fc7602083018461266e565b9392505050565b7f546f6b656e205552492063616e6e6f7420626520656d70747900000000000000600082015250565b60006130046019836127b1565b915061300f82612fce565b602082019050919050565b6000602082019050818103600083015261303381612ff7565b9050919050565b60008151905061304981612712565b92915050565b600060208284031215613065576130646125cf565b5b60006130738482850161303a565b91505092915050565b7f496e73756666696369656e74204441524b20746f6b656e2062616c616e636500600082015250565b60006130b2601f836127b1565b91506130bd8261307c565b602082019050919050565b600060208201905081810360008301526130e1816130a5565b9050919050565b60006040820190506130fd6000830185612836565b61310a6020830184612836565b9392505050565b7f496e73756666696369656e74204441524b20746f6b656e20616c6c6f77616e6360008201527f6500000000000000000000000000000000000000000000000000000000000000602082015250565b600061316d6021836127b1565b915061317882613111565b604082019050919050565b6000602082019050818103600083015261319c81613160565b9050919050565b60006060820190506131b86000830186612836565b6131c56020830185612836565b6131d2604083018461266e565b949350505050565b60008115159050919050565b6131ef816131da565b81146131fa57600080fd5b50565b60008151905061320c816131e6565b92915050565b600060208284031215613228576132276125cf565b5b6000613236848285016131fd565b91505092915050565b7f4441524b20746f6b656e207472616e73666572206661696c6564000000000000600082015250565b6000613275601a836127b1565b91506132808261323f565b602082019050919050565b600060208201905081810360008301526132a481613268565b9050919050565b60006040820190506132c06000830185612836565b81810360208301526132d281846127fd565b90509392505050565b7f4e6f204441524b20746f6b656e7320746f207769746864726177000000000000600082015250565b6000613311601a836127b1565b915061331c826132db565b602082019050919050565b6000602082019050818103600083015261334081613304565b9050919050565b600060408201905061335c6000830185612836565b613369602083018461266e565b9392505050565b7f5472616e73666572206661696c65640000000000000000000000000000000000600082015250565b60006133a6600f836127b1565b91506133b182613370565b602082019050919050565b600060208201905081810360008301526133d581613399565b9050919050565b7f4d7573742070726f76696465206174206c65617374206f6e6520746f6b656e2060008201527f5552490000000000000000000000000000000000000000000000000000000000602082015250565b60006134386023836127b1565b9150613443826133dc565b604082019050919050565b600060208201905081810360008301526134678161342b565b9050919050565b7f43616e6e6f74206d696e74206d6f7265207468616e203130204e46547320617460008201527f206f6e6365000000000000000000000000000000000000000000000000000000602082015250565b60006134ca6025836127b1565b91506134d58261346e565b604082019050919050565b600060208201905081810360008301526134f9816134bd565b9050919050565b7f4e487b7100000000000000000000000000000000000000000000000000000000600052601160045260246000fd5b600061353a82612664565b915061354583612664565b925082820261355381612664565b9150828204841483151761356a57613569613500565b5b5092915050565b7f4e487b7100000000000000000000000000000000000000000000000000000000600052603260045260246000fd5b600060e0820190506135b5600083018a61284f565b6135c26020830189612836565b6135cf6040830188612836565b6135dc606083018761266e565b6135e9608083018661266e565b6135f660a083018561266e565b61360360c083018461266e565b98975050505050505050565b7f496e76616c6964204e4654206164647265737300000000000000000000000000600082015250565b60006136456013836127b1565b91506136508261360f565b602082019050919050565b6000602082019050818103600083015261367481613638565b9050919050565b7f5369676e61747572652065787069726564000000000000000000000000000000600082015250565b60006136b16011836127b1565b91506136bc8261367b565b602082019050919050565b600060208201905081810360008301526136e0816136a4565b9050919050565b7f496e76616c6964206e6f6e636500000000000000000000000000000000000000600082015250565b600061371d600d836127b1565b9150613728826136e7565b602082019050919050565b6000602082019050818103600083015261374c81613710565b9050919050565b6000815190506137628161260b565b92915050565b60006020828403121561377e5761377d6125cf565b5b600061378c84828501613753565b91505092915050565b7f4e6f7420746f6b656e206f776e65720000000000000000000000000000000000600082015250565b60006137cb600f836127b1565b91506137d682613795565b602082019050919050565b600060208201905081810360008301526137fa816137be565b9050919050565b7f496e76616c696420726563697069656e74000000000000000000000000000000600082015250565b60006138376011836127b1565b915061384282613801565b602082019050919050565b600060208201905081810360008301526138668161382a565b9050919050565b600081519050919050565b600082825260208201905092915050565b60006138948261386d565b61389e8185613878565b93506138ae8185602086016127c2565b6138b7816127ec565b840191505092915050565b60006040820190506138d7600083018561284f565b81810360208301526138e98184613889565b90509392505050565b60007fffffffff0000000000000000000000000000000000000000000000000000000082169050919050565b613927816138f2565b811461393257600080fd5b50565b6000815190506139448161391e565b92915050565b6000602082840312156139605761395f6125cf565b5b600061396e84828501613935565b91505092915050565b7f496e76616c696420736d6172742077616c6c6574207369676e61747572650000600082015250565b60006139ad601e836127b1565b91506139b882613977565b602082019050919050565b600060208201905081810360008301526139dc816139a0565b9050919050565b7f496e76616c6964207369676e6174757265000000000000000000000000000000600082015250565b6000613a196011836127b1565b9150613a24826139e3565b602082019050919050565b60006020820190508181036000830152613a4881613a0c565b9050919050565b6000613a5a82612664565b91507fffffffffffffffffffffffffffffffffffffffffffffffffffffffffffffffff8203613a8c57613a8b613500565b5b600182019050919050565b7f4e487b7100000000000000000000000000000000000000000000000000000000600052602260045260246000fd5b60006002820490506001821680613ade57607f821691505b602082108103613af157613af0613a97565b5b50919050565b600060a082019050613b0c600083018861284f565b613b19602083018761284f565b613b26604083018661284f565b613b33606083018561266e565b613b406080830184612836565b9695505050505050565b7f4e487b7100000000000000000000000000000000000000000000000000000000600052602160045260246000fd5b600060ff82169050919050565b613b8f81613b79565b82525050565b6000608082019050613baa600083018761284f565b613bb76020830186613b86565b613bc4604083018561284f565b613bd1606083018461284f565b9594505050505056fea264697066735822122053917d1b8a773c752b40332465bcd64927313e785b9b7f3190b892978b4c1cd864736f6c634300081c0033",
  "linkReferences": {},
  "deployedLinkReferences": {}
}