{
  "_format": "hh-sol-artifact-1",
  "contractName": "CrownPurchase",
  "sourceName": "contracts/CrownPurchase.sol",
  "abi": [
    {
      "inputs": [
        {
          "internalType": "address",
          "name": "_darkToken",
          "type": "address"
        },
        {
          "internalType": "address",
          "name": "_crownNFT",
          "type": "address"
        }
      ],
      "stateMutability": "nonpayable",
      "type": "constructor"
    },
    {
      "inputs": [],
      "name": "ECDSAInvalidSignature",
      "type": "error"
    },
    {
      "inputs": [
        {
          "internalType": "uint256",
          "name": "length",
          "type": "uint256"
        }
      ],
      "name": "ECDSAInvalidSignatureLength",
      "type": "error"
    },
    {
      "inputs": [
        {
          "internalType": "bytes32",
          "name": "s",
          "type": "bytes32"
        }
      ],
      "name": "ECDSAInvalidSignatureS",
      "type": "error"
    },
    {
      "inputs": [],
      "name": "InvalidShortString",
      "type": "error"
    },
    {
      "inputs": [
        {
          "internalType": "address",
          "name": "owner",
          "type": "address"
        }
      ],
      "name": "OwnableInvalidOwner",
      "type": "error"
    },
    {
      "inputs": [
        {
          "internalType": "address",
          "name": "account",
          "type": "address"
        }
      ],
      "name": "OwnableUnauthorizedAccount",
      "type": "error"
    },
    {
      "inputs": [
        {
          "internalType": "string",
          "name": "str",
          "type": "string"
        }
      ],
      "name": "StringTooLong",
      "type": "error"
    },
    {
      "anonymous": false,
      "inputs": [],
      "name": "EIP712DomainChanged",
      "type": "event"
    },
    {
      "anonymous": false,
      "inputs": [
        {
          "indexed": true,
          "internalType": "address",
          "name": "from",
          "type": "address"
        },
        {
          "indexed": true,
          "internalType": "address",
          "name": "to",
          "type": "address"
        },
        {
          "indexed": true,
          "internalType": "uint256",
          "name": "tokenId",
          "type": "uint256"
        },
        {
          "indexed": false,
          "internalType": "uint256",
          "name": "price",
          "type": "uint256"
        }
      ],
      "name": "MarketplaceTransfer",
      "type": "event"
    },
    {
      "anonymous": false,
      "inputs": [
        {
          "indexed": true,
          "internalType": "address",
          "name": "buyer",
          "type": "address"
        },
        {
          "indexed": true,
          "internalType": "uint256",
          "name": "tokenId",
          "type": "uint256"
        },
        {
          "indexed": false,
          "internalType": "uint256",
          "name": "price",
          "type": "uint256"
        }
      ],
      "name": "NFTPurchased",
      "type": "event"
    },
    {
      "anonymous": false,
      "inputs": [
        {
          "indexed": true,
          "internalType": "address",
          "name": "previousOwner",
          "type": "address"
        },
        {
          "indexed": true,
          "internalType": "address",
          "name": "newOwner",
          "type": "address"
        }
      ],
      "name": "OwnershipTransferred",
      "type": "event"
    },
    {
      "anonymous": false,
      "inputs": [
        {
          "indexed": false,
          "internalType": "uint256",
          "name": "oldPrice",
          "type": "uint256"
        },
        {
          "indexed": false,
          "internalType": "uint256",
          "name": "newPrice",
          "type": "uint256"
        }
      ],
      "name": "PriceUpdated",
      "type": "event"
    },
    {
      "inputs": [],
      "name": "authorizedSigner",
      "outputs": [
        {
          "internalType": "address",
          "name": "",
          "type": "address"
        }
      ],
      "stateMutability": "view",
      "type": "function"
    },
    {
      "inputs": [
        {
          "internalType": "string[]",
          "name": "tokenURIs",
          "type": "string[]"
        }
      ],
      "name": "buyMultipleNFTs",
      "outputs": [
        {
          "internalType": "uint256[]",
          "name": "",
          "type": "uint256[]"
        }
      ],
      "stateMutability": "nonpayable",
      "type": "function"
    },
    {
      "inputs": [
        {
          "internalType": "string",
          "name": "tokenURI",
          "type": "string"
        }
      ],
      "name": "buyNFT",
      "outputs": [
        {
          "internalType": "uint256",
          "name": "",
          "type": "uint256"
        }
      ],
      "stateMutability": "nonpayable",
      "type": "function"
    },
    {
      "inputs": [],
      "name": "crownNFT",
      "outputs": [
        {
          "internalType": "contract ICrownNFT",
          "name": "",
          "type": "address"
        }
      ],
      "stateMutability": "view",
      "type": "function"
    },
    {
      "inputs": [],
      "name": "darkToken",
      "outputs": [
        {
          "internalType": "contract IERC20",
          "name": "",
          "type": "address"
        }
      ],
      "stateMutability": "view",
      "type": "function"
    },
    {
      "inputs": [],
      "name": "eip712Domain",
      "outputs": [
        {
          "internalType": "bytes1",
          "name": "fields",
          "type": "bytes1"
        },
        {
          "internalType": "string",
          "name": "name",
          "type": "string"
        },
        {
          "internalType": "string",
          "name": "version",
          "type": "string"
        },
        {
          "internalType": "uint256",
          "name": "chainId",
          "type": "uint256"
        },
        {
          "internalType": "address",
          "name": "verifyingContract",
          "type": "address"
        },
        {
          "internalType": "bytes32",
          "name": "salt",
          "type": "bytes32"
        },
        {
          "internalType": "uint256[]",
          "name": "extensions",
          "type": "uint256[]"
        }
      ],
      "stateMutability": "view",
      "type": "function"
    },
    {
      "inputs": [],
      "name": "getDomainSeparator",
      "outputs": [
        {
          "internalType": "bytes32",
          "name": "",
          "type": "bytes32"
        }
      ],
      "stateMutability": "view",
      "type": "function"
    },
    {
      "inputs": [],
      "name": "getNFTPrice",
      "outputs": [
        {
          "internalType": "uint256",
          "name": "",
          "type": "uint256"
        }
      ],
      "stateMutability": "view",
      "type": "function"
    },
    {
      "inputs": [],
      "name": "getNextTokenId",
      "outputs": [
        {
          "internalType": "uint256",
          "name": "",
          "type": "uint256"
        }
      ],
      "stateMutability": "view",
      "type": "function"
    },
    {
      "inputs": [
        {
          "internalType": "address",
          "name": "from",
          "type": "address"
        },
        {
          "internalType": "address",
          "name": "to",
          "type": "address"
        },
        {
          "internalType": "uint256",
          "name": "tokenId",
          "type": "uint256"
        },
        {
          "internalType": "uint256",
          "name": "price",
          "type": "uint256"
        },
        {
          "internalType": "uint256",
          "name": "deadline",
          "type": "uint256"
        },
        {
          "internalType": "uint256",
          "name": "nonce",
          "type": "uint256"
        }
      ],
      "name": "getTransferHash",
      "outputs": [
        {
          "internalType": "bytes32",
          "name": "",
          "type": "bytes32"
        }
      ],
      "stateMutability": "view",
      "type": "function"
    },
    {
      "inputs": [],
      "name": "nftPrice",
      "outputs": [
        {
          "internalType": "uint256",
          "name": "",
          "type": "uint256"
        }
      ],
      "stateMutability": "view",
      "type": "function"
    },
    {
      "inputs": [
        {
          "internalType": "address",
          "name": "",
          "type": "address"
        }
      ],
      "name": "nonces",
      "outputs": [
        {
          "internalType": "uint256",
          "name": "",
          "type": "uint256"
        }
      ],
      "stateMutability": "view",
      "type": "function"
    },
    {
      "inputs": [],
      "name": "owner",
      "outputs": [
        {
          "internalType": "address",
          "name": "",
          "type": "address"
        }
      ],
      "stateMutability": "view",
      "type": "function"
    },
    {
      "inputs": [],
      "name": "renounceOwnership",
      "outputs": [],
      "stateMutability": "nonpayable",
      "type": "function"
    },
    {
      "inputs": [
        {
          "internalType": "address",
          "name": "_signer",
          "type": "address"
        }
      ],
      "name": "setAuthorizedSigner",
      "outputs": [],
      "stateMutability": "nonpayable",
      "type": "function"
    },
    {
      "inputs": [
        {
          "internalType": "address",
          "name": "_crownNFT",
          "type": "address"
        }
      ],
      "name": "setCrownNFT",
      "outputs": [],
      "stateMutability": "nonpayable",
      "type": "function"
    },
    {
      "inputs": [
        {
          "internalType": "address",
          "name": "_darkToken",
          "type": "address"
        }
      ],
      "name": "setDarkToken",
      "outputs": [],
      "stateMutability": "nonpayable",
      "type": "function"
    },
    {
      "inputs": [
        {
          "internalType": "uint256",
          "name": "_newPrice",
          "type": "uint256"
        }
      ],
      "name": "setNFTPrice",
      "outputs": [],
      "stateMutability": "nonpayable",
      "type": "function"
    },
    {
      "inputs": [
        {
          "internalType": "address",
          "name": "newOwner",
          "type": "address"
        }
      ],
      "name": "transferOwnership",
      "outputs": [],
      "stateMutability": "nonpayable",
      "type": "function"
    },
    {
      "inputs": [
        {
          "internalType": "address",
          "name": "from",
          "type": "address"
        },
        {
          "internalType": "address",
          "name": "to",
          "type": "address"
        },
        {
          "internalType": "uint256",
          "name": "tokenId",
          "type": "uint256"
        },
        {
          "internalType": "uint256",
          "name": "price",
          "type": "uint256"
        },
        {
          "internalType": "uint256",
          "name": "deadline",
          "type": "uint256"
        },
        {
          "internalType": "uint256",
          "name": "nonce",
          "type": "uint256"
        },
        {
          "internalType": "bytes",
          "name": "signature",
          "type": "bytes"
        }
      ],
      "name": "transferWithSignature",
      "outputs": [],
      "stateMutability": "payable",
      "type": "function"
    },
    {
      "inputs": [],
      "name": "withdrawDarkTokens",
      "outputs": [],
      "stateMutability": "nonpayable",
      "type": "function"
    }
  ],
  "bytecode": "0x610160604052678ac7230489e8000060055534801561001d57600080fd5b50604051614410380380614410833981810160405281019061003f91906104e6565b6040518060400160405280600d81526020017f43726f776e5075726368617365000000000000000000000000000000000000008152506040518060400160405280600181526020017f310000000000000000000000000000000000000000000000000000000000000081525033600073ffffffffffffffffffffffffffffffffffffffff168173ffffffffffffffffffffffffffffffffffffffff160361011e5760006040517f1e4fbdf70000000000000000000000000000000000000000000000000000000081526004016101159190610535565b60405180910390fd5b61012d816102a260201b60201c565b5061014260018361036660201b90919060201c565b610120818152505061015e60028261036660201b90919060201c565b6101408181525050818051906020012060e08181525050808051906020012061010081815250504660a0818152505061019b6103b660201b60201c565b608081815250503073ffffffffffffffffffffffffffffffffffffffff1660c08173ffffffffffffffffffffffffffffffffffffffff1681525050505081600360006101000a81548173ffffffffffffffffffffffffffffffffffffffff021916908373ffffffffffffffffffffffffffffffffffffffff16021790555080600460006101000a81548173ffffffffffffffffffffffffffffffffffffffff021916908373ffffffffffffffffffffffffffffffffffffffff16021790555033600760006101000a81548173ffffffffffffffffffffffffffffffffffffffff021916908373ffffffffffffffffffffffffffffffffffffffff1602179055505050610a2b565b60008060009054906101000a900473ffffffffffffffffffffffffffffffffffffffff169050816000806101000a81548173ffffffffffffffffffffffffffffffffffffffff021916908373ffffffffffffffffffffffffffffffffffffffff1602179055508173ffffffffffffffffffffffffffffffffffffffff168173ffffffffffffffffffffffffffffffffffffffff167f8be0079c531659141344cd1fd0a4f28419497f9722a3daafe3b4186f6b6457e060405160405180910390a35050565b6000602083511015610388576103818361041160201b60201c565b90506103b0565b826103988361047960201b60201c565b60000190816103a791906107a0565b5060ff60001b90505b92915050565b60007f8b73c3c69bb8fe3d512ecc4cf759cc79239f7b179b0ffacaa9a75d522b39400f60e0516101005146306040516020016103f695949392919061089a565b60405160208183030381529060405280519060200120905090565b600080829050601f8151111561045e57826040517f305a27a90000000000000000000000000000000000000000000000000000000081526004016104559190610972565b60405180910390fd5b80518161046a906109c4565b60001c1760001b915050919050565b6000819050919050565b600080fd5b600073ffffffffffffffffffffffffffffffffffffffff82169050919050565b60006104b382610488565b9050919050565b6104c3816104a8565b81146104ce57600080fd5b50565b6000815190506104e0816104ba565b92915050565b600080604083850312156104fd576104fc610483565b5b600061050b858286016104d1565b925050602061051c858286016104d1565b9150509250929050565b61052f816104a8565b82525050565b600060208201905061054a6000830184610526565b92915050565b600081519050919050565b7f4e487b7100000000000000000000000000000000000000000000000000000000600052604160045260246000fd5b7f4e487b7100000000000000000000000000000000000000000000000000000000600052602260045260246000fd5b600060028204905060018216806105d157607f821691505b6020821081036105e4576105e361058a565b5b50919050565b60008190508160005260206000209050919050565b60006020601f8301049050919050565b600082821b905092915050565b60006008830261064c7fffffffffffffffffffffffffffffffffffffffffffffffffffffffffffffffff8261060f565b610656868361060f565b95508019841693508086168417925050509392505050565b6000819050919050565b6000819050919050565b600061069d6106986106938461066e565b610678565b61066e565b9050919050565b6000819050919050565b6106b783610682565b6106cb6106c3826106a4565b84845461061c565b825550505050565b600090565b6106e06106d3565b6106eb8184846106ae565b505050565b5b8181101561070f576107046000826106d8565b6001810190506106f1565b5050565b601f82111561075457610725816105ea565b61072e846105ff565b8101602085101561073d578190505b610751610749856105ff565b8301826106f0565b50505b505050565b600082821c905092915050565b600061077760001984600802610759565b1980831691505092915050565b60006107908383610766565b9150826002028217905092915050565b6107a982610550565b67ffffffffffffffff8111156107c2576107c161055b565b5b6107cc82546105b9565b6107d7828285610713565b600060209050601f83116001811461080a57600084156107f8578287015190505b6108028582610784565b86555061086a565b601f198416610818866105ea565b60005b828110156108405784890151825560018201915060208501945060208101905061081b565b8683101561085d5784890151610859601f891682610766565b8355505b6001600288020188555050505b505050505050565b6000819050919050565b61088581610872565b82525050565b6108948161066e565b82525050565b600060a0820190506108af600083018861087c565b6108bc602083018761087c565b6108c9604083018661087c565b6108d6606083018561088b565b6108e36080830184610526565b9695505050505050565b600082825260208201905092915050565b60005b8381101561091c578082015181840152602081019050610901565b60008484015250505050565b6000601f19601f8301169050919050565b600061094482610550565b61094e81856108ed565b935061095e8185602086016108fe565b61096781610928565b840191505092915050565b6000602082019050818103600083015261098c8184610939565b905092915050565b600081519050919050565b6000819050602082019050919050565b60006109bb8251610872565b80915050919050565b60006109cf82610994565b826109d98461099f565b90506109e4816109af565b92506020821015610a2457610a1f7fffffffffffffffffffffffffffffffffffffffffffffffffffffffffffffffff8360200360080261060f565b831692505b5050919050565b60805160a05160c05160e05161010051610120516101405161398b610a856000396000611e8001526000611e45015260006120ee015260006120cd01526000611ed001526000611f2601526000611f4f015261398b6000f3fe60806040526004361061012a5760003560e01c8063bcd83824116100ab578063d63323321161006f578063d6332332146103d4578063ed241eb0146103ff578063ed24911d14610428578063f0bfa41614610453578063f2fde38b1461046f578063fb107a4f146104985761012a565b8063bcd83824146102db578063c771909c14610318578063c89e43e814610343578063caa0f92a14610380578063d279b0ca146103ab5761012a565b806381530b68116100f257806381530b681461020257806384b0196e1461022b5780638d0123001461025c5780638da5cb5b1461029957806391940680146102c45761012a565b806301338ff01461012f5780630d39fc81146101585780632acfc2ca14610183578063715018a6146101ae5780637ecebe00146101c5575b600080fd5b34801561013b57600080fd5b5061015660048036038101906101519190612528565b6104c3565b005b34801561016457600080fd5b5061016d61057e565b60405161017a919061256e565b60405180910390f35b34801561018f57600080fd5b50610198610584565b6040516101a591906125e8565b60405180910390f35b3480156101ba57600080fd5b506101c36105aa565b005b3480156101d157600080fd5b506101ec60048036038101906101e79190612528565b6105be565b6040516101f9919061256e565b60405180910390f35b34801561020e57600080fd5b506102296004803603810190610224919061262f565b6105d6565b005b34801561023757600080fd5b5061024061066c565b604051610253979695949392919061280d565b60405180910390f35b34801561026857600080fd5b50610283600480360381019061027e91906129c6565b610716565b604051610290919061256e565b60405180910390f35b3480156102a557600080fd5b506102ae610afe565b6040516102bb9190612a0f565b60405180910390f35b3480156102d057600080fd5b506102d9610b27565b005b3480156102e757600080fd5b5061030260048036038101906102fd9190612b10565b610cfb565b60405161030f9190612b59565b60405180910390f35b34801561032457600080fd5b5061032d611238565b60405161033a9190612a0f565b60405180910390f35b34801561034f57600080fd5b5061036a60048036038101906103659190612b7b565b61125e565b6040516103779190612c08565b60405180910390f35b34801561038c57600080fd5b506103956112cc565b6040516103a2919061256e565b60405180910390f35b3480156103b757600080fd5b506103d260048036038101906103cd9190612528565b611364565b005b3480156103e057600080fd5b506103e96113b0565b6040516103f69190612c44565b60405180910390f35b34801561040b57600080fd5b5061042660048036038101906104219190612528565b6113d6565b005b34801561043457600080fd5b5061043d611491565b60405161044a9190612c08565b60405180910390f35b61046d60048036038101906104689190612d00565b6114a0565b005b34801561047b57600080fd5b5061049660048036038101906104919190612528565b611c61565b005b3480156104a457600080fd5b506104ad611ce7565b6040516104ba919061256e565b60405180910390f35b6104cb611cf1565b600073ffffffffffffffffffffffffffffffffffffffff168173ffffffffffffffffffffffffffffffffffffffff160361053a576040517f08c379a000000000000000000000000000000000000000000000000000000000815260040161053190612e0a565b60405180910390fd5b80600360006101000a81548173ffffffffffffffffffffffffffffffffffffffff021916908373ffffffffffffffffffffffffffffffffffffffff16021790555050565b60055481565b600360009054906101000a900473ffffffffffffffffffffffffffffffffffffffff1681565b6105b2611cf1565b6105bc6000611d78565b565b60066020528060005260406000206000915090505481565b6105de611cf1565b60008111610621576040517f08c379a000000000000000000000000000000000000000000000000000000000815260040161061890612e76565b60405180910390fd5b60006005549050816005819055507f945c1c4e99aa89f648fbfe3df471b916f719e16d960fcec0737d4d56bd6968388183604051610660929190612e96565b60405180910390a15050565b600060608060008060006060610680611e3c565b610688611e77565b46306000801b600067ffffffffffffffff8111156106a9576106a861289b565b5b6040519080825280602002602001820160405280156106d75781602001602082028036833780820191505090505b507f0f00000000000000000000000000000000000000000000000000000000000000959493929190965096509650965096509650965090919293949596565b60008082511161075b576040517f08c379a000000000000000000000000000000000000000000000000000000000815260040161075290612f0b565b60405180910390fd5b600554600360009054906101000a900473ffffffffffffffffffffffffffffffffffffffff1673ffffffffffffffffffffffffffffffffffffffff166370a08231336040518263ffffffff1660e01b81526004016107b99190612a0f565b602060405180830381865afa1580156107d6573d6000803e3d6000fd5b505050506040513d601f19601f820116820180604052508101906107fa9190612f40565b101561083b576040517f08c379a000000000000000000000000000000000000000000000000000000000815260040161083290612fb9565b60405180910390fd5b600554600360009054906101000a900473ffffffffffffffffffffffffffffffffffffffff1673ffffffffffffffffffffffffffffffffffffffff1663dd62ed3e33306040518363ffffffff1660e01b815260040161089b929190612fd9565b602060405180830381865afa1580156108b8573d6000803e3d6000fd5b505050506040513d601f19601f820116820180604052508101906108dc9190612f40565b101561091d576040517f08c379a000000000000000000000000000000000000000000000000000000000815260040161091490613074565b60405180910390fd5b600360009054906101000a900473ffffffffffffffffffffffffffffffffffffffff1673ffffffffffffffffffffffffffffffffffffffff166323b872dd33306005546040518463ffffffff1660e01b815260040161097e93929190613094565b6020604051808303816000875af115801561099d573d6000803e3d6000fd5b505050506040513d601f19601f820116820180604052508101906109c19190613103565b610a00576040517f08c379a00000000000000000000000000000000000000000000000000000000081526004016109f79061317c565b60405180910390fd5b6000600460009054906101000a900473ffffffffffffffffffffffffffffffffffffffff1673ffffffffffffffffffffffffffffffffffffffff1663d0def52133856040518363ffffffff1660e01b8152600401610a5f92919061319c565b6020604051808303816000875af1158015610a7e573d6000803e3d6000fd5b505050506040513d601f19601f82011682018060405250810190610aa29190612f40565b9050803373ffffffffffffffffffffffffffffffffffffffff167fa6d32bfcc7cd31e4d5ee7adeef7edd500cab0e64b4a494de4f832d41fd70f56d600554604051610aed919061256e565b60405180910390a380915050919050565b60008060009054906101000a900473ffffffffffffffffffffffffffffffffffffffff16905090565b610b2f611cf1565b6000600360009054906101000a900473ffffffffffffffffffffffffffffffffffffffff1673ffffffffffffffffffffffffffffffffffffffff166370a08231306040518263ffffffff1660e01b8152600401610b8c9190612a0f565b602060405180830381865afa158015610ba9573d6000803e3d6000fd5b505050506040513d601f19601f82011682018060405250810190610bcd9190612f40565b905060008111610c12576040517f08c379a0000000000000000000000000000000000000000000000000000000008152600401610c0990613218565b60405180910390fd5b600360009054906101000a900473ffffffffffffffffffffffffffffffffffffffff1673ffffffffffffffffffffffffffffffffffffffff1663a9059cbb610c58610afe565b836040518363ffffffff1660e01b8152600401610c76929190613238565b6020604051808303816000875af1158015610c95573d6000803e3d6000fd5b505050506040513d601f19601f82011682018060405250810190610cb99190613103565b610cf8576040517f08c379a0000000000000000000000000000000000000000000000000000000008152600401610cef906132ad565b60405180910390fd5b50565b60606000825111610d41576040517f08c379a0000000000000000000000000000000000000000000000000000000008152600401610d389061333f565b60405180910390fd5b600a82511115610d86576040517f08c379a0000000000000000000000000000000000000000000000000000000008152600401610d7d906133d1565b60405180910390fd5b60008251600554610d979190613420565b905080600360009054906101000a900473ffffffffffffffffffffffffffffffffffffffff1673ffffffffffffffffffffffffffffffffffffffff166370a08231336040518263ffffffff1660e01b8152600401610df59190612a0f565b602060405180830381865afa158015610e12573d6000803e3d6000fd5b505050506040513d601f19601f82011682018060405250810190610e369190612f40565b1015610e77576040517f08c379a0000000000000000000000000000000000000000000000000000000008152600401610e6e90612fb9565b60405180910390fd5b80600360009054906101000a900473ffffffffffffffffffffffffffffffffffffffff1673ffffffffffffffffffffffffffffffffffffffff1663dd62ed3e33306040518363ffffffff1660e01b8152600401610ed5929190612fd9565b602060405180830381865afa158015610ef2573d6000803e3d6000fd5b505050506040513d601f19601f82011682018060405250810190610f169190612f40565b1015610f57576040517f08c379a0000000000000000000000000000000000000000000000000000000008152600401610f4e90613074565b60405180910390fd5b600360009054906101000a900473ffffffffffffffffffffffffffffffffffffffff1673ffffffffffffffffffffffffffffffffffffffff166323b872dd3330846040518463ffffffff1660e01b8152600401610fb693929190613094565b6020604051808303816000875af1158015610fd5573d6000803e3d6000fd5b505050506040513d601f19601f82011682018060405250810190610ff99190613103565b611038576040517f08c379a000000000000000000000000000000000000000000000000000000000815260040161102f9061317c565b60405180910390fd5b6000835167ffffffffffffffff8111156110555761105461289b565b5b6040519080825280602002602001820160405280156110835781602001602082028036833780820191505090505b50905060005b845181101561122d5760008582815181106110a7576110a6613462565b5b602002602001015151116110f0576040517f08c379a00000000000000000000000000000000000000000000000000000000081526004016110e790612f0b565b60405180910390fd5b6000600460009054906101000a900473ffffffffffffffffffffffffffffffffffffffff1673ffffffffffffffffffffffffffffffffffffffff1663d0def5213388858151811061114457611143613462565b5b60200260200101516040518363ffffffff1660e01b815260040161116992919061319c565b6020604051808303816000875af1158015611188573d6000803e3d6000fd5b505050506040513d601f19601f820116820180604052508101906111ac9190612f40565b9050808383815181106111c2576111c1613462565b5b602002602001018181525050803373ffffffffffffffffffffffffffffffffffffffff167fa6d32bfcc7cd31e4d5ee7adeef7edd500cab0e64b4a494de4f832d41fd70f56d600554604051611217919061256e565b60405180910390a3508080600101915050611089565b508092505050919050565b600760009054906101000a900473ffffffffffffffffffffffffffffffffffffffff1681565b6000807f85307254b14fb6d5805a16dc88aac6883d41e6b0b34900b567a02d0847177b5d88888888888860405160200161129e9796959493929190613491565b6040516020818303038152906040528051906020012090506112bf81611eb2565b9150509695505050505050565b6000600460009054906101000a900473ffffffffffffffffffffffffffffffffffffffff1673ffffffffffffffffffffffffffffffffffffffff166375794a3c6040518163ffffffff1660e01b8152600401602060405180830381865afa15801561133b573d6000803e3d6000fd5b505050506040513d601f19601f8201168201806040525081019061135f9190612f40565b905090565b61136c611cf1565b80600760006101000a81548173ffffffffffffffffffffffffffffffffffffffff021916908373ffffffffffffffffffffffffffffffffffffffff16021790555050565b600460009054906101000a900473ffffffffffffffffffffffffffffffffffffffff1681565b6113de611cf1565b600073ffffffffffffffffffffffffffffffffffffffff168173ffffffffffffffffffffffffffffffffffffffff160361144d576040517f08c379a00000000000000000000000000000000000000000000000000000000081526004016114449061354c565b60405180910390fd5b80600460006101000a81548173ffffffffffffffffffffffffffffffffffffffff021916908373ffffffffffffffffffffffffffffffffffffffff16021790555050565b600061149b611ecc565b905090565b824211156114e3576040517f08c379a00000000000000000000000000000000000000000000000000000000081526004016114da906135b8565b60405180910390fd5b600660008873ffffffffffffffffffffffffffffffffffffffff1673ffffffffffffffffffffffffffffffffffffffff168152602001908152602001600020548214611564576040517f08c379a000000000000000000000000000000000000000000000000000000000815260040161155b90613624565b60405180910390fd5b8673ffffffffffffffffffffffffffffffffffffffff16600460009054906101000a900473ffffffffffffffffffffffffffffffffffffffff1673ffffffffffffffffffffffffffffffffffffffff16636352211e876040518263ffffffff1660e01b81526004016115d6919061256e565b602060405180830381865afa1580156115f3573d6000803e3d6000fd5b505050506040513d601f19601f820116820180604052508101906116179190613659565b73ffffffffffffffffffffffffffffffffffffffff161461166d576040517f08c379a0000000000000000000000000000000000000000000000000000000008152600401611664906136d2565b60405180910390fd5b600073ffffffffffffffffffffffffffffffffffffffff168673ffffffffffffffffffffffffffffffffffffffff16036116dc576040517f08c379a00000000000000000000000000000000000000000000000000000000081526004016116d39061373e565b60405180910390fd5b60007f85307254b14fb6d5805a16dc88aac6883d41e6b0b34900b567a02d0847177b5d88888888888860405160200161171b9796959493929190613491565b604051602081830303815290604052805190602001209050600061173e82611eb2565b905060006117558483611f8390919063ffffffff16565b9050600460009054906101000a900473ffffffffffffffffffffffffffffffffffffffff1673ffffffffffffffffffffffffffffffffffffffff16636352211e896040518263ffffffff1660e01b81526004016117b2919061256e565b602060405180830381865afa1580156117cf573d6000803e3d6000fd5b505050506040513d601f19601f820116820180604052508101906117f39190613659565b73ffffffffffffffffffffffffffffffffffffffff168173ffffffffffffffffffffffffffffffffffffffff1614611860576040517f08c379a0000000000000000000000000000000000000000000000000000000008152600401611857906137aa565b60405180910390fd5b600660008b73ffffffffffffffffffffffffffffffffffffffff1673ffffffffffffffffffffffffffffffffffffffff16815260200190815260200160002060008154809291906118b0906137ca565b91905055506000871115611b5e5786600360009054906101000a900473ffffffffffffffffffffffffffffffffffffffff1673ffffffffffffffffffffffffffffffffffffffff166370a08231336040518263ffffffff1660e01b815260040161191a9190612a0f565b602060405180830381865afa158015611937573d6000803e3d6000fd5b505050506040513d601f19601f8201168201806040525081019061195b9190612f40565b101561199c576040517f08c379a000000000000000000000000000000000000000000000000000000000815260040161199390612fb9565b60405180910390fd5b86600360009054906101000a900473ffffffffffffffffffffffffffffffffffffffff1673ffffffffffffffffffffffffffffffffffffffff1663dd62ed3e33306040518363ffffffff1660e01b81526004016119fa929190612fd9565b602060405180830381865afa158015611a17573d6000803e3d6000fd5b505050506040513d601f19601f82011682018060405250810190611a3b9190612f40565b1015611a7c576040517f08c379a0000000000000000000000000000000000000000000000000000000008152600401611a7390613074565b60405180910390fd5b600360009054906101000a900473ffffffffffffffffffffffffffffffffffffffff1673ffffffffffffffffffffffffffffffffffffffff166323b872dd338c8a6040518463ffffffff1660e01b8152600401611adb93929190613094565b6020604051808303816000875af1158015611afa573d6000803e3d6000fd5b505050506040513d601f19601f82011682018060405250810190611b1e9190613103565b611b5d576040517f08c379a0000000000000000000000000000000000000000000000000000000008152600401611b549061317c565b60405180910390fd5b5b600460009054906101000a900473ffffffffffffffffffffffffffffffffffffffff1673ffffffffffffffffffffffffffffffffffffffff16632139556b8b8b8b6040518463ffffffff1660e01b8152600401611bbd93929190613094565b600060405180830381600087803b158015611bd757600080fd5b505af1158015611beb573d6000803e3d6000fd5b50505050878973ffffffffffffffffffffffffffffffffffffffff168b73ffffffffffffffffffffffffffffffffffffffff167ffad4695f5191853d911a72c8179e4e7d7cc4d6cd508c48cea563282d249e71f08a604051611c4d919061256e565b60405180910390a450505050505050505050565b611c69611cf1565b600073ffffffffffffffffffffffffffffffffffffffff168173ffffffffffffffffffffffffffffffffffffffff1603611cdb5760006040517f1e4fbdf7000000000000000000000000000000000000000000000000000000008152600401611cd29190612a0f565b60405180910390fd5b611ce481611d78565b50565b6000600554905090565b611cf9611faf565b73ffffffffffffffffffffffffffffffffffffffff16611d17610afe565b73ffffffffffffffffffffffffffffffffffffffff1614611d7657611d3a611faf565b6040517f118cdaa7000000000000000000000000000000000000000000000000000000008152600401611d6d9190612a0f565b60405180910390fd5b565b60008060009054906101000a900473ffffffffffffffffffffffffffffffffffffffff169050816000806101000a81548173ffffffffffffffffffffffffffffffffffffffff021916908373ffffffffffffffffffffffffffffffffffffffff1602179055508173ffffffffffffffffffffffffffffffffffffffff168173ffffffffffffffffffffffffffffffffffffffff167f8be0079c531659141344cd1fd0a4f28419497f9722a3daafe3b4186f6b6457e060405160405180910390a35050565b6060611e7260017f0000000000000000000000000000000000000000000000000000000000000000611fb790919063ffffffff16565b905090565b6060611ead60027f0000000000000000000000000000000000000000000000000000000000000000611fb790919063ffffffff16565b905090565b6000611ec5611ebf611ecc565b83612067565b9050919050565b60007f000000000000000000000000000000000000000000000000000000000000000073ffffffffffffffffffffffffffffffffffffffff163073ffffffffffffffffffffffffffffffffffffffff16148015611f4857507f000000000000000000000000000000000000000000000000000000000000000046145b15611f75577f00000000000000000000000000000000000000000000000000000000000000009050611f80565b611f7d6120a8565b90505b90565b600080600080611f93868661213e565b925092509250611fa3828261219a565b82935050505092915050565b600033905090565b606060ff60001b8314611fd457611fcd836122fe565b9050612061565b818054611fe090613841565b80601f016020809104026020016040519081016040528092919081815260200182805461200c90613841565b80156120595780601f1061202e57610100808354040283529160200191612059565b820191906000526020600020905b81548152906001019060200180831161203c57829003601f168201915b505050505090505b92915050565b60006040517f190100000000000000000000000000000000000000000000000000000000000081528360028201528260228201526042812091505092915050565b60007f8b73c3c69bb8fe3d512ecc4cf759cc79239f7b179b0ffacaa9a75d522b39400f7f00000000000000000000000000000000000000000000000000000000000000007f00000000000000000000000000000000000000000000000000000000000000004630604051602001612123959493929190613872565b60405160208183030381529060405280519060200120905090565b600080600060418451036121835760008060006020870151925060408701519150606087015160001a905061217588828585612372565b955095509550505050612193565b60006002855160001b9250925092505b9250925092565b600060038111156121ae576121ad6138c5565b5b8260038111156121c1576121c06138c5565b5b03156122fa57600160038111156121db576121da6138c5565b5b8260038111156121ee576121ed6138c5565b5b03612225576040517ff645eedf00000000000000000000000000000000000000000000000000000000815260040160405180910390fd5b60026003811115612239576122386138c5565b5b82600381111561224c5761224b6138c5565b5b03612291578060001c6040517ffce698f7000000000000000000000000000000000000000000000000000000008152600401612288919061256e565b60405180910390fd5b6003808111156122a4576122a36138c5565b5b8260038111156122b7576122b66138c5565b5b036122f957806040517fd78bce0c0000000000000000000000000000000000000000000000000000000081526004016122f09190612c08565b60405180910390fd5b5b5050565b6060600061230b83612466565b90506000602067ffffffffffffffff81111561232a5761232961289b565b5b6040519080825280601f01601f19166020018201604052801561235c5781602001600182028036833780820191505090505b5090508181528360208201528092505050919050565b60008060007f7fffffffffffffffffffffffffffffff5d576e7357a4501ddfe92f46681b20a08460001c11156123b257600060038592509250925061245c565b6000600188888888604051600081526020016040526040516123d79493929190613910565b6020604051602081039080840390855afa1580156123f9573d6000803e3d6000fd5b505050602060405103519050600073ffffffffffffffffffffffffffffffffffffffff168173ffffffffffffffffffffffffffffffffffffffff160361244d57600060016000801b9350935093505061245c565b8060008060001b935093509350505b9450945094915050565b60008060ff8360001c169050601f8111156124ad576040517fb3512b0c00000000000000000000000000000000000000000000000000000000815260040160405180910390fd5b80915050919050565b6000604051905090565b600080fd5b600080fd5b600073ffffffffffffffffffffffffffffffffffffffff82169050919050565b60006124f5826124ca565b9050919050565b612505816124ea565b811461251057600080fd5b50565b600081359050612522816124fc565b92915050565b60006020828403121561253e5761253d6124c0565b5b600061254c84828501612513565b91505092915050565b6000819050919050565b61256881612555565b82525050565b6000602082019050612583600083018461255f565b92915050565b6000819050919050565b60006125ae6125a96125a4846124ca565b612589565b6124ca565b9050919050565b60006125c082612593565b9050919050565b60006125d2826125b5565b9050919050565b6125e2816125c7565b82525050565b60006020820190506125fd60008301846125d9565b92915050565b61260c81612555565b811461261757600080fd5b50565b60008135905061262981612603565b92915050565b600060208284031215612645576126446124c0565b5b60006126538482850161261a565b91505092915050565b60007fff0000000000000000000000000000000000000000000000000000000000000082169050919050565b6126918161265c565b82525050565b600081519050919050565b600082825260208201905092915050565b60005b838110156126d15780820151818401526020810190506126b6565b60008484015250505050565b6000601f19601f8301169050919050565b60006126f982612697565b61270381856126a2565b93506127138185602086016126b3565b61271c816126dd565b840191505092915050565b612730816124ea565b82525050565b6000819050919050565b61274981612736565b82525050565b600081519050919050565b600082825260208201905092915050565b6000819050602082019050919050565b61278481612555565b82525050565b6000612796838361277b565b60208301905092915050565b6000602082019050919050565b60006127ba8261274f565b6127c4818561275a565b93506127cf8361276b565b8060005b838110156128005781516127e7888261278a565b97506127f2836127a2565b9250506001810190506127d3565b5085935050505092915050565b600060e082019050612822600083018a612688565b818103602083015261283481896126ee565b9050818103604083015261284881886126ee565b9050612857606083018761255f565b6128646080830186612727565b61287160a0830185612740565b81810360c083015261288381846127af565b905098975050505050505050565b600080fd5b600080fd5b7f4e487b7100000000000000000000000000000000000000000000000000000000600052604160045260246000fd5b6128d3826126dd565b810181811067ffffffffffffffff821117156128f2576128f161289b565b5b80604052505050565b60006129056124b6565b905061291182826128ca565b919050565b600067ffffffffffffffff8211156129315761293061289b565b5b61293a826126dd565b9050602081019050919050565b82818337600083830152505050565b600061296961296484612916565b6128fb565b90508281526020810184848401111561298557612984612896565b5b612990848285612947565b509392505050565b600082601f8301126129ad576129ac612891565b5b81356129bd848260208601612956565b91505092915050565b6000602082840312156129dc576129db6124c0565b5b600082013567ffffffffffffffff8111156129fa576129f96124c5565b5b612a0684828501612998565b91505092915050565b6000602082019050612a246000830184612727565b92915050565b600067ffffffffffffffff821115612a4557612a4461289b565b5b602082029050602081019050919050565b600080fd5b6000612a6e612a6984612a2a565b6128fb565b90508083825260208201905060208402830185811115612a9157612a90612a56565b5b835b81811015612ad857803567ffffffffffffffff811115612ab657612ab5612891565b5b808601612ac38982612998565b85526020850194505050602081019050612a93565b5050509392505050565b600082601f830112612af757612af6612891565b5b8135612b07848260208601612a5b565b91505092915050565b600060208284031215612b2657612b256124c0565b5b600082013567ffffffffffffffff811115612b4457612b436124c5565b5b612b5084828501612ae2565b91505092915050565b60006020820190508181036000830152612b7381846127af565b905092915050565b60008060008060008060c08789031215612b9857612b976124c0565b5b6000612ba689828a01612513565b9650506020612bb789828a01612513565b9550506040612bc889828a0161261a565b9450506060612bd989828a0161261a565b9350506080612bea89828a0161261a565b92505060a0612bfb89828a0161261a565b9150509295509295509295565b6000602082019050612c1d6000830184612740565b92915050565b6000612c2e826125b5565b9050919050565b612c3e81612c23565b82525050565b6000602082019050612c596000830184612c35565b92915050565b600067ffffffffffffffff821115612c7a57612c7961289b565b5b612c83826126dd565b9050602081019050919050565b6000612ca3612c9e84612c5f565b6128fb565b905082815260208101848484011115612cbf57612cbe612896565b5b612cca848285612947565b509392505050565b600082601f830112612ce757612ce6612891565b5b8135612cf7848260208601612c90565b91505092915050565b600080600080600080600060e0888a031215612d1f57612d1e6124c0565b5b6000612d2d8a828b01612513565b9750506020612d3e8a828b01612513565b9650506040612d4f8a828b0161261a565b9550506060612d608a828b0161261a565b9450506080612d718a828b0161261a565b93505060a0612d828a828b0161261a565b92505060c088013567ffffffffffffffff811115612da357612da26124c5565b5b612daf8a828b01612cd2565b91505092959891949750929550565b7f496e76616c696420746f6b656e20616464726573730000000000000000000000600082015250565b6000612df46015836126a2565b9150612dff82612dbe565b602082019050919050565b60006020820190508181036000830152612e2381612de7565b9050919050565b7f5072696365206d7573742062652067726561746572207468616e203000000000600082015250565b6000612e60601c836126a2565b9150612e6b82612e2a565b602082019050919050565b60006020820190508181036000830152612e8f81612e53565b9050919050565b6000604082019050612eab600083018561255f565b612eb8602083018461255f565b9392505050565b7f546f6b656e205552492063616e6e6f7420626520656d70747900000000000000600082015250565b6000612ef56019836126a2565b9150612f0082612ebf565b602082019050919050565b60006020820190508181036000830152612f2481612ee8565b9050919050565b600081519050612f3a81612603565b92915050565b600060208284031215612f5657612f556124c0565b5b6000612f6484828501612f2b565b91505092915050565b7f496e73756666696369656e74204441524b20746f6b656e2062616c616e636500600082015250565b6000612fa3601f836126a2565b9150612fae82612f6d565b602082019050919050565b60006020820190508181036000830152612fd281612f96565b9050919050565b6000604082019050612fee6000830185612727565b612ffb6020830184612727565b9392505050565b7f496e73756666696369656e74204441524b20746f6b656e20616c6c6f77616e6360008201527f6500000000000000000000000000000000000000000000000000000000000000602082015250565b600061305e6021836126a2565b915061306982613002565b604082019050919050565b6000602082019050818103600083015261308d81613051565b9050919050565b60006060820190506130a96000830186612727565b6130b66020830185612727565b6130c3604083018461255f565b949350505050565b60008115159050919050565b6130e0816130cb565b81146130eb57600080fd5b50565b6000815190506130fd816130d7565b92915050565b600060208284031215613119576131186124c0565b5b6000613127848285016130ee565b91505092915050565b7f4441524b20746f6b656e207472616e73666572206661696c6564000000000000600082015250565b6000613166601a836126a2565b915061317182613130565b602082019050919050565b6000602082019050818103600083015261319581613159565b9050919050565b60006040820190506131b16000830185612727565b81810360208301526131c381846126ee565b90509392505050565b7f4e6f204441524b20746f6b656e7320746f207769746864726177000000000000600082015250565b6000613202601a836126a2565b915061320d826131cc565b602082019050919050565b60006020820190508181036000830152613231816131f5565b9050919050565b600060408201905061324d6000830185612727565b61325a602083018461255f565b9392505050565b7f5472616e73666572206661696c65640000000000000000000000000000000000600082015250565b6000613297600f836126a2565b91506132a282613261565b602082019050919050565b600060208201905081810360008301526132c68161328a565b9050919050565b7f4d7573742070726f76696465206174206c65617374206f6e6520746f6b656e2060008201527f5552490000000000000000000000000000000000000000000000000000000000602082015250565b60006133296023836126a2565b9150613334826132cd565b604082019050919050565b600060208201905081810360008301526133588161331c565b9050919050565b7f43616e6e6f74206d696e74206d6f7265207468616e203130204e46547320617460008201527f206f6e6365000000000000000000000000000000000000000000000000000000602082015250565b60006133bb6025836126a2565b91506133c68261335f565b604082019050919050565b600060208201905081810360008301526133ea816133ae565b9050919050565b7f4e487b7100000000000000000000000000000000000000000000000000000000600052601160045260246000fd5b600061342b82612555565b915061343683612555565b925082820261344481612555565b9150828204841483151761345b5761345a6133f1565b5b5092915050565b7f4e487b7100000000000000000000000000000000000000000000000000000000600052603260045260246000fd5b600060e0820190506134a6600083018a612740565b6134b36020830189612727565b6134c06040830188612727565b6134cd606083018761255f565b6134da608083018661255f565b6134e760a083018561255f565b6134f460c083018461255f565b98975050505050505050565b7f496e76616c6964204e4654206164647265737300000000000000000000000000600082015250565b60006135366013836126a2565b915061354182613500565b602082019050919050565b6000602082019050818103600083015261356581613529565b9050919050565b7f5369676e61747572652065787069726564000000000000000000000000000000600082015250565b60006135a26011836126a2565b91506135ad8261356c565b602082019050919050565b600060208201905081810360008301526135d181613595565b9050919050565b7f496e76616c6964206e6f6e636500000000000000000000000000000000000000600082015250565b600061360e600d836126a2565b9150613619826135d8565b602082019050919050565b6000602082019050818103600083015261363d81613601565b9050919050565b600081519050613653816124fc565b92915050565b60006020828403121561366f5761366e6124c0565b5b600061367d84828501613644565b91505092915050565b7f4e6f7420746f6b656e206f776e65720000000000000000000000000000000000600082015250565b60006136bc600f836126a2565b91506136c782613686565b602082019050919050565b600060208201905081810360008301526136eb816136af565b9050919050565b7f496e76616c696420726563697069656e74000000000000000000000000000000600082015250565b60006137286011836126a2565b9150613733826136f2565b602082019050919050565b600060208201905081810360008301526137578161371b565b9050919050565b7f496e76616c6964207369676e6174757265000000000000000000000000000000600082015250565b60006137946011836126a2565b915061379f8261375e565b602082019050919050565b600060208201905081810360008301526137c381613787565b9050919050565b60006137d582612555565b91507fffffffffffffffffffffffffffffffffffffffffffffffffffffffffffffffff8203613807576138066133f1565b5b600182019050919050565b7f4e487b7100000000000000000000000000000000000000000000000000000000600052602260045260246000fd5b6000600282049050600182168061385957607f821691505b60208210810361386c5761386b613812565b5b50919050565b600060a0820190506138876000830188612740565b6138946020830187612740565b6138a16040830186612740565b6138ae606083018561255f565b6138bb6080830184612727565b9695505050505050565b7f4e487b7100000000000000000000000000000000000000000000000000000000600052602160045260246000fd5b600060ff82169050919050565b61390a816138f4565b82525050565b60006080820190506139256000830187612740565b6139326020830186613901565b61393f6040830185612740565b61394c6060830184612740565b9594505050505056fea264697066735822122085c1e53a1d61df7fe23797d861f025a3b38b934d7684bf89e6ba51c1ab86cd3a64736f6c634300081c0033",
  "linkReferences": {},
  "deployedLinkReferences": {}
}