{
  "_format": "hh-sol-artifact-1",
  "contractName": "CrownPurchase",
  "sourceName": "contracts/CrownPurchase.sol",
  "abi": [
    {
      "inputs": [
        {
          "internalType": "address",
          "name": "_darkToken",
          "type": "address"
        },
        {
          "internalType": "address",
          "name": "_crownNFT",
          "type": "address"
        }
      ],
      "stateMutability": "nonpayable",
      "type": "constructor"
    },
    {
      "inputs": [
        {
          "internalType": "address",
          "name": "owner",
          "type": "address"
        }
      ],
      "name": "OwnableInvalidOwner",
      "type": "error"
    },
    {
      "inputs": [
        {
          "internalType": "address",
          "name": "account",
          "type": "address"
        }
      ],
      "name": "OwnableUnauthorizedAccount",
      "type": "error"
    },
    {
      "anonymous": false,
      "inputs": [
        {
          "indexed": true,
          "internalType": "address",
          "name": "buyer",
          "type": "address"
        },
        {
          "indexed": true,
          "internalType": "uint256",
          "name": "tokenId",
          "type": "uint256"
        },
        {
          "indexed": false,
          "internalType": "uint256",
          "name": "price",
          "type": "uint256"
        }
      ],
      "name": "NFTPurchased",
      "type": "event"
    },
    {
      "anonymous": false,
      "inputs": [
        {
          "indexed": true,
          "internalType": "address",
          "name": "previousOwner",
          "type": "address"
        },
        {
          "indexed": true,
          "internalType": "address",
          "name": "newOwner",
          "type": "address"
        }
      ],
      "name": "OwnershipTransferred",
      "type": "event"
    },
    {
      "anonymous": false,
      "inputs": [
        {
          "indexed": false,
          "internalType": "uint256",
          "name": "oldPrice",
          "type": "uint256"
        },
        {
          "indexed": false,
          "internalType": "uint256",
          "name": "newPrice",
          "type": "uint256"
        }
      ],
      "name": "PriceUpdated",
      "type": "event"
    },
    {
      "inputs": [
        {
          "internalType": "string[]",
          "name": "tokenURIs",
          "type": "string[]"
        }
      ],
      "name": "buyMultipleNFTs",
      "outputs": [
        {
          "internalType": "uint256[]",
          "name": "",
          "type": "uint256[]"
        }
      ],
      "stateMutability": "nonpayable",
      "type": "function"
    },
    {
      "inputs": [
        {
          "internalType": "string",
          "name": "tokenURI",
          "type": "string"
        }
      ],
      "name": "buyNFT",
      "outputs": [
        {
          "internalType": "uint256",
          "name": "",
          "type": "uint256"
        }
      ],
      "stateMutability": "nonpayable",
      "type": "function"
    },
    {
      "inputs": [],
      "name": "crownNFT",
      "outputs": [
        {
          "internalType": "contract ICrownNFT",
          "name": "",
          "type": "address"
        }
      ],
      "stateMutability": "view",
      "type": "function"
    },
    {
      "inputs": [],
      "name": "darkToken",
      "outputs": [
        {
          "internalType": "contract IERC20",
          "name": "",
          "type": "address"
        }
      ],
      "stateMutability": "view",
      "type": "function"
    },
    {
      "inputs": [],
      "name": "getNFTPrice",
      "outputs": [
        {
          "internalType": "uint256",
          "name": "",
          "type": "uint256"
        }
      ],
      "stateMutability": "view",
      "type": "function"
    },
    {
      "inputs": [],
      "name": "getNextTokenId",
      "outputs": [
        {
          "internalType": "uint256",
          "name": "",
          "type": "uint256"
        }
      ],
      "stateMutability": "view",
      "type": "function"
    },
    {
      "inputs": [],
      "name": "nftPrice",
      "outputs": [
        {
          "internalType": "uint256",
          "name": "",
          "type": "uint256"
        }
      ],
      "stateMutability": "view",
      "type": "function"
    },
    {
      "inputs": [],
      "name": "owner",
      "outputs": [
        {
          "internalType": "address",
          "name": "",
          "type": "address"
        }
      ],
      "stateMutability": "view",
      "type": "function"
    },
    {
      "inputs": [],
      "name": "renounceOwnership",
      "outputs": [],
      "stateMutability": "nonpayable",
      "type": "function"
    },
    {
      "inputs": [
        {
          "internalType": "address",
          "name": "_crownNFT",
          "type": "address"
        }
      ],
      "name": "setCrownNFT",
      "outputs": [],
      "stateMutability": "nonpayable",
      "type": "function"
    },
    {
      "inputs": [
        {
          "internalType": "address",
          "name": "_darkToken",
          "type": "address"
        }
      ],
      "name": "setDarkToken",
      "outputs": [],
      "stateMutability": "nonpayable",
      "type": "function"
    },
    {
      "inputs": [
        {
          "internalType": "uint256",
          "name": "_newPrice",
          "type": "uint256"
        }
      ],
      "name": "setNFTPrice",
      "outputs": [],
      "stateMutability": "nonpayable",
      "type": "function"
    },
    {
      "inputs": [
        {
          "internalType": "address",
          "name": "newOwner",
          "type": "address"
        }
      ],
      "name": "transferOwnership",
      "outputs": [],
      "stateMutability": "nonpayable",
      "type": "function"
    },
    {
      "inputs": [],
      "name": "withdrawDarkTokens",
      "outputs": [],
      "stateMutability": "nonpayable",
      "type": "function"
    }
  ],
  "bytecode": "0x6080604052678ac7230489e8000060035534801561001c57600080fd5b5060405161231e38038061231e833981810160405281019061003e9190610271565b33600073ffffffffffffffffffffffffffffffffffffffff168173ffffffffffffffffffffffffffffffffffffffff16036100b15760006040517f1e4fbdf70000000000000000000000000000000000000000000000000000000081526004016100a891906102c0565b60405180910390fd5b6100c08161014a60201b60201c565b5081600160006101000a81548173ffffffffffffffffffffffffffffffffffffffff021916908373ffffffffffffffffffffffffffffffffffffffff16021790555080600260006101000a81548173ffffffffffffffffffffffffffffffffffffffff021916908373ffffffffffffffffffffffffffffffffffffffff16021790555050506102db565b60008060009054906101000a900473ffffffffffffffffffffffffffffffffffffffff169050816000806101000a81548173ffffffffffffffffffffffffffffffffffffffff021916908373ffffffffffffffffffffffffffffffffffffffff1602179055508173ffffffffffffffffffffffffffffffffffffffff168173ffffffffffffffffffffffffffffffffffffffff167f8be0079c531659141344cd1fd0a4f28419497f9722a3daafe3b4186f6b6457e060405160405180910390a35050565b600080fd5b600073ffffffffffffffffffffffffffffffffffffffff82169050919050565b600061023e82610213565b9050919050565b61024e81610233565b811461025957600080fd5b50565b60008151905061026b81610245565b92915050565b600080604083850312156102885761028761020e565b5b60006102968582860161025c565b92505060206102a78582860161025c565b9150509250929050565b6102ba81610233565b82525050565b60006020820190506102d560008301846102b1565b92915050565b612034806102ea6000396000f3fe608060405234801561001057600080fd5b50600436106100ea5760003560e01c8063919406801161008c578063d633233211610066578063d633233214610213578063ed241eb014610231578063f2fde38b1461024d578063fb107a4f14610269576100ea565b806391940680146101bb578063bcd83824146101c5578063caa0f92a146101f5576100ea565b8063715018a6116100c8578063715018a61461014757806381530b68146101515780638d0123001461016d5780638da5cb5b1461019d576100ea565b806301338ff0146100ef5780630d39fc811461010b5780632acfc2ca14610129575b600080fd5b61010960048036038101906101049190611308565b610287565b005b610113610342565b604051610120919061134e565b60405180910390f35b610131610348565b60405161013e91906113c8565b60405180910390f35b61014f61036e565b005b61016b6004803603810190610166919061140f565b610382565b005b61018760048036038101906101829190611582565b610418565b604051610194919061134e565b60405180910390f35b6101a5610800565b6040516101b291906115da565b60405180910390f35b6101c3610829565b005b6101df60048036038101906101da91906116db565b6109fd565b6040516101ec91906117e2565b60405180910390f35b6101fd610f3a565b60405161020a919061134e565b60405180910390f35b61021b610fd2565b6040516102289190611825565b60405180910390f35b61024b60048036038101906102469190611308565b610ff8565b005b61026760048036038101906102629190611308565b6110b3565b005b610271611139565b60405161027e919061134e565b60405180910390f35b61028f611143565b600073ffffffffffffffffffffffffffffffffffffffff168173ffffffffffffffffffffffffffffffffffffffff16036102fe576040517f08c379a00000000000000000000000000000000000000000000000000000000081526004016102f59061189d565b60405180910390fd5b80600160006101000a81548173ffffffffffffffffffffffffffffffffffffffff021916908373ffffffffffffffffffffffffffffffffffffffff16021790555050565b60035481565b600160009054906101000a900473ffffffffffffffffffffffffffffffffffffffff1681565b610376611143565b61038060006111ca565b565b61038a611143565b600081116103cd576040517f08c379a00000000000000000000000000000000000000000000000000000000081526004016103c490611909565b60405180910390fd5b60006003549050816003819055507f945c1c4e99aa89f648fbfe3df471b916f719e16d960fcec0737d4d56bd696838818360405161040c929190611929565b60405180910390a15050565b60008082511161045d576040517f08c379a00000000000000000000000000000000000000000000000000000000081526004016104549061199e565b60405180910390fd5b600354600160009054906101000a900473ffffffffffffffffffffffffffffffffffffffff1673ffffffffffffffffffffffffffffffffffffffff166370a08231336040518263ffffffff1660e01b81526004016104bb91906115da565b602060405180830381865afa1580156104d8573d6000803e3d6000fd5b505050506040513d601f19601f820116820180604052508101906104fc91906119d3565b101561053d576040517f08c379a000000000000000000000000000000000000000000000000000000000815260040161053490611a4c565b60405180910390fd5b600354600160009054906101000a900473ffffffffffffffffffffffffffffffffffffffff1673ffffffffffffffffffffffffffffffffffffffff1663dd62ed3e33306040518363ffffffff1660e01b815260040161059d929190611a6c565b602060405180830381865afa1580156105ba573d6000803e3d6000fd5b505050506040513d601f19601f820116820180604052508101906105de91906119d3565b101561061f576040517f08c379a000000000000000000000000000000000000000000000000000000000815260040161061690611b07565b60405180910390fd5b600160009054906101000a900473ffffffffffffffffffffffffffffffffffffffff1673ffffffffffffffffffffffffffffffffffffffff166323b872dd33306003546040518463ffffffff1660e01b815260040161068093929190611b27565b6020604051808303816000875af115801561069f573d6000803e3d6000fd5b505050506040513d601f19601f820116820180604052508101906106c39190611b96565b610702576040517f08c379a00000000000000000000000000000000000000000000000000000000081526004016106f990611c0f565b60405180910390fd5b6000600260009054906101000a900473ffffffffffffffffffffffffffffffffffffffff1673ffffffffffffffffffffffffffffffffffffffff1663d0def52133856040518363ffffffff1660e01b8152600401610761929190611c9d565b6020604051808303816000875af1158015610780573d6000803e3d6000fd5b505050506040513d601f19601f820116820180604052508101906107a491906119d3565b9050803373ffffffffffffffffffffffffffffffffffffffff167fa6d32bfcc7cd31e4d5ee7adeef7edd500cab0e64b4a494de4f832d41fd70f56d6003546040516107ef919061134e565b60405180910390a380915050919050565b60008060009054906101000a900473ffffffffffffffffffffffffffffffffffffffff16905090565b610831611143565b6000600160009054906101000a900473ffffffffffffffffffffffffffffffffffffffff1673ffffffffffffffffffffffffffffffffffffffff166370a08231306040518263ffffffff1660e01b815260040161088e91906115da565b602060405180830381865afa1580156108ab573d6000803e3d6000fd5b505050506040513d601f19601f820116820180604052508101906108cf91906119d3565b905060008111610914576040517f08c379a000000000000000000000000000000000000000000000000000000000815260040161090b90611d19565b60405180910390fd5b600160009054906101000a900473ffffffffffffffffffffffffffffffffffffffff1673ffffffffffffffffffffffffffffffffffffffff1663a9059cbb61095a610800565b836040518363ffffffff1660e01b8152600401610978929190611d39565b6020604051808303816000875af1158015610997573d6000803e3d6000fd5b505050506040513d601f19601f820116820180604052508101906109bb9190611b96565b6109fa576040517f08c379a00000000000000000000000000000000000000000000000000000000081526004016109f190611dae565b60405180910390fd5b50565b60606000825111610a43576040517f08c379a0000000000000000000000000000000000000000000000000000000008152600401610a3a90611e40565b60405180910390fd5b600a82511115610a88576040517f08c379a0000000000000000000000000000000000000000000000000000000008152600401610a7f90611ed2565b60405180910390fd5b60008251600354610a999190611f21565b905080600160009054906101000a900473ffffffffffffffffffffffffffffffffffffffff1673ffffffffffffffffffffffffffffffffffffffff166370a08231336040518263ffffffff1660e01b8152600401610af791906115da565b602060405180830381865afa158015610b14573d6000803e3d6000fd5b505050506040513d601f19601f82011682018060405250810190610b3891906119d3565b1015610b79576040517f08c379a0000000000000000000000000000000000000000000000000000000008152600401610b7090611a4c565b60405180910390fd5b80600160009054906101000a900473ffffffffffffffffffffffffffffffffffffffff1673ffffffffffffffffffffffffffffffffffffffff1663dd62ed3e33306040518363ffffffff1660e01b8152600401610bd7929190611a6c565b602060405180830381865afa158015610bf4573d6000803e3d6000fd5b505050506040513d601f19601f82011682018060405250810190610c1891906119d3565b1015610c59576040517f08c379a0000000000000000000000000000000000000000000000000000000008152600401610c5090611b07565b60405180910390fd5b600160009054906101000a900473ffffffffffffffffffffffffffffffffffffffff1673ffffffffffffffffffffffffffffffffffffffff166323b872dd3330846040518463ffffffff1660e01b8152600401610cb893929190611b27565b6020604051808303816000875af1158015610cd7573d6000803e3d6000fd5b505050506040513d601f19601f82011682018060405250810190610cfb9190611b96565b610d3a576040517f08c379a0000000000000000000000000000000000000000000000000000000008152600401610d3190611c0f565b60405180910390fd5b6000835167ffffffffffffffff811115610d5757610d56611457565b5b604051908082528060200260200182016040528015610d855781602001602082028036833780820191505090505b50905060005b8451811015610f2f576000858281518110610da957610da8611f63565b5b60200260200101515111610df2576040517f08c379a0000000000000000000000000000000000000000000000000000000008152600401610de99061199e565b60405180910390fd5b6000600260009054906101000a900473ffffffffffffffffffffffffffffffffffffffff1673ffffffffffffffffffffffffffffffffffffffff1663d0def52133888581518110610e4657610e45611f63565b5b60200260200101516040518363ffffffff1660e01b8152600401610e6b929190611c9d565b6020604051808303816000875af1158015610e8a573d6000803e3d6000fd5b505050506040513d601f19601f82011682018060405250810190610eae91906119d3565b905080838381518110610ec457610ec3611f63565b5b602002602001018181525050803373ffffffffffffffffffffffffffffffffffffffff167fa6d32bfcc7cd31e4d5ee7adeef7edd500cab0e64b4a494de4f832d41fd70f56d600354604051610f19919061134e565b60405180910390a3508080600101915050610d8b565b508092505050919050565b6000600260009054906101000a900473ffffffffffffffffffffffffffffffffffffffff1673ffffffffffffffffffffffffffffffffffffffff166375794a3c6040518163ffffffff1660e01b8152600401602060405180830381865afa158015610fa9573d6000803e3d6000fd5b505050506040513d601f19601f82011682018060405250810190610fcd91906119d3565b905090565b600260009054906101000a900473ffffffffffffffffffffffffffffffffffffffff1681565b611000611143565b600073ffffffffffffffffffffffffffffffffffffffff168173ffffffffffffffffffffffffffffffffffffffff160361106f576040517f08c379a000000000000000000000000000000000000000000000000000000000815260040161106690611fde565b60405180910390fd5b80600260006101000a81548173ffffffffffffffffffffffffffffffffffffffff021916908373ffffffffffffffffffffffffffffffffffffffff16021790555050565b6110bb611143565b600073ffffffffffffffffffffffffffffffffffffffff168173ffffffffffffffffffffffffffffffffffffffff160361112d5760006040517f1e4fbdf700000000000000000000000000000000000000000000000000000000815260040161112491906115da565b60405180910390fd5b611136816111ca565b50565b6000600354905090565b61114b61128e565b73ffffffffffffffffffffffffffffffffffffffff16611169610800565b73ffffffffffffffffffffffffffffffffffffffff16146111c85761118c61128e565b6040517f118cdaa70000000000000000000000000000000000000000000000000000000081526004016111bf91906115da565b60405180910390fd5b565b60008060009054906101000a900473ffffffffffffffffffffffffffffffffffffffff169050816000806101000a81548173ffffffffffffffffffffffffffffffffffffffff021916908373ffffffffffffffffffffffffffffffffffffffff1602179055508173ffffffffffffffffffffffffffffffffffffffff168173ffffffffffffffffffffffffffffffffffffffff167f8be0079c531659141344cd1fd0a4f28419497f9722a3daafe3b4186f6b6457e060405160405180910390a35050565b600033905090565b6000604051905090565b600080fd5b600080fd5b600073ffffffffffffffffffffffffffffffffffffffff82169050919050565b60006112d5826112aa565b9050919050565b6112e5816112ca565b81146112f057600080fd5b50565b600081359050611302816112dc565b92915050565b60006020828403121561131e5761131d6112a0565b5b600061132c848285016112f3565b91505092915050565b6000819050919050565b61134881611335565b82525050565b6000602082019050611363600083018461133f565b92915050565b6000819050919050565b600061138e611389611384846112aa565b611369565b6112aa565b9050919050565b60006113a082611373565b9050919050565b60006113b282611395565b9050919050565b6113c2816113a7565b82525050565b60006020820190506113dd60008301846113b9565b92915050565b6113ec81611335565b81146113f757600080fd5b50565b600081359050611409816113e3565b92915050565b600060208284031215611425576114246112a0565b5b6000611433848285016113fa565b91505092915050565b600080fd5b600080fd5b6000601f19601f8301169050919050565b7f4e487b7100000000000000000000000000000000000000000000000000000000600052604160045260246000fd5b61148f82611446565b810181811067ffffffffffffffff821117156114ae576114ad611457565b5b80604052505050565b60006114c1611296565b90506114cd8282611486565b919050565b600067ffffffffffffffff8211156114ed576114ec611457565b5b6114f682611446565b9050602081019050919050565b82818337600083830152505050565b6000611525611520846114d2565b6114b7565b90508281526020810184848401111561154157611540611441565b5b61154c848285611503565b509392505050565b600082601f8301126115695761156861143c565b5b8135611579848260208601611512565b91505092915050565b600060208284031215611598576115976112a0565b5b600082013567ffffffffffffffff8111156115b6576115b56112a5565b5b6115c284828501611554565b91505092915050565b6115d4816112ca565b82525050565b60006020820190506115ef60008301846115cb565b92915050565b600067ffffffffffffffff8211156116105761160f611457565b5b602082029050602081019050919050565b600080fd5b6000611639611634846115f5565b6114b7565b9050808382526020820190506020840283018581111561165c5761165b611621565b5b835b818110156116a357803567ffffffffffffffff8111156116815761168061143c565b5b80860161168e8982611554565b8552602085019450505060208101905061165e565b5050509392505050565b600082601f8301126116c2576116c161143c565b5b81356116d2848260208601611626565b91505092915050565b6000602082840312156116f1576116f06112a0565b5b600082013567ffffffffffffffff81111561170f5761170e6112a5565b5b61171b848285016116ad565b91505092915050565b600081519050919050565b600082825260208201905092915050565b6000819050602082019050919050565b61175981611335565b82525050565b600061176b8383611750565b60208301905092915050565b6000602082019050919050565b600061178f82611724565b611799818561172f565b93506117a483611740565b8060005b838110156117d55781516117bc888261175f565b97506117c783611777565b9250506001810190506117a8565b5085935050505092915050565b600060208201905081810360008301526117fc8184611784565b905092915050565b600061180f82611395565b9050919050565b61181f81611804565b82525050565b600060208201905061183a6000830184611816565b92915050565b600082825260208201905092915050565b7f496e76616c696420746f6b656e20616464726573730000000000000000000000600082015250565b6000611887601583611840565b915061189282611851565b602082019050919050565b600060208201905081810360008301526118b68161187a565b9050919050565b7f5072696365206d7573742062652067726561746572207468616e203000000000600082015250565b60006118f3601c83611840565b91506118fe826118bd565b602082019050919050565b60006020820190508181036000830152611922816118e6565b9050919050565b600060408201905061193e600083018561133f565b61194b602083018461133f565b9392505050565b7f546f6b656e205552492063616e6e6f7420626520656d70747900000000000000600082015250565b6000611988601983611840565b915061199382611952565b602082019050919050565b600060208201905081810360008301526119b78161197b565b9050919050565b6000815190506119cd816113e3565b92915050565b6000602082840312156119e9576119e86112a0565b5b60006119f7848285016119be565b91505092915050565b7f496e73756666696369656e74204441524b20746f6b656e2062616c616e636500600082015250565b6000611a36601f83611840565b9150611a4182611a00565b602082019050919050565b60006020820190508181036000830152611a6581611a29565b9050919050565b6000604082019050611a8160008301856115cb565b611a8e60208301846115cb565b9392505050565b7f496e73756666696369656e74204441524b20746f6b656e20616c6c6f77616e6360008201527f6500000000000000000000000000000000000000000000000000000000000000602082015250565b6000611af1602183611840565b9150611afc82611a95565b604082019050919050565b60006020820190508181036000830152611b2081611ae4565b9050919050565b6000606082019050611b3c60008301866115cb565b611b4960208301856115cb565b611b56604083018461133f565b949350505050565b60008115159050919050565b611b7381611b5e565b8114611b7e57600080fd5b50565b600081519050611b9081611b6a565b92915050565b600060208284031215611bac57611bab6112a0565b5b6000611bba84828501611b81565b91505092915050565b7f4441524b20746f6b656e207472616e73666572206661696c6564000000000000600082015250565b6000611bf9601a83611840565b9150611c0482611bc3565b602082019050919050565b60006020820190508181036000830152611c2881611bec565b9050919050565b600081519050919050565b60005b83811015611c58578082015181840152602081019050611c3d565b60008484015250505050565b6000611c6f82611c2f565b611c798185611840565b9350611c89818560208601611c3a565b611c9281611446565b840191505092915050565b6000604082019050611cb260008301856115cb565b8181036020830152611cc48184611c64565b90509392505050565b7f4e6f204441524b20746f6b656e7320746f207769746864726177000000000000600082015250565b6000611d03601a83611840565b9150611d0e82611ccd565b602082019050919050565b60006020820190508181036000830152611d3281611cf6565b9050919050565b6000604082019050611d4e60008301856115cb565b611d5b602083018461133f565b9392505050565b7f5472616e73666572206661696c65640000000000000000000000000000000000600082015250565b6000611d98600f83611840565b9150611da382611d62565b602082019050919050565b60006020820190508181036000830152611dc781611d8b565b9050919050565b7f4d7573742070726f76696465206174206c65617374206f6e6520746f6b656e2060008201527f5552490000000000000000000000000000000000000000000000000000000000602082015250565b6000611e2a602383611840565b9150611e3582611dce565b604082019050919050565b60006020820190508181036000830152611e5981611e1d565b9050919050565b7f43616e6e6f74206d696e74206d6f7265207468616e203130204e46547320617460008201527f206f6e6365000000000000000000000000000000000000000000000000000000602082015250565b6000611ebc602583611840565b9150611ec782611e60565b604082019050919050565b60006020820190508181036000830152611eeb81611eaf565b9050919050565b7f4e487b7100000000000000000000000000000000000000000000000000000000600052601160045260246000fd5b6000611f2c82611335565b9150611f3783611335565b9250828202611f4581611335565b91508282048414831517611f5c57611f5b611ef2565b5b5092915050565b7f4e487b7100000000000000000000000000000000000000000000000000000000600052603260045260246000fd5b7f496e76616c6964204e4654206164647265737300000000000000000000000000600082015250565b6000611fc8601383611840565b9150611fd382611f92565b602082019050919050565b60006020820190508181036000830152611ff781611fbb565b905091905056fea26469706673582212202f35fcd9adc339b1d9c95691d1b31f7110ca877567ccce7d43338a67efb19fc464736f6c634300081c0033",
  "linkReferences": {},
  "deployedLinkReferences": {}
}