{
  "_format": "hh-sol-artifact-1",
  "contractName": "DarkToken",
  "sourceName": "contracts/DarkToken.sol",
  "abi": [
    {
      "inputs": [],
      "stateMutability": "nonpayable",
      "type": "constructor"
    },
    {
      "inputs": [
        {
          "internalType": "address",
          "name": "spender",
          "type": "address"
        },
        {
          "internalType": "uint256",
          "name": "allowance",
          "type": "uint256"
        },
        {
          "internalType": "uint256",
          "name": "needed",
          "type": "uint256"
        }
      ],
      "name": "ERC20InsufficientAllowance",
      "type": "error"
    },
    {
      "inputs": [
        {
          "internalType": "address",
          "name": "sender",
          "type": "address"
        },
        {
          "internalType": "uint256",
          "name": "balance",
          "type": "uint256"
        },
        {
          "internalType": "uint256",
          "name": "needed",
          "type": "uint256"
        }
      ],
      "name": "ERC20InsufficientBalance",
      "type": "error"
    },
    {
      "inputs": [
        {
          "internalType": "address",
          "name": "approver",
          "type": "address"
        }
      ],
      "name": "ERC20InvalidApprover",
      "type": "error"
    },
    {
      "inputs": [
        {
          "internalType": "address",
          "name": "receiver",
          "type": "address"
        }
      ],
      "name": "ERC20InvalidReceiver",
      "type": "error"
    },
    {
      "inputs": [
        {
          "internalType": "address",
          "name": "sender",
          "type": "address"
        }
      ],
      "name": "ERC20InvalidSender",
      "type": "error"
    },
    {
      "inputs": [
        {
          "internalType": "address",
          "name": "spender",
          "type": "address"
        }
      ],
      "name": "ERC20InvalidSpender",
      "type": "error"
    },
    {
      "inputs": [
        {
          "internalType": "address",
          "name": "owner",
          "type": "address"
        }
      ],
      "name": "OwnableInvalidOwner",
      "type": "error"
    },
    {
      "inputs": [
        {
          "internalType": "address",
          "name": "account",
          "type": "address"
        }
      ],
      "name": "OwnableUnauthorizedAccount",
      "type": "error"
    },
    {
      "anonymous": false,
      "inputs": [
        {
          "indexed": true,
          "internalType": "address",
          "name": "owner",
          "type": "address"
        },
        {
          "indexed": true,
          "internalType": "address",
          "name": "spender",
          "type": "address"
        },
        {
          "indexed": false,
          "internalType": "uint256",
          "name": "value",
          "type": "uint256"
        }
      ],
      "name": "Approval",
      "type": "event"
    },
    {
      "anonymous": false,
      "inputs": [
        {
          "indexed": true,
          "internalType": "address",
          "name": "previousOwner",
          "type": "address"
        },
        {
          "indexed": true,
          "internalType": "address",
          "name": "newOwner",
          "type": "address"
        }
      ],
      "name": "OwnershipTransferred",
      "type": "event"
    },
    {
      "anonymous": false,
      "inputs": [
        {
          "indexed": true,
          "internalType": "address",
          "name": "from",
          "type": "address"
        },
        {
          "indexed": true,
          "internalType": "address",
          "name": "to",
          "type": "address"
        },
        {
          "indexed": false,
          "internalType": "uint256",
          "name": "value",
          "type": "uint256"
        }
      ],
      "name": "Transfer",
      "type": "event"
    },
    {
      "inputs": [],
      "name": "INITIAL_SUPPLY",
      "outputs": [
        {
          "internalType": "uint256",
          "name": "",
          "type": "uint256"
        }
      ],
      "stateMutability": "view",
      "type": "function"
    },
    {
      "inputs": [
        {
          "internalType": "address",
          "name": "owner",
          "type": "address"
        },
        {
          "internalType": "address",
          "name": "spender",
          "type": "address"
        }
      ],
      "name": "allowance",
      "outputs": [
        {
          "internalType": "uint256",
          "name": "",
          "type": "uint256"
        }
      ],
      "stateMutability": "view",
      "type": "function"
    },
    {
      "inputs": [
        {
          "internalType": "address",
          "name": "spender",
          "type": "address"
        },
        {
          "internalType": "uint256",
          "name": "value",
          "type": "uint256"
        }
      ],
      "name": "approve",
      "outputs": [
        {
          "internalType": "bool",
          "name": "",
          "type": "bool"
        }
      ],
      "stateMutability": "nonpayable",
      "type": "function"
    },
    {
      "inputs": [
        {
          "internalType": "address",
          "name": "account",
          "type": "address"
        }
      ],
      "name": "balanceOf",
      "outputs": [
        {
          "internalType": "uint256",
          "name": "",
          "type": "uint256"
        }
      ],
      "stateMutability": "view",
      "type": "function"
    },
    {
      "inputs": [
        {
          "internalType": "uint256",
          "name": "amount",
          "type": "uint256"
        }
      ],
      "name": "burn",
      "outputs": [],
      "stateMutability": "nonpayable",
      "type": "function"
    },
    {
      "inputs": [],
      "name": "decimals",
      "outputs": [
        {
          "internalType": "uint8",
          "name": "",
          "type": "uint8"
        }
      ],
      "stateMutability": "view",
      "type": "function"
    },
    {
      "inputs": [
        {
          "internalType": "address",
          "name": "to",
          "type": "address"
        },
        {
          "internalType": "uint256",
          "name": "amount",
          "type": "uint256"
        }
      ],
      "name": "mint",
      "outputs": [],
      "stateMutability": "nonpayable",
      "type": "function"
    },
    {
      "inputs": [],
      "name": "name",
      "outputs": [
        {
          "internalType": "string",
          "name": "",
          "type": "string"
        }
      ],
      "stateMutability": "view",
      "type": "function"
    },
    {
      "inputs": [],
      "name": "owner",
      "outputs": [
        {
          "internalType": "address",
          "name": "",
          "type": "address"
        }
      ],
      "stateMutability": "view",
      "type": "function"
    },
    {
      "inputs": [],
      "name": "renounceOwnership",
      "outputs": [],
      "stateMutability": "nonpayable",
      "type": "function"
    },
    {
      "inputs": [],
      "name": "symbol",
      "outputs": [
        {
          "internalType": "string",
          "name": "",
          "type": "string"
        }
      ],
      "stateMutability": "view",
      "type": "function"
    },
    {
      "inputs": [],
      "name": "totalSupply",
      "outputs": [
        {
          "internalType": "uint256",
          "name": "",
          "type": "uint256"
        }
      ],
      "stateMutability": "view",
      "type": "function"
    },
    {
      "inputs": [
        {
          "internalType": "address",
          "name": "to",
          "type": "address"
        },
        {
          "internalType": "uint256",
          "name": "value",
          "type": "uint256"
        }
      ],
      "name": "transfer",
      "outputs": [
        {
          "internalType": "bool",
          "name": "",
          "type": "bool"
        }
      ],
      "stateMutability": "nonpayable",
      "type": "function"
    },
    {
      "inputs": [
        {
          "internalType": "address",
          "name": "from",
          "type": "address"
        },
        {
          "internalType": "address",
          "name": "to",
          "type": "address"
        },
        {
          "internalType": "uint256",
          "name": "value",
          "type": "uint256"
        }
      ],
      "name": "transferFrom",
      "outputs": [
        {
          "internalType": "bool",
          "name": "",
          "type": "bool"
        }
      ],
      "stateMutability": "nonpayable",
      "type": "function"
    },
    {
      "inputs": [
        {
          "internalType": "address",
          "name": "newOwner",
          "type": "address"
        }
      ],
      "name": "transferOwnership",
      "outputs": [],
      "stateMutability": "nonpayable",
      "type": "function"
    }
  ],
  "bytecode": "0x60806040526012600560146101000a81548160ff021916908360ff16021790555034801561002c57600080fd5b50336040518060400160405280600a81526020017f4461726b20546f6b656e000000000000000000000000000000000000000000008152506040518060400160405280600481526020017f4441524b0000000000000000000000000000000000000000000000000000000081525081600390816100a99190610720565b5080600490816100b99190610720565b505050600073ffffffffffffffffffffffffffffffffffffffff168173ffffffffffffffffffffffffffffffffffffffff160361012e5760006040517f1e4fbdf70000000000000000000000000000000000000000000000000000000081526004016101259190610833565b60405180910390fd5b61013d8161015d60201b60201c565b506101583369d3c21bcecceda100000061022360201b60201c565b610912565b6000600560009054906101000a900473ffffffffffffffffffffffffffffffffffffffff16905081600560006101000a81548173ffffffffffffffffffffffffffffffffffffffff021916908373ffffffffffffffffffffffffffffffffffffffff1602179055508173ffffffffffffffffffffffffffffffffffffffff168173ffffffffffffffffffffffffffffffffffffffff167f8be0079c531659141344cd1fd0a4f28419497f9722a3daafe3b4186f6b6457e060405160405180910390a35050565b600073ffffffffffffffffffffffffffffffffffffffff168273ffffffffffffffffffffffffffffffffffffffff16036102955760006040517fec442f0500000000000000000000000000000000000000000000000000000000815260040161028c9190610833565b60405180910390fd5b6102a7600083836102ab60201b60201c565b5050565b600073ffffffffffffffffffffffffffffffffffffffff168373ffffffffffffffffffffffffffffffffffffffff16036102fd5780600260008282546102f1919061087d565b925050819055506103d0565b60008060008573ffffffffffffffffffffffffffffffffffffffff1673ffffffffffffffffffffffffffffffffffffffff16815260200190815260200160002054905081811015610389578381836040517fe450d38c000000000000000000000000000000000000000000000000000000008152600401610380939291906108c0565b60405180910390fd5b8181036000808673ffffffffffffffffffffffffffffffffffffffff1673ffffffffffffffffffffffffffffffffffffffff16815260200190815260200160002081905550505b600073ffffffffffffffffffffffffffffffffffffffff168273ffffffffffffffffffffffffffffffffffffffff16036104195780600260008282540392505081905550610466565b806000808473ffffffffffffffffffffffffffffffffffffffff1673ffffffffffffffffffffffffffffffffffffffff168152602001908152602001600020600082825401925050819055505b8173ffffffffffffffffffffffffffffffffffffffff168373ffffffffffffffffffffffffffffffffffffffff167fddf252ad1be2c89b69c2b068fc378daa952ba7f163c4a11628f55a4df523b3ef836040516104c391906108f7565b60405180910390a3505050565b600081519050919050565b7f4e487b7100000000000000000000000000000000000000000000000000000000600052604160045260246000fd5b7f4e487b7100000000000000000000000000000000000000000000000000000000600052602260045260246000fd5b6000600282049050600182168061055157607f821691505b6020821081036105645761056361050a565b5b50919050565b60008190508160005260206000209050919050565b60006020601f8301049050919050565b600082821b905092915050565b6000600883026105cc7fffffffffffffffffffffffffffffffffffffffffffffffffffffffffffffffff8261058f565b6105d6868361058f565b95508019841693508086168417925050509392505050565b6000819050919050565b6000819050919050565b600061061d610618610613846105ee565b6105f8565b6105ee565b9050919050565b6000819050919050565b61063783610602565b61064b61064382610624565b84845461059c565b825550505050565b600090565b610660610653565b61066b81848461062e565b505050565b5b8181101561068f57610684600082610658565b600181019050610671565b5050565b601f8211156106d4576106a58161056a565b6106ae8461057f565b810160208510156106bd578190505b6106d16106c98561057f565b830182610670565b50505b505050565b600082821c905092915050565b60006106f7600019846008026106d9565b1980831691505092915050565b600061071083836106e6565b9150826002028217905092915050565b610729826104d0565b67ffffffffffffffff811115610742576107416104db565b5b61074c8254610539565b610757828285610693565b600060209050601f83116001811461078a5760008415610778578287015190505b6107828582610704565b8655506107ea565b601f1984166107988661056a565b60005b828110156107c05784890151825560018201915060208501945060208101905061079b565b868310156107dd57848901516107d9601f8916826106e6565b8355505b6001600288020188555050505b505050505050565b600073ffffffffffffffffffffffffffffffffffffffff82169050919050565b600061081d826107f2565b9050919050565b61082d81610812565b82525050565b60006020820190506108486000830184610824565b92915050565b7f4e487b7100000000000000000000000000000000000000000000000000000000600052601160045260246000fd5b6000610888826105ee565b9150610893836105ee565b92508282019050808211156108ab576108aa61084e565b5b92915050565b6108ba816105ee565b82525050565b60006060820190506108d56000830186610824565b6108e260208301856108b1565b6108ef60408301846108b1565b949350505050565b600060208201905061090c60008301846108b1565b92915050565b6112d3806109216000396000f3fe608060405234801561001057600080fd5b50600436106100f55760003560e01c806342966c681161009757806395d89b411161006657806395d89b4114610262578063a9059cbb14610280578063dd62ed3e146102b0578063f2fde38b146102e0576100f5565b806342966c68146101ee57806370a082311461020a578063715018a61461023a5780638da5cb5b14610244576100f5565b806323b872dd116100d357806323b872dd146101665780632ff2e9dc14610196578063313ce567146101b457806340c10f19146101d2576100f5565b806306fdde03146100fa578063095ea7b31461011857806318160ddd14610148575b600080fd5b6101026102fc565b60405161010f9190610efa565b60405180910390f35b610132600480360381019061012d9190610fb5565b61038e565b60405161013f9190611010565b60405180910390f35b6101506103b1565b60405161015d919061103a565b60405180910390f35b610180600480360381019061017b9190611055565b6103bb565b60405161018d9190611010565b60405180910390f35b61019e6103ea565b6040516101ab919061103a565b60405180910390f35b6101bc6103f8565b6040516101c991906110c4565b60405180910390f35b6101ec60048036038101906101e79190610fb5565b61040f565b005b610208600480360381019061020391906110df565b610425565b005b610224600480360381019061021f919061110c565b610432565b604051610231919061103a565b60405180910390f35b61024261047a565b005b61024c61048e565b6040516102599190611148565b60405180910390f35b61026a6104b8565b6040516102779190610efa565b60405180910390f35b61029a60048036038101906102959190610fb5565b61054a565b6040516102a79190611010565b60405180910390f35b6102ca60048036038101906102c59190611163565b61056d565b6040516102d7919061103a565b60405180910390f35b6102fa60048036038101906102f5919061110c565b6105f4565b005b60606003805461030b906111d2565b80601f0160208091040260200160405190810160405280929190818152602001828054610337906111d2565b80156103845780601f1061035957610100808354040283529160200191610384565b820191906000526020600020905b81548152906001019060200180831161036757829003601f168201915b5050505050905090565b60008061039961067a565b90506103a6818585610682565b600191505092915050565b6000600254905090565b6000806103c661067a565b90506103d3858285610694565b6103de858585610729565b60019150509392505050565b69d3c21bcecceda100000081565b6000600560149054906101000a900460ff16905090565b61041761081d565b61042182826108a4565b5050565b61042f3382610926565b50565b60008060008373ffffffffffffffffffffffffffffffffffffffff1673ffffffffffffffffffffffffffffffffffffffff168152602001908152602001600020549050919050565b61048261081d565b61048c60006109a8565b565b6000600560009054906101000a900473ffffffffffffffffffffffffffffffffffffffff16905090565b6060600480546104c7906111d2565b80601f01602080910402602001604051908101604052809291908181526020018280546104f3906111d2565b80156105405780601f1061051557610100808354040283529160200191610540565b820191906000526020600020905b81548152906001019060200180831161052357829003601f168201915b5050505050905090565b60008061055561067a565b9050610562818585610729565b600191505092915050565b6000600160008473ffffffffffffffffffffffffffffffffffffffff1673ffffffffffffffffffffffffffffffffffffffff16815260200190815260200160002060008373ffffffffffffffffffffffffffffffffffffffff1673ffffffffffffffffffffffffffffffffffffffff16815260200190815260200160002054905092915050565b6105fc61081d565b600073ffffffffffffffffffffffffffffffffffffffff168173ffffffffffffffffffffffffffffffffffffffff160361066e5760006040517f1e4fbdf70000000000000000000000000000000000000000000000000000000081526004016106659190611148565b60405180910390fd5b610677816109a8565b50565b600033905090565b61068f8383836001610a6e565b505050565b60006106a0848461056d565b90507fffffffffffffffffffffffffffffffffffffffffffffffffffffffffffffffff8110156107235781811015610713578281836040517ffb8f41b200000000000000000000000000000000000000000000000000000000815260040161070a93929190611203565b60405180910390fd5b61072284848484036000610a6e565b5b50505050565b600073ffffffffffffffffffffffffffffffffffffffff168373ffffffffffffffffffffffffffffffffffffffff160361079b5760006040517f96c6fd1e0000000000000000000000000000000000000000000000000000000081526004016107929190611148565b60405180910390fd5b600073ffffffffffffffffffffffffffffffffffffffff168273ffffffffffffffffffffffffffffffffffffffff160361080d5760006040517fec442f050000000000000000000000000000000000000000000000000000000081526004016108049190611148565b60405180910390fd5b610818838383610c45565b505050565b61082561067a565b73ffffffffffffffffffffffffffffffffffffffff1661084361048e565b73ffffffffffffffffffffffffffffffffffffffff16146108a25761086661067a565b6040517f118cdaa70000000000000000000000000000000000000000000000000000000081526004016108999190611148565b60405180910390fd5b565b600073ffffffffffffffffffffffffffffffffffffffff168273ffffffffffffffffffffffffffffffffffffffff16036109165760006040517fec442f0500000000000000000000000000000000000000000000000000000000815260040161090d9190611148565b60405180910390fd5b61092260008383610c45565b5050565b600073ffffffffffffffffffffffffffffffffffffffff168273ffffffffffffffffffffffffffffffffffffffff16036109985760006040517f96c6fd1e00000000000000000000000000000000000000000000000000000000815260040161098f9190611148565b60405180910390fd5b6109a482600083610c45565b5050565b6000600560009054906101000a900473ffffffffffffffffffffffffffffffffffffffff16905081600560006101000a81548173ffffffffffffffffffffffffffffffffffffffff021916908373ffffffffffffffffffffffffffffffffffffffff1602179055508173ffffffffffffffffffffffffffffffffffffffff168173ffffffffffffffffffffffffffffffffffffffff167f8be0079c531659141344cd1fd0a4f28419497f9722a3daafe3b4186f6b6457e060405160405180910390a35050565b600073ffffffffffffffffffffffffffffffffffffffff168473ffffffffffffffffffffffffffffffffffffffff1603610ae05760006040517fe602df05000000000000000000000000000000000000000000000000000000008152600401610ad79190611148565b60405180910390fd5b600073ffffffffffffffffffffffffffffffffffffffff168373ffffffffffffffffffffffffffffffffffffffff1603610b525760006040517f94280d62000000000000000000000000000000000000000000000000000000008152600401610b499190611148565b60405180910390fd5b81600160008673ffffffffffffffffffffffffffffffffffffffff1673ffffffffffffffffffffffffffffffffffffffff16815260200190815260200160002060008573ffffffffffffffffffffffffffffffffffffffff1673ffffffffffffffffffffffffffffffffffffffff168152602001908152602001600020819055508015610c3f578273ffffffffffffffffffffffffffffffffffffffff168473ffffffffffffffffffffffffffffffffffffffff167f8c5be1e5ebec7d5bd14f71427d1e84f3dd0314c0f7b2291e5b200ac8c7c3b92584604051610c36919061103a565b60405180910390a35b50505050565b600073ffffffffffffffffffffffffffffffffffffffff168373ffffffffffffffffffffffffffffffffffffffff1603610c97578060026000828254610c8b9190611269565b92505081905550610d6a565b60008060008573ffffffffffffffffffffffffffffffffffffffff1673ffffffffffffffffffffffffffffffffffffffff16815260200190815260200160002054905081811015610d23578381836040517fe450d38c000000000000000000000000000000000000000000000000000000008152600401610d1a93929190611203565b60405180910390fd5b8181036000808673ffffffffffffffffffffffffffffffffffffffff1673ffffffffffffffffffffffffffffffffffffffff16815260200190815260200160002081905550505b600073ffffffffffffffffffffffffffffffffffffffff168273ffffffffffffffffffffffffffffffffffffffff1603610db35780600260008282540392505081905550610e00565b806000808473ffffffffffffffffffffffffffffffffffffffff1673ffffffffffffffffffffffffffffffffffffffff168152602001908152602001600020600082825401925050819055505b8173ffffffffffffffffffffffffffffffffffffffff168373ffffffffffffffffffffffffffffffffffffffff167fddf252ad1be2c89b69c2b068fc378daa952ba7f163c4a11628f55a4df523b3ef83604051610e5d919061103a565b60405180910390a3505050565b600081519050919050565b600082825260208201905092915050565b60005b83811015610ea4578082015181840152602081019050610e89565b60008484015250505050565b6000601f19601f8301169050919050565b6000610ecc82610e6a565b610ed68185610e75565b9350610ee6818560208601610e86565b610eef81610eb0565b840191505092915050565b60006020820190508181036000830152610f148184610ec1565b905092915050565b600080fd5b600073ffffffffffffffffffffffffffffffffffffffff82169050919050565b6000610f4c82610f21565b9050919050565b610f5c81610f41565b8114610f6757600080fd5b50565b600081359050610f7981610f53565b92915050565b6000819050919050565b610f9281610f7f565b8114610f9d57600080fd5b50565b600081359050610faf81610f89565b92915050565b60008060408385031215610fcc57610fcb610f1c565b5b6000610fda85828601610f6a565b9250506020610feb85828601610fa0565b9150509250929050565b60008115159050919050565b61100a81610ff5565b82525050565b60006020820190506110256000830184611001565b92915050565b61103481610f7f565b82525050565b600060208201905061104f600083018461102b565b92915050565b60008060006060848603121561106e5761106d610f1c565b5b600061107c86828701610f6a565b935050602061108d86828701610f6a565b925050604061109e86828701610fa0565b9150509250925092565b600060ff82169050919050565b6110be816110a8565b82525050565b60006020820190506110d960008301846110b5565b92915050565b6000602082840312156110f5576110f4610f1c565b5b600061110384828501610fa0565b91505092915050565b60006020828403121561112257611121610f1c565b5b600061113084828501610f6a565b91505092915050565b61114281610f41565b82525050565b600060208201905061115d6000830184611139565b92915050565b6000806040838503121561117a57611179610f1c565b5b600061118885828601610f6a565b925050602061119985828601610f6a565b9150509250929050565b7f4e487b7100000000000000000000000000000000000000000000000000000000600052602260045260246000fd5b600060028204905060018216806111ea57607f821691505b6020821081036111fd576111fc6111a3565b5b50919050565b60006060820190506112186000830186611139565b611225602083018561102b565b611232604083018461102b565b949350505050565b7f4e487b7100000000000000000000000000000000000000000000000000000000600052601160045260246000fd5b600061127482610f7f565b915061127f83610f7f565b92508282019050808211156112975761129661123a565b5b9291505056fea264697066735822122036db99dbbe78e2577aeaac42a46d74e1a629ec1b9fc60cc675b970d21e9e3af864736f6c634300081c0033",
  "linkReferences": {},
  "deployedLinkReferences": {}
}