{
  "_format": "hh-sol-artifact-1",
  "contractName": "ResaleLight",
  "sourceName": "contracts/ResaleLight.sol",
  "abi": [
    {
      "inputs": [
        {
          "internalType": "address",
          "name": "_paymentToken",
          "type": "address"
        },
        {
          "internalType": "address",
          "name": "_authorizedSigner",
          "type": "address"
        }
      ],
      "stateMutability": "nonpayable",
      "type": "constructor"
    },
    {
      "inputs": [],
      "name": "ECDSAInvalidSignature",
      "type": "error"
    },
    {
      "inputs": [
        {
          "internalType": "uint256",
          "name": "length",
          "type": "uint256"
        }
      ],
      "name": "ECDSAInvalidSignatureLength",
      "type": "error"
    },
    {
      "inputs": [
        {
          "internalType": "bytes32",
          "name": "s",
          "type": "bytes32"
        }
      ],
      "name": "ECDSAInvalidSignatureS",
      "type": "error"
    },
    {
      "inputs": [],
      "name": "InvalidShortString",
      "type": "error"
    },
    {
      "inputs": [
        {
          "internalType": "string",
          "name": "str",
          "type": "string"
        }
      ],
      "name": "StringTooLong",
      "type": "error"
    },
    {
      "anonymous": false,
      "inputs": [],
      "name": "EIP712DomainChanged",
      "type": "event"
    },
    {
      "anonymous": false,
      "inputs": [
        {
          "indexed": true,
          "internalType": "address",
          "name": "seller",
          "type": "address"
        },
        {
          "indexed": true,
          "internalType": "address",
          "name": "nftContract",
          "type": "address"
        },
        {
          "indexed": false,
          "internalType": "uint256",
          "name": "tokenId",
          "type": "uint256"
        },
        {
          "indexed": false,
          "internalType": "uint256",
          "name": "nonce",
          "type": "uint256"
        }
      ],
      "name": "ListingCancelled",
      "type": "event"
    },
    {
      "anonymous": false,
      "inputs": [
        {
          "indexed": true,
          "internalType": "address",
          "name": "seller",
          "type": "address"
        },
        {
          "indexed": true,
          "internalType": "address",
          "name": "buyer",
          "type": "address"
        },
        {
          "indexed": true,
          "internalType": "address",
          "name": "nftContract",
          "type": "address"
        },
        {
          "indexed": false,
          "internalType": "uint256",
          "name": "tokenId",
          "type": "uint256"
        },
        {
          "indexed": false,
          "internalType": "uint256",
          "name": "price",
          "type": "uint256"
        },
        {
          "indexed": false,
          "internalType": "uint256",
          "name": "platformFee",
          "type": "uint256"
        }
      ],
      "name": "NFTResold",
      "type": "event"
    },
    {
      "inputs": [],
      "name": "authorizedSigner",
      "outputs": [
        {
          "internalType": "address",
          "name": "",
          "type": "address"
        }
      ],
      "stateMutability": "view",
      "type": "function"
    },
    {
      "inputs": [
        {
          "components": [
            {
              "internalType": "address",
              "name": "seller",
              "type": "address"
            },
            {
              "internalType": "address",
              "name": "nftContract",
              "type": "address"
            },
            {
              "internalType": "uint256",
              "name": "tokenId",
              "type": "uint256"
            },
            {
              "internalType": "uint256",
              "name": "price",
              "type": "uint256"
            },
            {
              "internalType": "uint256",
              "name": "deadline",
              "type": "uint256"
            },
            {
              "internalType": "uint256",
              "name": "nonce",
              "type": "uint256"
            }
          ],
          "internalType": "struct ResaleLight.ResaleListing",
          "name": "listing",
          "type": "tuple"
        },
        {
          "internalType": "bytes",
          "name": "sellerSignature",
          "type": "bytes"
        }
      ],
      "name": "buyResaleNFT",
      "outputs": [],
      "stateMutability": "nonpayable",
      "type": "function"
    },
    {
      "inputs": [
        {
          "internalType": "address",
          "name": "nftContract",
          "type": "address"
        },
        {
          "internalType": "uint256",
          "name": "tokenId",
          "type": "uint256"
        }
      ],
      "name": "cancelListing",
      "outputs": [],
      "stateMutability": "nonpayable",
      "type": "function"
    },
    {
      "inputs": [],
      "name": "eip712Domain",
      "outputs": [
        {
          "internalType": "bytes1",
          "name": "fields",
          "type": "bytes1"
        },
        {
          "internalType": "string",
          "name": "name",
          "type": "string"
        },
        {
          "internalType": "string",
          "name": "version",
          "type": "string"
        },
        {
          "internalType": "uint256",
          "name": "chainId",
          "type": "uint256"
        },
        {
          "internalType": "address",
          "name": "verifyingContract",
          "type": "address"
        },
        {
          "internalType": "bytes32",
          "name": "salt",
          "type": "bytes32"
        },
        {
          "internalType": "uint256[]",
          "name": "extensions",
          "type": "uint256[]"
        }
      ],
      "stateMutability": "view",
      "type": "function"
    },
    {
      "inputs": [],
      "name": "getDomainSeparator",
      "outputs": [
        {
          "internalType": "bytes32",
          "name": "",
          "type": "bytes32"
        }
      ],
      "stateMutability": "view",
      "type": "function"
    },
    {
      "inputs": [
        {
          "components": [
            {
              "internalType": "address",
              "name": "seller",
              "type": "address"
            },
            {
              "internalType": "address",
              "name": "nftContract",
              "type": "address"
            },
            {
              "internalType": "uint256",
              "name": "tokenId",
              "type": "uint256"
            },
            {
              "internalType": "uint256",
              "name": "price",
              "type": "uint256"
            },
            {
              "internalType": "uint256",
              "name": "deadline",
              "type": "uint256"
            },
            {
              "internalType": "uint256",
              "name": "nonce",
              "type": "uint256"
            }
          ],
          "internalType": "struct ResaleLight.ResaleListing",
          "name": "listing",
          "type": "tuple"
        }
      ],
      "name": "getListingHash",
      "outputs": [
        {
          "internalType": "bytes32",
          "name": "",
          "type": "bytes32"
        }
      ],
      "stateMutability": "view",
      "type": "function"
    },
    {
      "inputs": [],
      "name": "getListingTypeHash",
      "outputs": [
        {
          "internalType": "bytes32",
          "name": "",
          "type": "bytes32"
        }
      ],
      "stateMutability": "pure",
      "type": "function"
    },
    {
      "inputs": [
        {
          "internalType": "address",
          "name": "user",
          "type": "address"
        }
      ],
      "name": "getUserNonce",
      "outputs": [
        {
          "internalType": "uint256",
          "name": "",
          "type": "uint256"
        }
      ],
      "stateMutability": "view",
      "type": "function"
    },
    {
      "inputs": [
        {
          "internalType": "bytes32",
          "name": "hash",
          "type": "bytes32"
        }
      ],
      "name": "isSignatureUsed",
      "outputs": [
        {
          "internalType": "bool",
          "name": "",
          "type": "bool"
        }
      ],
      "stateMutability": "view",
      "type": "function"
    },
    {
      "inputs": [
        {
          "internalType": "address",
          "name": "",
          "type": "address"
        }
      ],
      "name": "nonces",
      "outputs": [
        {
          "internalType": "uint256",
          "name": "",
          "type": "uint256"
        }
      ],
      "stateMutability": "view",
      "type": "function"
    },
    {
      "inputs": [],
      "name": "owner",
      "outputs": [
        {
          "internalType": "address",
          "name": "",
          "type": "address"
        }
      ],
      "stateMutability": "view",
      "type": "function"
    },
    {
      "inputs": [],
      "name": "paymentToken",
      "outputs": [
        {
          "internalType": "contract IERC20",
          "name": "",
          "type": "address"
        }
      ],
      "stateMutability": "view",
      "type": "function"
    },
    {
      "inputs": [],
      "name": "platformFeePercentage",
      "outputs": [
        {
          "internalType": "uint256",
          "name": "",
          "type": "uint256"
        }
      ],
      "stateMutability": "view",
      "type": "function"
    },
    {
      "inputs": [
        {
          "internalType": "address",
          "name": "_signer",
          "type": "address"
        }
      ],
      "name": "setAuthorizedSigner",
      "outputs": [],
      "stateMutability": "nonpayable",
      "type": "function"
    },
    {
      "inputs": [
        {
          "internalType": "address",
          "name": "_paymentToken",
          "type": "address"
        }
      ],
      "name": "setPaymentToken",
      "outputs": [],
      "stateMutability": "nonpayable",
      "type": "function"
    },
    {
      "inputs": [
        {
          "internalType": "uint256",
          "name": "_feePercentage",
          "type": "uint256"
        }
      ],
      "name": "setPlatformFeePercentage",
      "outputs": [],
      "stateMutability": "nonpayable",
      "type": "function"
    },
    {
      "inputs": [
        {
          "internalType": "bytes32",
          "name": "",
          "type": "bytes32"
        }
      ],
      "name": "usedSignatures",
      "outputs": [
        {
          "internalType": "bool",
          "name": "",
          "type": "bool"
        }
      ],
      "stateMutability": "view",
      "type": "function"
    },
    {
      "inputs": [],
      "name": "withdrawFees",
      "outputs": [],
      "stateMutability": "nonpayable",
      "type": "function"
    }
  ],
  "bytecode": "0x61016060405260fa60055534801561001657600080fd5b506040516138e13803806138e183398181016040528101906100389190610398565b6040518060400160405280600b81526020017f526573616c654c696768740000000000000000000000000000000000000000008152506040518060400160405280600181526020017f31000000000000000000000000000000000000000000000000000000000000008152506100b860008361021860201b90919060201c565b61012081815250506100d460018261021860201b90919060201c565b6101408181525050818051906020012060e08181525050808051906020012061010081815250504660a0818152505061011161026860201b60201c565b608081815250503073ffffffffffffffffffffffffffffffffffffffff1660c08173ffffffffffffffffffffffffffffffffffffffff1681525050505033600360006101000a81548173ffffffffffffffffffffffffffffffffffffffff021916908373ffffffffffffffffffffffffffffffffffffffff16021790555081600260006101000a81548173ffffffffffffffffffffffffffffffffffffffff021916908373ffffffffffffffffffffffffffffffffffffffff16021790555080600460006101000a81548173ffffffffffffffffffffffffffffffffffffffff021916908373ffffffffffffffffffffffffffffffffffffffff16021790555050506108c2565b600060208351101561023a57610233836102c360201b60201c565b9050610262565b8261024a8361032b60201b60201c565b60000190816102599190610628565b5060ff60001b90505b92915050565b60007f8b73c3c69bb8fe3d512ecc4cf759cc79239f7b179b0ffacaa9a75d522b39400f60e0516101005146306040516020016102a8959493929190610731565b60405160208183030381529060405280519060200120905090565b600080829050601f8151111561031057826040517f305a27a90000000000000000000000000000000000000000000000000000000081526004016103079190610809565b60405180910390fd5b80518161031c9061085b565b60001c1760001b915050919050565b6000819050919050565b600080fd5b600073ffffffffffffffffffffffffffffffffffffffff82169050919050565b60006103658261033a565b9050919050565b6103758161035a565b811461038057600080fd5b50565b6000815190506103928161036c565b92915050565b600080604083850312156103af576103ae610335565b5b60006103bd85828601610383565b92505060206103ce85828601610383565b9150509250929050565b600081519050919050565b7f4e487b7100000000000000000000000000000000000000000000000000000000600052604160045260246000fd5b7f4e487b7100000000000000000000000000000000000000000000000000000000600052602260045260246000fd5b6000600282049050600182168061045957607f821691505b60208210810361046c5761046b610412565b5b50919050565b60008190508160005260206000209050919050565b60006020601f8301049050919050565b600082821b905092915050565b6000600883026104d47fffffffffffffffffffffffffffffffffffffffffffffffffffffffffffffffff82610497565b6104de8683610497565b95508019841693508086168417925050509392505050565b6000819050919050565b6000819050919050565b600061052561052061051b846104f6565b610500565b6104f6565b9050919050565b6000819050919050565b61053f8361050a565b61055361054b8261052c565b8484546104a4565b825550505050565b600090565b61056861055b565b610573818484610536565b505050565b5b818110156105975761058c600082610560565b600181019050610579565b5050565b601f8211156105dc576105ad81610472565b6105b684610487565b810160208510156105c5578190505b6105d96105d185610487565b830182610578565b50505b505050565b600082821c905092915050565b60006105ff600019846008026105e1565b1980831691505092915050565b600061061883836105ee565b9150826002028217905092915050565b610631826103d8565b67ffffffffffffffff81111561064a576106496103e3565b5b6106548254610441565b61065f82828561059b565b600060209050601f8311600181146106925760008415610680578287015190505b61068a858261060c565b8655506106f2565b601f1984166106a086610472565b60005b828110156106c8578489015182556001820191506020850194506020810190506106a3565b868310156106e557848901516106e1601f8916826105ee565b8355505b6001600288020188555050505b505050505050565b6000819050919050565b61070d816106fa565b82525050565b61071c816104f6565b82525050565b61072b8161035a565b82525050565b600060a0820190506107466000830188610704565b6107536020830187610704565b6107606040830186610704565b61076d6060830185610713565b61077a6080830184610722565b9695505050505050565b600082825260208201905092915050565b60005b838110156107b3578082015181840152602081019050610798565b60008484015250505050565b6000601f19601f8301169050919050565b60006107db826103d8565b6107e58185610784565b93506107f5818560208601610795565b6107fe816107bf565b840191505092915050565b6000602082019050818103600083015261082381846107d0565b905092915050565b600081519050919050565b6000819050602082019050919050565b600061085282516106fa565b80915050919050565b60006108668261082b565b8261087084610836565b905061087b81610846565b925060208210156108bb576108b67fffffffffffffffffffffffffffffffffffffffffffffffffffffffffffffffff83602003600802610497565b831692505b5050919050565b60805160a05160c05160e051610100516101205161014051612fc561091c6000396000611725015260006116ea01526000611b0501526000611ae40152600061175b015260006117b1015260006117da0152612fc56000f3fe608060405234801561001057600080fd5b50600436106101165760003560e01c806384b0196e116100a2578063c771909c11610071578063c771909c146102d3578063cdd78cfc146102f1578063d279b0ca1461030f578063ed24911d1461032b578063f978fd611461034957610116565b806384b0196e146102575780638da5cb5b1461027b5780639317c00f14610299578063b2ddee06146102b757610116565b80634d80efae116100e95780634d80efae1461018f5780636834e3a8146101bf5780636a326ab1146101ef5780637ecebe001461020b5780638333903e1461023b57610116565b80631963532f1461011b57806325e43bcb1461014b5780633013ce2914610167578063476343ee14610185575b600080fd5b61013560048036038101906101309190611ee6565b610379565b6040516101429190611f2c565b60405180910390f35b61016560048036038101906101609190612001565b6103fa565b005b61016f610ed2565b60405161017c91906120bc565b60405180910390f35b61018d610ef8565b005b6101a960048036038101906101a49190612103565b611131565b6040516101b6919061214b565b60405180910390f35b6101d960048036038101906101d49190612166565b61115b565b6040516101e691906121a2565b60405180910390f35b61020960048036038101906102049190612166565b6111a4565b005b61022560048036038101906102209190612166565b611278565b60405161023291906121a2565b60405180910390f35b610255600480360381019061025091906121bd565b611290565b005b61025f61136f565b6040516102729796959493929190612371565b60405180910390f35b610283611419565b60405161029091906123f5565b60405180910390f35b6102a161143f565b6040516102ae9190611f2c565b60405180910390f35b6102d160048036038101906102cc9190612410565b611467565b005b6102db61156c565b6040516102e891906123f5565b60405180910390f35b6102f9611592565b60405161030691906121a2565b60405180910390f35b61032960048036038101906103249190612166565b611598565b005b61033361166c565b6040516103409190611f2c565b60405180910390f35b610363600480360381019061035e9190612103565b61167b565b604051610370919061214b565b60405180910390f35b6000807fbbd0b2e020b7099e0129875f10fc65815f91d786c28d332a788de83a463f011d836000015184602001518560400151866060015187608001518860a001516040516020016103d19796959493929190612450565b6040516020818303038152906040528051906020012090506103f28161169b565b915050919050565b8160800151421115610441576040517f08c379a00000000000000000000000000000000000000000000000000000000081526004016104389061250b565b60405180910390fd5b3373ffffffffffffffffffffffffffffffffffffffff16826000015173ffffffffffffffffffffffffffffffffffffffff16036104b3576040517f08c379a00000000000000000000000000000000000000000000000000000000081526004016104aa90612577565b60405180910390fd5b60008260600151116104fa576040517f08c379a00000000000000000000000000000000000000000000000000000000081526004016104f1906125e3565b60405180910390fd5b8160a0015160066000846000015173ffffffffffffffffffffffffffffffffffffffff1673ffffffffffffffffffffffffffffffffffffffff1681526020019081526020016000205414610583576040517f08c379a000000000000000000000000000000000000000000000000000000000815260040161057a9061264f565b60405180910390fd5b60007fbbd0b2e020b7099e0129875f10fc65815f91d786c28d332a788de83a463f011d836000015184602001518560400151866060015187608001518860a001516040516020016105da9796959493929190612450565b60405160208183030381529060405280519060200120905060006105fd8261169b565b90506007600082815260200190815260200160002060009054906101000a900460ff1615610660576040517f08c379a0000000000000000000000000000000000000000000000000000000008152600401610657906126bb565b60405180910390fd5b60016007600083815260200190815260200160002060006101000a81548160ff021916908315150217905550836000015173ffffffffffffffffffffffffffffffffffffffff166106b182856116b5565b73ffffffffffffffffffffffffffffffffffffffff1614610707576040517f08c379a00000000000000000000000000000000000000000000000000000000081526004016106fe90612727565b60405180910390fd5b8360600151600260009054906101000a900473ffffffffffffffffffffffffffffffffffffffff1673ffffffffffffffffffffffffffffffffffffffff166370a08231336040518263ffffffff1660e01b815260040161076791906123f5565b602060405180830381865afa158015610784573d6000803e3d6000fd5b505050506040513d601f19601f820116820180604052508101906107a8919061275c565b10156107e9576040517f08c379a00000000000000000000000000000000000000000000000000000000081526004016107e0906127d5565b60405180910390fd5b8360600151600260009054906101000a900473ffffffffffffffffffffffffffffffffffffffff1673ffffffffffffffffffffffffffffffffffffffff1663dd62ed3e33306040518363ffffffff1660e01b815260040161084b9291906127f5565b602060405180830381865afa158015610868573d6000803e3d6000fd5b505050506040513d601f19601f8201168201806040525081019061088c919061275c565b10156108cd576040517f08c379a00000000000000000000000000000000000000000000000000000000081526004016108c49061286a565b60405180910390fd5b600084602001519050846000015173ffffffffffffffffffffffffffffffffffffffff168173ffffffffffffffffffffffffffffffffffffffff16636352211e87604001516040518263ffffffff1660e01b815260040161092e91906121a2565b602060405180830381865afa15801561094b573d6000803e3d6000fd5b505050506040513d601f19601f8201168201806040525081019061096f919061289f565b73ffffffffffffffffffffffffffffffffffffffff16146109c5576040517f08c379a00000000000000000000000000000000000000000000000000000000081526004016109bc90612918565b60405180910390fd5b8073ffffffffffffffffffffffffffffffffffffffff1663e985e9c58660000151306040518363ffffffff1660e01b8152600401610a049291906127f5565b602060405180830381865afa158015610a21573d6000803e3d6000fd5b505050506040513d601f19601f82011682018060405250810190610a459190612964565b80610af857503073ffffffffffffffffffffffffffffffffffffffff168173ffffffffffffffffffffffffffffffffffffffff1663081812fc87604001516040518263ffffffff1660e01b8152600401610a9f91906121a2565b602060405180830381865afa158015610abc573d6000803e3d6000fd5b505050506040513d601f19601f82011682018060405250810190610ae0919061289f565b73ffffffffffffffffffffffffffffffffffffffff16145b610b37576040517f08c379a0000000000000000000000000000000000000000000000000000000008152600401610b2e906129dd565b60405180910390fd5b60066000866000015173ffffffffffffffffffffffffffffffffffffffff1673ffffffffffffffffffffffffffffffffffffffff1681526020019081526020016000206000815480929190610b8b90612a2c565b919050555060006127106005548760600151610ba79190612a74565b610bb19190612ae5565b90506000818760600151610bc59190612b16565b90506000600260009054906101000a900473ffffffffffffffffffffffffffffffffffffffff1673ffffffffffffffffffffffffffffffffffffffff166323b872dd338a60000151856040518463ffffffff1660e01b8152600401610c2c93929190612b4a565b6020604051808303816000875af1158015610c4b573d6000803e3d6000fd5b505050506040513d601f19601f82011682018060405250810190610c6f9190612964565b905080610cb1576040517f08c379a0000000000000000000000000000000000000000000000000000000008152600401610ca890612bf3565b60405180910390fd5b6000831115610dc157600260009054906101000a900473ffffffffffffffffffffffffffffffffffffffff1673ffffffffffffffffffffffffffffffffffffffff166323b872dd33600360009054906101000a900473ffffffffffffffffffffffffffffffffffffffff16866040518463ffffffff1660e01b8152600401610d3b93929190612b4a565b6020604051808303816000875af1158015610d5a573d6000803e3d6000fd5b505050506040513d601f19601f82011682018060405250810190610d7e9190612964565b905080610dc0576040517f08c379a0000000000000000000000000000000000000000000000000000000008152600401610db790612c5f565b60405180910390fd5b5b8373ffffffffffffffffffffffffffffffffffffffff166342842e0e8960000151338b604001516040518463ffffffff1660e01b8152600401610e0693929190612b4a565b600060405180830381600087803b158015610e2057600080fd5b505af1158015610e34573d6000803e3d6000fd5b50505050876020015173ffffffffffffffffffffffffffffffffffffffff163373ffffffffffffffffffffffffffffffffffffffff16896000015173ffffffffffffffffffffffffffffffffffffffff167f61c0dce2cd90061257cc58af8c1198089370fd6c3654b8c860d084532a9f8b1d8b604001518c6060015188604051610ec093929190612c7f565b60405180910390a45050505050505050565b600260009054906101000a900473ffffffffffffffffffffffffffffffffffffffff1681565b600360009054906101000a900473ffffffffffffffffffffffffffffffffffffffff1673ffffffffffffffffffffffffffffffffffffffff163373ffffffffffffffffffffffffffffffffffffffff1614610f88576040517f08c379a0000000000000000000000000000000000000000000000000000000008152600401610f7f90612d02565b60405180910390fd5b6000600260009054906101000a900473ffffffffffffffffffffffffffffffffffffffff1673ffffffffffffffffffffffffffffffffffffffff166370a08231306040518263ffffffff1660e01b8152600401610fe591906123f5565b602060405180830381865afa158015611002573d6000803e3d6000fd5b505050506040513d601f19601f82011682018060405250810190611026919061275c565b90506000811161106b576040517f08c379a000000000000000000000000000000000000000000000000000000000815260040161106290612d6e565b60405180910390fd5b600260009054906101000a900473ffffffffffffffffffffffffffffffffffffffff1673ffffffffffffffffffffffffffffffffffffffff1663a9059cbb600360009054906101000a900473ffffffffffffffffffffffffffffffffffffffff16836040518363ffffffff1660e01b81526004016110ea929190612d8e565b6020604051808303816000875af1158015611109573d6000803e3d6000fd5b505050506040513d601f19601f8201168201806040525081019061112d9190612964565b5050565b60006007600083815260200190815260200160002060009054906101000a900460ff169050919050565b6000600660008373ffffffffffffffffffffffffffffffffffffffff1673ffffffffffffffffffffffffffffffffffffffff168152602001908152602001600020549050919050565b600360009054906101000a900473ffffffffffffffffffffffffffffffffffffffff1673ffffffffffffffffffffffffffffffffffffffff163373ffffffffffffffffffffffffffffffffffffffff1614611234576040517f08c379a000000000000000000000000000000000000000000000000000000000815260040161122b90612d02565b60405180910390fd5b80600260006101000a81548173ffffffffffffffffffffffffffffffffffffffff021916908373ffffffffffffffffffffffffffffffffffffffff16021790555050565b60066020528060005260406000206000915090505481565b600360009054906101000a900473ffffffffffffffffffffffffffffffffffffffff1673ffffffffffffffffffffffffffffffffffffffff163373ffffffffffffffffffffffffffffffffffffffff1614611320576040517f08c379a000000000000000000000000000000000000000000000000000000000815260040161131790612d02565b60405180910390fd5b6103e8811115611365576040517f08c379a000000000000000000000000000000000000000000000000000000000815260040161135c90612e03565b60405180910390fd5b8060058190555050565b6000606080600080600060606113836116e1565b61138b61171c565b46306000801b600067ffffffffffffffff8111156113ac576113ab611d37565b5b6040519080825280602002602001820160405280156113da5781602001602082028036833780820191505090505b507f0f00000000000000000000000000000000000000000000000000000000000000959493929190965096509650965096509650965090919293949596565b600360009054906101000a900473ffffffffffffffffffffffffffffffffffffffff1681565b60007fbbd0b2e020b7099e0129875f10fc65815f91d786c28d332a788de83a463f011d905090565b6000600660003373ffffffffffffffffffffffffffffffffffffffff1673ffffffffffffffffffffffffffffffffffffffff168152602001908152602001600020549050600660003373ffffffffffffffffffffffffffffffffffffffff1673ffffffffffffffffffffffffffffffffffffffff16815260200190815260200160002060008154809291906114fb90612a2c565b91905055508273ffffffffffffffffffffffffffffffffffffffff163373ffffffffffffffffffffffffffffffffffffffff167f5f130ce6e1bd90d4560fdc866bc55d1c7bb8c3c1ce5da1881810df3ca22ff698848460405161155f929190612e23565b60405180910390a3505050565b600460009054906101000a900473ffffffffffffffffffffffffffffffffffffffff1681565b60055481565b600360009054906101000a900473ffffffffffffffffffffffffffffffffffffffff1673ffffffffffffffffffffffffffffffffffffffff163373ffffffffffffffffffffffffffffffffffffffff1614611628576040517f08c379a000000000000000000000000000000000000000000000000000000000815260040161161f90612d02565b60405180910390fd5b80600460006101000a81548173ffffffffffffffffffffffffffffffffffffffff021916908373ffffffffffffffffffffffffffffffffffffffff16021790555050565b6000611676611757565b905090565b60076020528060005260406000206000915054906101000a900460ff1681565b60006116ae6116a8611757565b8361180e565b9050919050565b6000806000806116c5868661184f565b9250925092506116d582826118ab565b82935050505092915050565b606061171760007f0000000000000000000000000000000000000000000000000000000000000000611a0f90919063ffffffff16565b905090565b606061175260017f0000000000000000000000000000000000000000000000000000000000000000611a0f90919063ffffffff16565b905090565b60007f000000000000000000000000000000000000000000000000000000000000000073ffffffffffffffffffffffffffffffffffffffff163073ffffffffffffffffffffffffffffffffffffffff161480156117d357507f000000000000000000000000000000000000000000000000000000000000000046145b15611800577f0000000000000000000000000000000000000000000000000000000000000000905061180b565b611808611abf565b90505b90565b60006040517f190100000000000000000000000000000000000000000000000000000000000081528360028201528260228201526042812091505092915050565b600080600060418451036118945760008060006020870151925060408701519150606087015160001a905061188688828585611b55565b9550955095505050506118a4565b60006002855160001b9250925092505b9250925092565b600060038111156118bf576118be612e4c565b5b8260038111156118d2576118d1612e4c565b5b0315611a0b57600160038111156118ec576118eb612e4c565b5b8260038111156118ff576118fe612e4c565b5b03611936576040517ff645eedf00000000000000000000000000000000000000000000000000000000815260040160405180910390fd5b6002600381111561194a57611949612e4c565b5b82600381111561195d5761195c612e4c565b5b036119a2578060001c6040517ffce698f700000000000000000000000000000000000000000000000000000000815260040161199991906121a2565b60405180910390fd5b6003808111156119b5576119b4612e4c565b5b8260038111156119c8576119c7612e4c565b5b03611a0a57806040517fd78bce0c000000000000000000000000000000000000000000000000000000008152600401611a019190611f2c565b60405180910390fd5b5b5050565b606060ff60001b8314611a2c57611a2583611c49565b9050611ab9565b818054611a3890612eaa565b80601f0160208091040260200160405190810160405280929190818152602001828054611a6490612eaa565b8015611ab15780601f10611a8657610100808354040283529160200191611ab1565b820191906000526020600020905b815481529060010190602001808311611a9457829003601f168201915b505050505090505b92915050565b60007f8b73c3c69bb8fe3d512ecc4cf759cc79239f7b179b0ffacaa9a75d522b39400f7f00000000000000000000000000000000000000000000000000000000000000007f00000000000000000000000000000000000000000000000000000000000000004630604051602001611b3a959493929190612edb565b60405160208183030381529060405280519060200120905090565b60008060007f7fffffffffffffffffffffffffffffff5d576e7357a4501ddfe92f46681b20a08460001c1115611b95576000600385925092509250611c3f565b600060018888888860405160008152602001604052604051611bba9493929190612f4a565b6020604051602081039080840390855afa158015611bdc573d6000803e3d6000fd5b505050602060405103519050600073ffffffffffffffffffffffffffffffffffffffff168173ffffffffffffffffffffffffffffffffffffffff1603611c3057600060016000801b93509350935050611c3f565b8060008060001b935093509350505b9450945094915050565b60606000611c5683611cbd565b90506000602067ffffffffffffffff811115611c7557611c74611d37565b5b6040519080825280601f01601f191660200182016040528015611ca75781602001600182028036833780820191505090505b5090508181528360208201528092505050919050565b60008060ff8360001c169050601f811115611d04576040517fb3512b0c00000000000000000000000000000000000000000000000000000000815260040160405180910390fd5b80915050919050565b6000604051905090565b600080fd5b600080fd5b600080fd5b6000601f19601f8301169050919050565b7f4e487b7100000000000000000000000000000000000000000000000000000000600052604160045260246000fd5b611d6f82611d26565b810181811067ffffffffffffffff82111715611d8e57611d8d611d37565b5b80604052505050565b6000611da1611d0d565b9050611dad8282611d66565b919050565b600073ffffffffffffffffffffffffffffffffffffffff82169050919050565b6000611ddd82611db2565b9050919050565b611ded81611dd2565b8114611df857600080fd5b50565b600081359050611e0a81611de4565b92915050565b6000819050919050565b611e2381611e10565b8114611e2e57600080fd5b50565b600081359050611e4081611e1a565b92915050565b600060c08284031215611e5c57611e5b611d21565b5b611e6660c0611d97565b90506000611e7684828501611dfb565b6000830152506020611e8a84828501611dfb565b6020830152506040611e9e84828501611e31565b6040830152506060611eb284828501611e31565b6060830152506080611ec684828501611e31565b60808301525060a0611eda84828501611e31565b60a08301525092915050565b600060c08284031215611efc57611efb611d17565b5b6000611f0a84828501611e46565b91505092915050565b6000819050919050565b611f2681611f13565b82525050565b6000602082019050611f416000830184611f1d565b92915050565b600080fd5b600080fd5b600067ffffffffffffffff821115611f6c57611f6b611d37565b5b611f7582611d26565b9050602081019050919050565b82818337600083830152505050565b6000611fa4611f9f84611f51565b611d97565b905082815260208101848484011115611fc057611fbf611f4c565b5b611fcb848285611f82565b509392505050565b600082601f830112611fe857611fe7611f47565b5b8135611ff8848260208601611f91565b91505092915050565b60008060e0838503121561201857612017611d17565b5b600061202685828601611e46565b92505060c083013567ffffffffffffffff81111561204757612046611d1c565b5b61205385828601611fd3565b9150509250929050565b6000819050919050565b600061208261207d61207884611db2565b61205d565b611db2565b9050919050565b600061209482612067565b9050919050565b60006120a682612089565b9050919050565b6120b68161209b565b82525050565b60006020820190506120d160008301846120ad565b92915050565b6120e081611f13565b81146120eb57600080fd5b50565b6000813590506120fd816120d7565b92915050565b60006020828403121561211957612118611d17565b5b6000612127848285016120ee565b91505092915050565b60008115159050919050565b61214581612130565b82525050565b6000602082019050612160600083018461213c565b92915050565b60006020828403121561217c5761217b611d17565b5b600061218a84828501611dfb565b91505092915050565b61219c81611e10565b82525050565b60006020820190506121b76000830184612193565b92915050565b6000602082840312156121d3576121d2611d17565b5b60006121e184828501611e31565b91505092915050565b60007fff0000000000000000000000000000000000000000000000000000000000000082169050919050565b61221f816121ea565b82525050565b600081519050919050565b600082825260208201905092915050565b60005b8381101561225f578082015181840152602081019050612244565b60008484015250505050565b600061227682612225565b6122808185612230565b9350612290818560208601612241565b61229981611d26565b840191505092915050565b6122ad81611dd2565b82525050565b600081519050919050565b600082825260208201905092915050565b6000819050602082019050919050565b6122e881611e10565b82525050565b60006122fa83836122df565b60208301905092915050565b6000602082019050919050565b600061231e826122b3565b61232881856122be565b9350612333836122cf565b8060005b8381101561236457815161234b88826122ee565b975061235683612306565b925050600181019050612337565b5085935050505092915050565b600060e082019050612386600083018a612216565b8181036020830152612398818961226b565b905081810360408301526123ac818861226b565b90506123bb6060830187612193565b6123c860808301866122a4565b6123d560a0830185611f1d565b81810360c08301526123e78184612313565b905098975050505050505050565b600060208201905061240a60008301846122a4565b92915050565b6000806040838503121561242757612426611d17565b5b600061243585828601611dfb565b925050602061244685828601611e31565b9150509250929050565b600060e082019050612465600083018a611f1d565b61247260208301896122a4565b61247f60408301886122a4565b61248c6060830187612193565b6124996080830186612193565b6124a660a0830185612193565b6124b360c0830184612193565b98975050505050505050565b7f4c697374696e6720657870697265640000000000000000000000000000000000600082015250565b60006124f5600f83612230565b9150612500826124bf565b602082019050919050565b60006020820190508181036000830152612524816124e8565b9050919050565b7f43616e6e6f742062757920796f7572206f776e204e4654000000000000000000600082015250565b6000612561601783612230565b915061256c8261252b565b602082019050919050565b6000602082019050818103600083015261259081612554565b9050919050565b7f496e76616c696420707269636500000000000000000000000000000000000000600082015250565b60006125cd600d83612230565b91506125d882612597565b602082019050919050565b600060208201905081810360008301526125fc816125c0565b9050919050565b7f496e76616c6964206e6f6e636500000000000000000000000000000000000000600082015250565b6000612639600d83612230565b915061264482612603565b602082019050919050565b600060208201905081810360008301526126688161262c565b9050919050565b7f5369676e617475726520616c7265616479207573656400000000000000000000600082015250565b60006126a5601683612230565b91506126b08261266f565b602082019050919050565b600060208201905081810360008301526126d481612698565b9050919050565b7f496e76616c69642073656c6c6572207369676e61747572650000000000000000600082015250565b6000612711601883612230565b915061271c826126db565b602082019050919050565b6000602082019050818103600083015261274081612704565b9050919050565b60008151905061275681611e1a565b92915050565b60006020828403121561277257612771611d17565b5b600061278084828501612747565b91505092915050565b7f496e73756666696369656e7420746f6b656e2062616c616e6365000000000000600082015250565b60006127bf601a83612230565b91506127ca82612789565b602082019050919050565b600060208201905081810360008301526127ee816127b2565b9050919050565b600060408201905061280a60008301856122a4565b61281760208301846122a4565b9392505050565b7f496e73756666696369656e7420746f6b656e20616c6c6f77616e636500000000600082015250565b6000612854601c83612230565b915061285f8261281e565b602082019050919050565b6000602082019050818103600083015261288381612847565b9050919050565b60008151905061289981611de4565b92915050565b6000602082840312156128b5576128b4611d17565b5b60006128c38482850161288a565b91505092915050565b7f53656c6c657220646f65736e2774206f776e204e465400000000000000000000600082015250565b6000612902601683612230565b915061290d826128cc565b602082019050919050565b60006020820190508181036000830152612931816128f5565b9050919050565b61294181612130565b811461294c57600080fd5b50565b60008151905061295e81612938565b92915050565b60006020828403121561297a57612979611d17565b5b60006129888482850161294f565b91505092915050565b7f4e4654206e6f7420617070726f76656420666f72207472616e73666572000000600082015250565b60006129c7601d83612230565b91506129d282612991565b602082019050919050565b600060208201905081810360008301526129f6816129ba565b9050919050565b7f4e487b7100000000000000000000000000000000000000000000000000000000600052601160045260246000fd5b6000612a3782611e10565b91507fffffffffffffffffffffffffffffffffffffffffffffffffffffffffffffffff8203612a6957612a686129fd565b5b600182019050919050565b6000612a7f82611e10565b9150612a8a83611e10565b9250828202612a9881611e10565b91508282048414831517612aaf57612aae6129fd565b5b5092915050565b7f4e487b7100000000000000000000000000000000000000000000000000000000600052601260045260246000fd5b6000612af082611e10565b9150612afb83611e10565b925082612b0b57612b0a612ab6565b5b828204905092915050565b6000612b2182611e10565b9150612b2c83611e10565b9250828203905081811115612b4457612b436129fd565b5b92915050565b6000606082019050612b5f60008301866122a4565b612b6c60208301856122a4565b612b796040830184612193565b949350505050565b7f5061796d656e74207472616e7366657220746f2073656c6c6572206661696c6560008201527f6400000000000000000000000000000000000000000000000000000000000000602082015250565b6000612bdd602183612230565b9150612be882612b81565b604082019050919050565b60006020820190508181036000830152612c0c81612bd0565b9050919050565b7f506c6174666f726d20666565207472616e73666572206661696c656400000000600082015250565b6000612c49601c83612230565b9150612c5482612c13565b602082019050919050565b60006020820190508181036000830152612c7881612c3c565b9050919050565b6000606082019050612c946000830186612193565b612ca16020830185612193565b612cae6040830184612193565b949350505050565b7f4f6e6c79206f776e657200000000000000000000000000000000000000000000600082015250565b6000612cec600a83612230565b9150612cf782612cb6565b602082019050919050565b60006020820190508181036000830152612d1b81612cdf565b9050919050565b7f4e6f206665657320746f20776974686472617700000000000000000000000000600082015250565b6000612d58601383612230565b9150612d6382612d22565b602082019050919050565b60006020820190508181036000830152612d8781612d4b565b9050919050565b6000604082019050612da360008301856122a4565b612db06020830184612193565b9392505050565b7f46656520746f6f20686967680000000000000000000000000000000000000000600082015250565b6000612ded600c83612230565b9150612df882612db7565b602082019050919050565b60006020820190508181036000830152612e1c81612de0565b9050919050565b6000604082019050612e386000830185612193565b612e456020830184612193565b9392505050565b7f4e487b7100000000000000000000000000000000000000000000000000000000600052602160045260246000fd5b7f4e487b7100000000000000000000000000000000000000000000000000000000600052602260045260246000fd5b60006002820490506001821680612ec257607f821691505b602082108103612ed557612ed4612e7b565b5b50919050565b600060a082019050612ef06000830188611f1d565b612efd6020830187611f1d565b612f0a6040830186611f1d565b612f176060830185612193565b612f2460808301846122a4565b9695505050505050565b600060ff82169050919050565b612f4481612f2e565b82525050565b6000608082019050612f5f6000830187611f1d565b612f6c6020830186612f3b565b612f796040830185611f1d565b612f866060830184611f1d565b9594505050505056fea2646970667358221220c7a41cf15740ad2e00de6f02c8100c2f89dda48f6645d9135b2baeff5d84bcb464736f6c634300081c0033",
  "linkReferences": {},
  "deployedLinkReferences": {}
}